{
	".learneth/Solidity Beginner Course/8.1 Data Structures - Arrays/arrays.sol": {
		"Array": {
			"abi": [
				{
					"inputs": [
						{
							"internalType": "uint256",
							"name": "",
							"type": "uint256"
						}
					],
					"name": "arr",
					"outputs": [
						{
							"internalType": "uint256",
							"name": "",
							"type": "uint256"
						}
					],
					"stateMutability": "view",
					"type": "function"
				},
				{
					"inputs": [
						{
							"internalType": "uint256",
							"name": "",
							"type": "uint256"
						}
					],
					"name": "arr2",
					"outputs": [
						{
							"internalType": "uint256",
							"name": "",
							"type": "uint256"
						}
					],
					"stateMutability": "view",
					"type": "function"
				},
				{
					"inputs": [
						{
							"internalType": "uint256",
							"name": "",
							"type": "uint256"
						}
					],
					"name": "arr3",
					"outputs": [
						{
							"internalType": "uint256",
							"name": "",
							"type": "uint256"
						}
					],
					"stateMutability": "view",
					"type": "function"
				},
				{
					"inputs": [
						{
							"internalType": "uint256",
							"name": "i",
							"type": "uint256"
						}
					],
					"name": "get",
					"outputs": [
						{
							"internalType": "uint256",
							"name": "",
							"type": "uint256"
						}
					],
					"stateMutability": "view",
					"type": "function"
				},
				{
					"inputs": [],
					"name": "getArr",
					"outputs": [
						{
							"internalType": "uint256[3]",
							"name": "",
							"type": "uint256[3]"
						}
					],
					"stateMutability": "view",
					"type": "function"
				},
				{
					"inputs": [],
					"name": "getLength",
					"outputs": [
						{
							"internalType": "uint256",
							"name": "",
							"type": "uint256"
						}
					],
					"stateMutability": "view",
					"type": "function"
				},
				{
					"inputs": [
						{
							"internalType": "uint256",
							"name": "",
							"type": "uint256"
						}
					],
					"name": "myFixedSizeArr",
					"outputs": [
						{
							"internalType": "uint256",
							"name": "",
							"type": "uint256"
						}
					],
					"stateMutability": "view",
					"type": "function"
				},
				{
					"inputs": [],
					"name": "pop",
					"outputs": [],
					"stateMutability": "nonpayable",
					"type": "function"
				},
				{
					"inputs": [
						{
							"internalType": "uint256",
							"name": "i",
							"type": "uint256"
						}
					],
					"name": "push",
					"outputs": [],
					"stateMutability": "nonpayable",
					"type": "function"
				},
				{
					"inputs": [
						{
							"internalType": "uint256",
							"name": "index",
							"type": "uint256"
						}
					],
					"name": "remove",
					"outputs": [],
					"stateMutability": "nonpayable",
					"type": "function"
				}
			],
			"devdoc": {
				"kind": "dev",
				"methods": {},
				"version": 1
			},
			"evm": {
				"assembly": "    /* \".learneth/Solidity Beginner Course/8.1 Data Structures - Arrays/arrays.sol\":57:1218  contract Array {... */\n  mstore(0x40, 0x80)\n    /* \".learneth/Solidity Beginner Course/8.1 Data Structures - Arrays/arrays.sol\":144:174  uint[] public arr2 = [1, 2, 3] */\n  mload(0x40)\n  dup1\n  0x60\n  add\n  0x40\n  mstore\n  dup1\n    /* \".learneth/Solidity Beginner Course/8.1 Data Structures - Arrays/arrays.sol\":166:167  1 */\n  0x01\n    /* \".learneth/Solidity Beginner Course/8.1 Data Structures - Arrays/arrays.sol\":144:174  uint[] public arr2 = [1, 2, 3] */\n  0xff\n  and\n  dup2\n  mstore\n  0x20\n  add\n    /* \".learneth/Solidity Beginner Course/8.1 Data Structures - Arrays/arrays.sol\":169:170  2 */\n  0x02\n    /* \".learneth/Solidity Beginner Course/8.1 Data Structures - Arrays/arrays.sol\":144:174  uint[] public arr2 = [1, 2, 3] */\n  0xff\n  and\n  dup2\n  mstore\n  0x20\n  add\n    /* \".learneth/Solidity Beginner Course/8.1 Data Structures - Arrays/arrays.sol\":172:173  3 */\n  0x03\n    /* \".learneth/Solidity Beginner Course/8.1 Data Structures - Arrays/arrays.sol\":144:174  uint[] public arr2 = [1, 2, 3] */\n  0xff\n  and\n  dup2\n  mstore\n  pop\n  0x01\n  swap1\n  0x03\n  tag_1\n  swap3\n  swap2\n  swap1\n  tag_2\n  jump\t// in\ntag_1:\n  pop\n    /* \".learneth/Solidity Beginner Course/8.1 Data Structures - Arrays/arrays.sol\":272:303  uint[3] public arr3 = [0, 1, 2] */\n  mload(0x40)\n  dup1\n  0x60\n  add\n  0x40\n  mstore\n  dup1\n    /* \".learneth/Solidity Beginner Course/8.1 Data Structures - Arrays/arrays.sol\":295:296  0 */\n  0x00\n    /* \".learneth/Solidity Beginner Course/8.1 Data Structures - Arrays/arrays.sol\":272:303  uint[3] public arr3 = [0, 1, 2] */\n  0xff\n  and\n  dup2\n  mstore\n  0x20\n  add\n    /* \".learneth/Solidity Beginner Course/8.1 Data Structures - Arrays/arrays.sol\":298:299  1 */\n  0x01\n    /* \".learneth/Solidity Beginner Course/8.1 Data Structures - Arrays/arrays.sol\":272:303  uint[3] public arr3 = [0, 1, 2] */\n  0xff\n  and\n  dup2\n  mstore\n  0x20\n  add\n    /* \".learneth/Solidity Beginner Course/8.1 Data Structures - Arrays/arrays.sol\":301:302  2 */\n  0x02\n    /* \".learneth/Solidity Beginner Course/8.1 Data Structures - Arrays/arrays.sol\":272:303  uint[3] public arr3 = [0, 1, 2] */\n  0xff\n  and\n  dup2\n  mstore\n  pop\n  0x0c\n  swap1\n  0x03\n  tag_3\n  swap3\n  swap2\n  swap1\n  tag_4\n  jump\t// in\ntag_3:\n  pop\n    /* \".learneth/Solidity Beginner Course/8.1 Data Structures - Arrays/arrays.sol\":57:1218  contract Array {... */\n  callvalue\n  dup1\n  iszero\n  tag_5\n  jumpi\n  0x00\n  dup1\n  revert\ntag_5:\n  pop\n  jump(tag_6)\ntag_2:\n  dup3\n  dup1\n  sload\n  dup3\n  dup3\n  sstore\n  swap1\n  0x00\n  mstore\n  keccak256(0x00, 0x20)\n  swap1\n  dup2\n  add\n  swap3\n  dup3\n  iszero\n  tag_7\n  jumpi\n  swap2\n  0x20\n  mul\n  dup3\n  add\ntag_8:\n  dup3\n  dup2\n  gt\n  iszero\n  tag_9\n  jumpi\n  dup3\n  mload\n  dup3\n  swap1\n  0xff\n  and\n  swap1\n  sstore\n  swap2\n  0x20\n  add\n  swap2\n  swap1\n  0x01\n  add\n  swap1\n  jump(tag_8)\ntag_9:\ntag_7:\n  pop\n  swap1\n  pop\n  tag_10\n  swap2\n  swap1\n  tag_11\n  jump\t// in\ntag_10:\n  pop\n  swap1\n  jump\t// out\ntag_4:\n  dup3\n  0x03\n  dup2\n  add\n  swap3\n  dup3\n  iszero\n  tag_12\n  jumpi\n  swap2\n  0x20\n  mul\n  dup3\n  add\ntag_13:\n  dup3\n  dup2\n  gt\n  iszero\n  tag_14\n  jumpi\n  dup3\n  mload\n  dup3\n  swap1\n  0xff\n  and\n  swap1\n  sstore\n  swap2\n  0x20\n  add\n  swap2\n  swap1\n  0x01\n  add\n  swap1\n  jump(tag_13)\ntag_14:\ntag_12:\n  pop\n  swap1\n  pop\n  tag_15\n  swap2\n  swap1\n  tag_11\n  jump\t// in\ntag_15:\n  pop\n  swap1\n  jump\t// out\ntag_11:\ntag_16:\n  dup1\n  dup3\n  gt\n  iszero\n  tag_17\n  jumpi\n  0x00\n  dup2\n  0x00\n  swap1\n  sstore\n  pop\n  0x01\n  add\n  jump(tag_16)\ntag_17:\n  pop\n  swap1\n  jump\t// out\ntag_6:\n  dataSize(sub_0)\n  dup1\n  dataOffset(sub_0)\n  0x00\n  codecopy\n  0x00\n  return\nstop\n\nsub_0: assembly {\n        /* \".learneth/Solidity Beginner Course/8.1 Data Structures - Arrays/arrays.sol\":57:1218  contract Array {... */\n      mstore(0x40, 0x80)\n      callvalue\n      dup1\n      iszero\n      tag_1\n      jumpi\n      0x00\n      dup1\n      revert\n    tag_1:\n      pop\n      jumpi(tag_2, lt(calldatasize, 0x04))\n      shr(0xe0, calldataload(0x00))\n      dup1\n      0x959ac484\n      gt\n      tag_13\n      jumpi\n      dup1\n      0x959ac484\n      eq\n      tag_8\n      jumpi\n      dup1\n      0xa4ece52c\n      eq\n      tag_9\n      jumpi\n      dup1\n      0xbe1c766b\n      eq\n      tag_10\n      jumpi\n      dup1\n      0xedf0099b\n      eq\n      tag_11\n      jumpi\n      dup1\n      0xfb8cbced\n      eq\n      tag_12\n      jumpi\n      jump(tag_2)\n    tag_13:\n      dup1\n      0x38a067ce\n      eq\n      tag_3\n      jumpi\n      dup1\n      0x4cc82215\n      eq\n      tag_4\n      jumpi\n      dup1\n      0x71e5ee5f\n      eq\n      tag_5\n      jumpi\n      dup1\n      0x8732ded8\n      eq\n      tag_6\n      jumpi\n      dup1\n      0x9507d39a\n      eq\n      tag_7\n      jumpi\n    tag_2:\n      0x00\n      dup1\n      revert\n        /* \".learneth/Solidity Beginner Course/8.1 Data Structures - Arrays/arrays.sol\":235:265  uint[10] public myFixedSizeArr */\n    tag_3:\n      tag_14\n      0x04\n      dup1\n      calldatasize\n      sub\n      dup2\n      add\n      swap1\n      tag_15\n      swap2\n      swap1\n      tag_16\n      jump\t// in\n    tag_15:\n      tag_17\n      jump\t// in\n    tag_14:\n      mload(0x40)\n      tag_18\n      swap2\n      swap1\n      tag_19\n      jump\t// in\n    tag_18:\n      mload(0x40)\n      dup1\n      swap2\n      sub\n      swap1\n      return\n        /* \".learneth/Solidity Beginner Course/8.1 Data Structures - Arrays/arrays.sol\":1006:1216  function remove(uint index) public {... */\n    tag_4:\n      tag_20\n      0x04\n      dup1\n      calldatasize\n      sub\n      dup2\n      add\n      swap1\n      tag_21\n      swap2\n      swap1\n      tag_16\n      jump\t// in\n    tag_21:\n      tag_22\n      jump\t// in\n    tag_20:\n      stop\n        /* \".learneth/Solidity Beginner Course/8.1 Data Structures - Arrays/arrays.sol\":121:138  uint[] public arr */\n    tag_5:\n      tag_23\n      0x04\n      dup1\n      calldatasize\n      sub\n      dup2\n      add\n      swap1\n      tag_24\n      swap2\n      swap1\n      tag_16\n      jump\t// in\n    tag_24:\n      tag_25\n      jump\t// in\n    tag_23:\n      mload(0x40)\n      tag_26\n      swap2\n      swap1\n      tag_19\n      jump\t// in\n    tag_26:\n      mload(0x40)\n      dup1\n      swap2\n      sub\n      swap1\n      return\n        /* \".learneth/Solidity Beginner Course/8.1 Data Structures - Arrays/arrays.sol\":272:303  uint[3] public arr3 = [0, 1, 2] */\n    tag_6:\n      tag_27\n      0x04\n      dup1\n      calldatasize\n      sub\n      dup2\n      add\n      swap1\n      tag_28\n      swap2\n      swap1\n      tag_16\n      jump\t// in\n    tag_28:\n      tag_29\n      jump\t// in\n    tag_27:\n      mload(0x40)\n      tag_30\n      swap2\n      swap1\n      tag_19\n      jump\t// in\n    tag_30:\n      mload(0x40)\n      dup1\n      swap2\n      sub\n      swap1\n      return\n        /* \".learneth/Solidity Beginner Course/8.1 Data Structures - Arrays/arrays.sol\":310:388  function get(uint i) public view returns (uint) {... */\n    tag_7:\n      tag_31\n      0x04\n      dup1\n      calldatasize\n      sub\n      dup2\n      add\n      swap1\n      tag_32\n      swap2\n      swap1\n      tag_16\n      jump\t// in\n    tag_32:\n      tag_33\n      jump\t// in\n    tag_31:\n      mload(0x40)\n      tag_34\n      swap2\n      swap1\n      tag_19\n      jump\t// in\n    tag_34:\n      mload(0x40)\n      dup1\n      swap2\n      sub\n      swap1\n      return\n        /* \".learneth/Solidity Beginner Course/8.1 Data Structures - Arrays/arrays.sol\":627:764  function push(uint i) public {... */\n    tag_8:\n      tag_35\n      0x04\n      dup1\n      calldatasize\n      sub\n      dup2\n      add\n      swap1\n      tag_36\n      swap2\n      swap1\n      tag_16\n      jump\t// in\n    tag_36:\n      tag_37\n      jump\t// in\n    tag_35:\n      stop\n        /* \".learneth/Solidity Beginner Course/8.1 Data Structures - Arrays/arrays.sol\":770:912  function pop() public {... */\n    tag_9:\n      tag_38\n      tag_39\n      jump\t// in\n    tag_38:\n      stop\n        /* \".learneth/Solidity Beginner Course/8.1 Data Structures - Arrays/arrays.sol\":918:1000  function getLength() public view returns (uint) {... */\n    tag_10:\n      tag_40\n      tag_41\n      jump\t// in\n    tag_40:\n      mload(0x40)\n      tag_42\n      swap2\n      swap1\n      tag_19\n      jump\t// in\n    tag_42:\n      mload(0x40)\n      dup1\n      swap2\n      sub\n      swap1\n      return\n        /* \".learneth/Solidity Beginner Course/8.1 Data Structures - Arrays/arrays.sol\":144:174  uint[] public arr2 = [1, 2, 3] */\n    tag_11:\n      tag_43\n      0x04\n      dup1\n      calldatasize\n      sub\n      dup2\n      add\n      swap1\n      tag_44\n      swap2\n      swap1\n      tag_16\n      jump\t// in\n    tag_44:\n      tag_45\n      jump\t// in\n    tag_43:\n      mload(0x40)\n      tag_46\n      swap2\n      swap1\n      tag_19\n      jump\t// in\n    tag_46:\n      mload(0x40)\n      dup1\n      swap2\n      sub\n      swap1\n      return\n        /* \".learneth/Solidity Beginner Course/8.1 Data Structures - Arrays/arrays.sol\":538:621  function getArr() public view returns (uint[3] memory) {... */\n    tag_12:\n      tag_47\n      tag_48\n      jump\t// in\n    tag_47:\n      mload(0x40)\n      tag_49\n      swap2\n      swap1\n      tag_50\n      jump\t// in\n    tag_49:\n      mload(0x40)\n      dup1\n      swap2\n      sub\n      swap1\n      return\n        /* \".learneth/Solidity Beginner Course/8.1 Data Structures - Arrays/arrays.sol\":235:265  uint[10] public myFixedSizeArr */\n    tag_17:\n      0x02\n      dup2\n      0x0a\n      dup2\n      lt\n      tag_51\n      jumpi\n      0x00\n      dup1\n      revert\n    tag_51:\n      add\n      0x00\n      swap2\n      pop\n      swap1\n      pop\n      sload\n      dup2\n      jump\t// out\n        /* \".learneth/Solidity Beginner Course/8.1 Data Structures - Arrays/arrays.sol\":1006:1216  function remove(uint index) public {... */\n    tag_22:\n        /* \".learneth/Solidity Beginner Course/8.1 Data Structures - Arrays/arrays.sol\":1199:1202  arr */\n      0x00\n        /* \".learneth/Solidity Beginner Course/8.1 Data Structures - Arrays/arrays.sol\":1203:1208  index */\n      dup2\n        /* \".learneth/Solidity Beginner Course/8.1 Data Structures - Arrays/arrays.sol\":1199:1209  arr[index] */\n      dup2\n      sload\n      dup2\n      lt\n      tag_54\n      jumpi\n      tag_55\n      tag_56\n      jump\t// in\n    tag_55:\n    tag_54:\n      swap1\n      0x00\n      mstore\n      keccak256(0x00, 0x20)\n      add\n        /* \".learneth/Solidity Beginner Course/8.1 Data Structures - Arrays/arrays.sol\":1192:1209  delete arr[index] */\n      0x00\n      swap1\n      sstore\n        /* \".learneth/Solidity Beginner Course/8.1 Data Structures - Arrays/arrays.sol\":1006:1216  function remove(uint index) public {... */\n      pop\n      jump\t// out\n        /* \".learneth/Solidity Beginner Course/8.1 Data Structures - Arrays/arrays.sol\":121:138  uint[] public arr */\n    tag_25:\n      0x00\n      dup2\n      dup2\n      sload\n      dup2\n      lt\n      tag_58\n      jumpi\n      0x00\n      dup1\n      revert\n    tag_58:\n      swap1\n      0x00\n      mstore\n      keccak256(0x00, 0x20)\n      add\n      0x00\n      swap2\n      pop\n      swap1\n      pop\n      sload\n      dup2\n      jump\t// out\n        /* \".learneth/Solidity Beginner Course/8.1 Data Structures - Arrays/arrays.sol\":272:303  uint[3] public arr3 = [0, 1, 2] */\n    tag_29:\n      0x0c\n      dup2\n      0x03\n      dup2\n      lt\n      tag_60\n      jumpi\n      0x00\n      dup1\n      revert\n    tag_60:\n      add\n      0x00\n      swap2\n      pop\n      swap1\n      pop\n      sload\n      dup2\n      jump\t// out\n        /* \".learneth/Solidity Beginner Course/8.1 Data Structures - Arrays/arrays.sol\":310:388  function get(uint i) public view returns (uint) {... */\n    tag_33:\n        /* \".learneth/Solidity Beginner Course/8.1 Data Structures - Arrays/arrays.sol\":352:356  uint */\n      0x00\n        /* \".learneth/Solidity Beginner Course/8.1 Data Structures - Arrays/arrays.sol\":375:378  arr */\n      dup1\n        /* \".learneth/Solidity Beginner Course/8.1 Data Structures - Arrays/arrays.sol\":379:380  i */\n      dup3\n        /* \".learneth/Solidity Beginner Course/8.1 Data Structures - Arrays/arrays.sol\":375:381  arr[i] */\n      dup2\n      sload\n      dup2\n      lt\n      tag_63\n      jumpi\n      tag_64\n      tag_56\n      jump\t// in\n    tag_64:\n    tag_63:\n      swap1\n      0x00\n      mstore\n      keccak256(0x00, 0x20)\n      add\n      sload\n        /* \".learneth/Solidity Beginner Course/8.1 Data Structures - Arrays/arrays.sol\":368:381  return arr[i] */\n      swap1\n      pop\n        /* \".learneth/Solidity Beginner Course/8.1 Data Structures - Arrays/arrays.sol\":310:388  function get(uint i) public view returns (uint) {... */\n      swap2\n      swap1\n      pop\n      jump\t// out\n        /* \".learneth/Solidity Beginner Course/8.1 Data Structures - Arrays/arrays.sol\":627:764  function push(uint i) public {... */\n    tag_37:\n        /* \".learneth/Solidity Beginner Course/8.1 Data Structures - Arrays/arrays.sol\":746:749  arr */\n      0x00\n        /* \".learneth/Solidity Beginner Course/8.1 Data Structures - Arrays/arrays.sol\":755:756  i */\n      dup2\n        /* \".learneth/Solidity Beginner Course/8.1 Data Structures - Arrays/arrays.sol\":746:757  arr.push(i) */\n      swap1\n      dup1\n      0x01\n      dup2\n      sload\n      add\n      dup1\n      dup3\n      sstore\n      dup1\n      swap2\n      pop\n      pop\n      0x01\n      swap1\n      sub\n      swap1\n      0x00\n      mstore\n      keccak256(0x00, 0x20)\n      add\n      0x00\n      swap1\n      swap2\n      swap1\n      swap2\n      swap1\n      swap2\n      pop\n      sstore\n        /* \".learneth/Solidity Beginner Course/8.1 Data Structures - Arrays/arrays.sol\":627:764  function push(uint i) public {... */\n      pop\n      jump\t// out\n        /* \".learneth/Solidity Beginner Course/8.1 Data Structures - Arrays/arrays.sol\":770:912  function pop() public {... */\n    tag_39:\n        /* \".learneth/Solidity Beginner Course/8.1 Data Structures - Arrays/arrays.sol\":896:899  arr */\n      0x00\n        /* \".learneth/Solidity Beginner Course/8.1 Data Structures - Arrays/arrays.sol\":896:905  arr.pop() */\n      dup1\n      sload\n      dup1\n      tag_69\n      jumpi\n      tag_70\n      tag_71\n      jump\t// in\n    tag_70:\n    tag_69:\n      0x01\n      swap1\n      sub\n      dup2\n      dup2\n      swap1\n      0x00\n      mstore\n      keccak256(0x00, 0x20)\n      add\n      0x00\n      swap1\n      sstore\n      swap1\n      sstore\n        /* \".learneth/Solidity Beginner Course/8.1 Data Structures - Arrays/arrays.sol\":770:912  function pop() public {... */\n      jump\t// out\n        /* \".learneth/Solidity Beginner Course/8.1 Data Structures - Arrays/arrays.sol\":918:1000  function getLength() public view returns (uint) {... */\n    tag_41:\n        /* \".learneth/Solidity Beginner Course/8.1 Data Structures - Arrays/arrays.sol\":960:964  uint */\n      0x00\n        /* \".learneth/Solidity Beginner Course/8.1 Data Structures - Arrays/arrays.sol\":983:986  arr */\n      dup1\n        /* \".learneth/Solidity Beginner Course/8.1 Data Structures - Arrays/arrays.sol\":983:993  arr.length */\n      dup1\n      sload\n      swap1\n      pop\n        /* \".learneth/Solidity Beginner Course/8.1 Data Structures - Arrays/arrays.sol\":976:993  return arr.length */\n      swap1\n      pop\n        /* \".learneth/Solidity Beginner Course/8.1 Data Structures - Arrays/arrays.sol\":918:1000  function getLength() public view returns (uint) {... */\n      swap1\n      jump\t// out\n        /* \".learneth/Solidity Beginner Course/8.1 Data Structures - Arrays/arrays.sol\":144:174  uint[] public arr2 = [1, 2, 3] */\n    tag_45:\n      0x01\n      dup2\n      dup2\n      sload\n      dup2\n      lt\n      tag_74\n      jumpi\n      0x00\n      dup1\n      revert\n    tag_74:\n      swap1\n      0x00\n      mstore\n      keccak256(0x00, 0x20)\n      add\n      0x00\n      swap2\n      pop\n      swap1\n      pop\n      sload\n      dup2\n      jump\t// out\n        /* \".learneth/Solidity Beginner Course/8.1 Data Structures - Arrays/arrays.sol\":538:621  function getArr() public view returns (uint[3] memory) {... */\n    tag_48:\n        /* \".learneth/Solidity Beginner Course/8.1 Data Structures - Arrays/arrays.sol\":577:591  uint[3] memory */\n      tag_76\n      tag_77\n      jump\t// in\n    tag_76:\n        /* \".learneth/Solidity Beginner Course/8.1 Data Structures - Arrays/arrays.sol\":610:614  arr3 */\n      0x0c\n        /* \".learneth/Solidity Beginner Course/8.1 Data Structures - Arrays/arrays.sol\":603:614  return arr3 */\n      0x03\n      dup1\n      0x20\n      mul\n      mload(0x40)\n      swap1\n      dup2\n      add\n      0x40\n      mstore\n      dup1\n      swap3\n      swap2\n      swap1\n      dup3\n      0x03\n      dup1\n      iszero\n      tag_79\n      jumpi\n      0x20\n      mul\n      dup3\n      add\n      swap2\n    tag_80:\n      dup2\n      sload\n      dup2\n      mstore\n      0x20\n      add\n      swap1\n      0x01\n      add\n      swap1\n      dup1\n      dup4\n      gt\n      tag_80\n      jumpi\n    tag_79:\n      pop\n      pop\n      pop\n      pop\n      pop\n      swap1\n      pop\n        /* \".learneth/Solidity Beginner Course/8.1 Data Structures - Arrays/arrays.sol\":538:621  function getArr() public view returns (uint[3] memory) {... */\n      swap1\n      jump\t// out\n    tag_77:\n      mload(0x40)\n      dup1\n      0x60\n      add\n      0x40\n      mstore\n      dup1\n      0x03\n      swap1\n      0x20\n      dup3\n      mul\n      dup1\n      calldatasize\n      dup4\n      calldatacopy\n      dup1\n      dup3\n      add\n      swap2\n      pop\n      pop\n      swap1\n      pop\n      pop\n      swap1\n      jump\t// out\n        /* \"#utility.yul\":88:205   */\n    tag_82:\n        /* \"#utility.yul\":197:198   */\n      0x00\n        /* \"#utility.yul\":194:195   */\n      dup1\n        /* \"#utility.yul\":187:199   */\n      revert\n        /* \"#utility.yul\":334:411   */\n    tag_84:\n        /* \"#utility.yul\":371:378   */\n      0x00\n        /* \"#utility.yul\":400:405   */\n      dup2\n        /* \"#utility.yul\":389:405   */\n      swap1\n      pop\n        /* \"#utility.yul\":334:411   */\n      swap2\n      swap1\n      pop\n      jump\t// out\n        /* \"#utility.yul\":417:539   */\n    tag_85:\n        /* \"#utility.yul\":490:514   */\n      tag_101\n        /* \"#utility.yul\":508:513   */\n      dup2\n        /* \"#utility.yul\":490:514   */\n      tag_84\n      jump\t// in\n    tag_101:\n        /* \"#utility.yul\":483:488   */\n      dup2\n        /* \"#utility.yul\":480:515   */\n      eq\n        /* \"#utility.yul\":470:533   */\n      tag_102\n      jumpi\n        /* \"#utility.yul\":529:530   */\n      0x00\n        /* \"#utility.yul\":526:527   */\n      dup1\n        /* \"#utility.yul\":519:531   */\n      revert\n        /* \"#utility.yul\":470:533   */\n    tag_102:\n        /* \"#utility.yul\":417:539   */\n      pop\n      jump\t// out\n        /* \"#utility.yul\":545:684   */\n    tag_86:\n        /* \"#utility.yul\":591:596   */\n      0x00\n        /* \"#utility.yul\":629:635   */\n      dup2\n        /* \"#utility.yul\":616:636   */\n      calldataload\n        /* \"#utility.yul\":607:636   */\n      swap1\n      pop\n        /* \"#utility.yul\":645:678   */\n      tag_104\n        /* \"#utility.yul\":672:677   */\n      dup2\n        /* \"#utility.yul\":645:678   */\n      tag_85\n      jump\t// in\n    tag_104:\n        /* \"#utility.yul\":545:684   */\n      swap3\n      swap2\n      pop\n      pop\n      jump\t// out\n        /* \"#utility.yul\":690:1019   */\n    tag_16:\n        /* \"#utility.yul\":749:755   */\n      0x00\n        /* \"#utility.yul\":798:800   */\n      0x20\n        /* \"#utility.yul\":786:795   */\n      dup3\n        /* \"#utility.yul\":777:784   */\n      dup5\n        /* \"#utility.yul\":773:796   */\n      sub\n        /* \"#utility.yul\":769:801   */\n      slt\n        /* \"#utility.yul\":766:885   */\n      iszero\n      tag_106\n      jumpi\n        /* \"#utility.yul\":804:883   */\n      tag_107\n      tag_82\n      jump\t// in\n    tag_107:\n        /* \"#utility.yul\":766:885   */\n    tag_106:\n        /* \"#utility.yul\":924:925   */\n      0x00\n        /* \"#utility.yul\":949:1002   */\n      tag_108\n        /* \"#utility.yul\":994:1001   */\n      dup5\n        /* \"#utility.yul\":985:991   */\n      dup3\n        /* \"#utility.yul\":974:983   */\n      dup6\n        /* \"#utility.yul\":970:992   */\n      add\n        /* \"#utility.yul\":949:1002   */\n      tag_86\n      jump\t// in\n    tag_108:\n        /* \"#utility.yul\":939:1002   */\n      swap2\n      pop\n        /* \"#utility.yul\":895:1012   */\n      pop\n        /* \"#utility.yul\":690:1019   */\n      swap3\n      swap2\n      pop\n      pop\n      jump\t// out\n        /* \"#utility.yul\":1025:1143   */\n    tag_87:\n        /* \"#utility.yul\":1112:1136   */\n      tag_110\n        /* \"#utility.yul\":1130:1135   */\n      dup2\n        /* \"#utility.yul\":1112:1136   */\n      tag_84\n      jump\t// in\n    tag_110:\n        /* \"#utility.yul\":1107:1110   */\n      dup3\n        /* \"#utility.yul\":1100:1137   */\n      mstore\n        /* \"#utility.yul\":1025:1143   */\n      pop\n      pop\n      jump\t// out\n        /* \"#utility.yul\":1149:1371   */\n    tag_19:\n        /* \"#utility.yul\":1242:1246   */\n      0x00\n        /* \"#utility.yul\":1280:1282   */\n      0x20\n        /* \"#utility.yul\":1269:1278   */\n      dup3\n        /* \"#utility.yul\":1265:1283   */\n      add\n        /* \"#utility.yul\":1257:1283   */\n      swap1\n      pop\n        /* \"#utility.yul\":1293:1364   */\n      tag_112\n        /* \"#utility.yul\":1361:1362   */\n      0x00\n        /* \"#utility.yul\":1350:1359   */\n      dup4\n        /* \"#utility.yul\":1346:1363   */\n      add\n        /* \"#utility.yul\":1337:1343   */\n      dup5\n        /* \"#utility.yul\":1293:1364   */\n      tag_87\n      jump\t// in\n    tag_112:\n        /* \"#utility.yul\":1149:1371   */\n      swap3\n      swap2\n      pop\n      pop\n      jump\t// out\n        /* \"#utility.yul\":1377:1481   */\n    tag_88:\n        /* \"#utility.yul\":1442:1448   */\n      0x00\n        /* \"#utility.yul\":1470:1474   */\n      0x03\n        /* \"#utility.yul\":1460:1474   */\n      swap1\n      pop\n        /* \"#utility.yul\":1377:1481   */\n      swap2\n      swap1\n      pop\n      jump\t// out\n        /* \"#utility.yul\":1487:1630   */\n    tag_89:\n        /* \"#utility.yul\":1584:1595   */\n      0x00\n        /* \"#utility.yul\":1621:1624   */\n      dup2\n        /* \"#utility.yul\":1606:1624   */\n      swap1\n      pop\n        /* \"#utility.yul\":1487:1630   */\n      swap3\n      swap2\n      pop\n      pop\n      jump\t// out\n        /* \"#utility.yul\":1636:1734   */\n    tag_90:\n        /* \"#utility.yul\":1701:1705   */\n      0x00\n        /* \"#utility.yul\":1724:1727   */\n      dup2\n        /* \"#utility.yul\":1716:1727   */\n      swap1\n      pop\n        /* \"#utility.yul\":1636:1734   */\n      swap2\n      swap1\n      pop\n      jump\t// out\n        /* \"#utility.yul\":1740:1848   */\n    tag_91:\n        /* \"#utility.yul\":1817:1841   */\n      tag_117\n        /* \"#utility.yul\":1835:1840   */\n      dup2\n        /* \"#utility.yul\":1817:1841   */\n      tag_84\n      jump\t// in\n    tag_117:\n        /* \"#utility.yul\":1812:1815   */\n      dup3\n        /* \"#utility.yul\":1805:1842   */\n      mstore\n        /* \"#utility.yul\":1740:1848   */\n      pop\n      pop\n      jump\t// out\n        /* \"#utility.yul\":1854:2033   */\n    tag_92:\n        /* \"#utility.yul\":1923:1933   */\n      0x00\n        /* \"#utility.yul\":1944:1990   */\n      tag_119\n        /* \"#utility.yul\":1986:1989   */\n      dup4\n        /* \"#utility.yul\":1978:1984   */\n      dup4\n        /* \"#utility.yul\":1944:1990   */\n      tag_91\n      jump\t// in\n    tag_119:\n        /* \"#utility.yul\":2022:2026   */\n      0x20\n        /* \"#utility.yul\":2017:2020   */\n      dup4\n        /* \"#utility.yul\":2013:2027   */\n      add\n        /* \"#utility.yul\":1999:2027   */\n      swap1\n      pop\n        /* \"#utility.yul\":1854:2033   */\n      swap3\n      swap2\n      pop\n      pop\n      jump\t// out\n        /* \"#utility.yul\":2039:2150   */\n    tag_93:\n        /* \"#utility.yul\":2107:2111   */\n      0x00\n        /* \"#utility.yul\":2139:2143   */\n      0x20\n        /* \"#utility.yul\":2134:2137   */\n      dup3\n        /* \"#utility.yul\":2130:2144   */\n      add\n        /* \"#utility.yul\":2122:2144   */\n      swap1\n      pop\n        /* \"#utility.yul\":2039:2150   */\n      swap2\n      swap1\n      pop\n      jump\t// out\n        /* \"#utility.yul\":2188:2882   */\n    tag_94:\n        /* \"#utility.yul\":2324:2376   */\n      tag_122\n        /* \"#utility.yul\":2370:2375   */\n      dup2\n        /* \"#utility.yul\":2324:2376   */\n      tag_88\n      jump\t// in\n    tag_122:\n        /* \"#utility.yul\":2392:2476   */\n      tag_123\n        /* \"#utility.yul\":2469:2475   */\n      dup2\n        /* \"#utility.yul\":2464:2467   */\n      dup5\n        /* \"#utility.yul\":2392:2476   */\n      tag_89\n      jump\t// in\n    tag_123:\n        /* \"#utility.yul\":2385:2476   */\n      swap3\n      pop\n        /* \"#utility.yul\":2500:2554   */\n      tag_124\n        /* \"#utility.yul\":2548:2553   */\n      dup3\n        /* \"#utility.yul\":2500:2554   */\n      tag_90\n      jump\t// in\n    tag_124:\n        /* \"#utility.yul\":2577:2584   */\n      dup1\n        /* \"#utility.yul\":2608:2609   */\n      0x00\n        /* \"#utility.yul\":2593:2875   */\n    tag_125:\n        /* \"#utility.yul\":2618:2624   */\n      dup4\n        /* \"#utility.yul\":2615:2616   */\n      dup2\n        /* \"#utility.yul\":2612:2625   */\n      lt\n        /* \"#utility.yul\":2593:2875   */\n      iszero\n      tag_127\n      jumpi\n        /* \"#utility.yul\":2694:2700   */\n      dup2\n        /* \"#utility.yul\":2688:2701   */\n      mload\n        /* \"#utility.yul\":2721:2784   */\n      tag_128\n        /* \"#utility.yul\":2780:2783   */\n      dup8\n        /* \"#utility.yul\":2765:2778   */\n      dup3\n        /* \"#utility.yul\":2721:2784   */\n      tag_92\n      jump\t// in\n    tag_128:\n        /* \"#utility.yul\":2714:2784   */\n      swap7\n      pop\n        /* \"#utility.yul\":2807:2865   */\n      tag_129\n        /* \"#utility.yul\":2858:2864   */\n      dup4\n        /* \"#utility.yul\":2807:2865   */\n      tag_93\n      jump\t// in\n    tag_129:\n        /* \"#utility.yul\":2797:2865   */\n      swap3\n      pop\n        /* \"#utility.yul\":2653:2875   */\n      pop\n        /* \"#utility.yul\":2640:2641   */\n      0x01\n        /* \"#utility.yul\":2637:2638   */\n      dup2\n        /* \"#utility.yul\":2633:2642   */\n      add\n        /* \"#utility.yul\":2628:2642   */\n      swap1\n      pop\n        /* \"#utility.yul\":2593:2875   */\n      jump(tag_125)\n    tag_127:\n        /* \"#utility.yul\":2597:2611   */\n      pop\n        /* \"#utility.yul\":2300:2882   */\n      pop\n      pop\n      pop\n        /* \"#utility.yul\":2188:2882   */\n      pop\n      pop\n      jump\t// out\n        /* \"#utility.yul\":2888:3202   */\n    tag_50:\n        /* \"#utility.yul\":3027:3031   */\n      0x00\n        /* \"#utility.yul\":3065:3067   */\n      0x60\n        /* \"#utility.yul\":3054:3063   */\n      dup3\n        /* \"#utility.yul\":3050:3068   */\n      add\n        /* \"#utility.yul\":3042:3068   */\n      swap1\n      pop\n        /* \"#utility.yul\":3078:3195   */\n      tag_131\n        /* \"#utility.yul\":3192:3193   */\n      0x00\n        /* \"#utility.yul\":3181:3190   */\n      dup4\n        /* \"#utility.yul\":3177:3194   */\n      add\n        /* \"#utility.yul\":3168:3174   */\n      dup5\n        /* \"#utility.yul\":3078:3195   */\n      tag_94\n      jump\t// in\n    tag_131:\n        /* \"#utility.yul\":2888:3202   */\n      swap3\n      swap2\n      pop\n      pop\n      jump\t// out\n        /* \"#utility.yul\":3208:3388   */\n    tag_56:\n        /* \"#utility.yul\":3256:3333   */\n      0x4e487b7100000000000000000000000000000000000000000000000000000000\n        /* \"#utility.yul\":3253:3254   */\n      0x00\n        /* \"#utility.yul\":3246:3334   */\n      mstore\n        /* \"#utility.yul\":3353:3357   */\n      0x32\n        /* \"#utility.yul\":3350:3351   */\n      0x04\n        /* \"#utility.yul\":3343:3358   */\n      mstore\n        /* \"#utility.yul\":3377:3381   */\n      0x24\n        /* \"#utility.yul\":3374:3375   */\n      0x00\n        /* \"#utility.yul\":3367:3382   */\n      revert\n        /* \"#utility.yul\":3394:3574   */\n    tag_71:\n        /* \"#utility.yul\":3442:3519   */\n      0x4e487b7100000000000000000000000000000000000000000000000000000000\n        /* \"#utility.yul\":3439:3440   */\n      0x00\n        /* \"#utility.yul\":3432:3520   */\n      mstore\n        /* \"#utility.yul\":3539:3543   */\n      0x31\n        /* \"#utility.yul\":3536:3537   */\n      0x04\n        /* \"#utility.yul\":3529:3544   */\n      mstore\n        /* \"#utility.yul\":3563:3567   */\n      0x24\n        /* \"#utility.yul\":3560:3561   */\n      0x00\n        /* \"#utility.yul\":3553:3568   */\n      revert\n\n    auxdata: 0xa2646970667358221220d87148f61af6fc8a85961b7fc1cd82fa8c780ed82596bcc30416a739f7f4a3bc64736f6c63430008120033\n}\n",
				"bytecode": {
					"linkReferences": {},
					"object": "60806040526040518060600160405280600160ff168152602001600260ff168152602001600360ff16815250600190600361003b929190610086565b506040518060600160405280600060ff168152602001600160ff168152602001600260ff16815250600c9060036100739291906100d8565b5034801561008057600080fd5b5061013a565b8280548282559060005260206000209081019282156100c7579160200282015b828111156100c6578251829060ff169055916020019190600101906100a6565b5b5090506100d4919061011d565b5090565b826003810192821561010c579160200282015b8281111561010b578251829060ff169055916020019190600101906100eb565b5b509050610119919061011d565b5090565b5b8082111561013657600081600090555060010161011e565b5090565b610596806101496000396000f3fe608060405234801561001057600080fd5b506004361061009e5760003560e01c8063959ac48411610066578063959ac4841461017f578063a4ece52c1461019b578063be1c766b146101a5578063edf0099b146101c3578063fb8cbced146101f35761009e565b806338a067ce146100a35780634cc82215146100d357806371e5ee5f146100ef5780638732ded81461011f5780639507d39a1461014f575b600080fd5b6100bd60048036038101906100b891906103e5565b610211565b6040516100ca9190610421565b60405180910390f35b6100ed60048036038101906100e891906103e5565b61022c565b005b610109600480360381019061010491906103e5565b610251565b6040516101169190610421565b60405180910390f35b610139600480360381019061013491906103e5565b610275565b6040516101469190610421565b60405180910390f35b610169600480360381019061016491906103e5565b610290565b6040516101769190610421565b60405180910390f35b610199600480360381019061019491906103e5565b6102b7565b005b6101a36102e3565b005b6101ad61030d565b6040516101ba9190610421565b60405180910390f35b6101dd60048036038101906101d891906103e5565b610319565b6040516101ea9190610421565b60405180910390f35b6101fb61033d565b60405161020891906104e7565b60405180910390f35b600281600a811061022157600080fd5b016000915090505481565b600081815481106102405761023f610502565b5b906000526020600020016000905550565b6000818154811061026157600080fd5b906000526020600020016000915090505481565b600c816003811061028557600080fd5b016000915090505481565b60008082815481106102a5576102a4610502565b5b90600052602060002001549050919050565b600081908060018154018082558091505060019003906000526020600020016000909190919091505550565b60008054806102f5576102f4610531565b5b60019003818190600052602060002001600090559055565b60008080549050905090565b6001818154811061032957600080fd5b906000526020600020016000915090505481565b610345610388565b600c60038060200260405190810160405280929190826003801561037e576020028201915b81548152602001906001019080831161036a575b5050505050905090565b6040518060600160405280600390602082028036833780820191505090505090565b600080fd5b6000819050919050565b6103c2816103af565b81146103cd57600080fd5b50565b6000813590506103df816103b9565b92915050565b6000602082840312156103fb576103fa6103aa565b5b6000610409848285016103d0565b91505092915050565b61041b816103af565b82525050565b60006020820190506104366000830184610412565b92915050565b600060039050919050565b600081905092915050565b6000819050919050565b610465816103af565b82525050565b6000610477838361045c565b60208301905092915050565b6000602082019050919050565b6104998161043c565b6104a38184610447565b92506104ae82610452565b8060005b838110156104df5781516104c6878261046b565b96506104d183610483565b9250506001810190506104b2565b505050505050565b60006060820190506104fc6000830184610490565b92915050565b7f4e487b7100000000000000000000000000000000000000000000000000000000600052603260045260246000fd5b7f4e487b7100000000000000000000000000000000000000000000000000000000600052603160045260246000fdfea2646970667358221220d87148f61af6fc8a85961b7fc1cd82fa8c780ed82596bcc30416a739f7f4a3bc64736f6c63430008120033",
					"opcodes": "PUSH1 0x80 PUSH1 0x40 MSTORE PUSH1 0x40 MLOAD DUP1 PUSH1 0x60 ADD PUSH1 0x40 MSTORE DUP1 PUSH1 0x1 PUSH1 0xFF AND DUP2 MSTORE PUSH1 0x20 ADD PUSH1 0x2 PUSH1 0xFF AND DUP2 MSTORE PUSH1 0x20 ADD PUSH1 0x3 PUSH1 0xFF AND DUP2 MSTORE POP PUSH1 0x1 SWAP1 PUSH1 0x3 PUSH2 0x3B SWAP3 SWAP2 SWAP1 PUSH2 0x86 JUMP JUMPDEST POP PUSH1 0x40 MLOAD DUP1 PUSH1 0x60 ADD PUSH1 0x40 MSTORE DUP1 PUSH1 0x0 PUSH1 0xFF AND DUP2 MSTORE PUSH1 0x20 ADD PUSH1 0x1 PUSH1 0xFF AND DUP2 MSTORE PUSH1 0x20 ADD PUSH1 0x2 PUSH1 0xFF AND DUP2 MSTORE POP PUSH1 0xC SWAP1 PUSH1 0x3 PUSH2 0x73 SWAP3 SWAP2 SWAP1 PUSH2 0xD8 JUMP JUMPDEST POP CALLVALUE DUP1 ISZERO PUSH2 0x80 JUMPI PUSH1 0x0 DUP1 REVERT JUMPDEST POP PUSH2 0x13A JUMP JUMPDEST DUP3 DUP1 SLOAD DUP3 DUP3 SSTORE SWAP1 PUSH1 0x0 MSTORE PUSH1 0x20 PUSH1 0x0 KECCAK256 SWAP1 DUP2 ADD SWAP3 DUP3 ISZERO PUSH2 0xC7 JUMPI SWAP2 PUSH1 0x20 MUL DUP3 ADD JUMPDEST DUP3 DUP2 GT ISZERO PUSH2 0xC6 JUMPI DUP3 MLOAD DUP3 SWAP1 PUSH1 0xFF AND SWAP1 SSTORE SWAP2 PUSH1 0x20 ADD SWAP2 SWAP1 PUSH1 0x1 ADD SWAP1 PUSH2 0xA6 JUMP JUMPDEST JUMPDEST POP SWAP1 POP PUSH2 0xD4 SWAP2 SWAP1 PUSH2 0x11D JUMP JUMPDEST POP SWAP1 JUMP JUMPDEST DUP3 PUSH1 0x3 DUP2 ADD SWAP3 DUP3 ISZERO PUSH2 0x10C JUMPI SWAP2 PUSH1 0x20 MUL DUP3 ADD JUMPDEST DUP3 DUP2 GT ISZERO PUSH2 0x10B JUMPI DUP3 MLOAD DUP3 SWAP1 PUSH1 0xFF AND SWAP1 SSTORE SWAP2 PUSH1 0x20 ADD SWAP2 SWAP1 PUSH1 0x1 ADD SWAP1 PUSH2 0xEB JUMP JUMPDEST JUMPDEST POP SWAP1 POP PUSH2 0x119 SWAP2 SWAP1 PUSH2 0x11D JUMP JUMPDEST POP SWAP1 JUMP JUMPDEST JUMPDEST DUP1 DUP3 GT ISZERO PUSH2 0x136 JUMPI PUSH1 0x0 DUP2 PUSH1 0x0 SWAP1 SSTORE POP PUSH1 0x1 ADD PUSH2 0x11E JUMP JUMPDEST POP SWAP1 JUMP JUMPDEST PUSH2 0x596 DUP1 PUSH2 0x149 PUSH1 0x0 CODECOPY PUSH1 0x0 RETURN INVALID PUSH1 0x80 PUSH1 0x40 MSTORE CALLVALUE DUP1 ISZERO PUSH2 0x10 JUMPI PUSH1 0x0 DUP1 REVERT JUMPDEST POP PUSH1 0x4 CALLDATASIZE LT PUSH2 0x9E JUMPI PUSH1 0x0 CALLDATALOAD PUSH1 0xE0 SHR DUP1 PUSH4 0x959AC484 GT PUSH2 0x66 JUMPI DUP1 PUSH4 0x959AC484 EQ PUSH2 0x17F JUMPI DUP1 PUSH4 0xA4ECE52C EQ PUSH2 0x19B JUMPI DUP1 PUSH4 0xBE1C766B EQ PUSH2 0x1A5 JUMPI DUP1 PUSH4 0xEDF0099B EQ PUSH2 0x1C3 JUMPI DUP1 PUSH4 0xFB8CBCED EQ PUSH2 0x1F3 JUMPI PUSH2 0x9E JUMP JUMPDEST DUP1 PUSH4 0x38A067CE EQ PUSH2 0xA3 JUMPI DUP1 PUSH4 0x4CC82215 EQ PUSH2 0xD3 JUMPI DUP1 PUSH4 0x71E5EE5F EQ PUSH2 0xEF JUMPI DUP1 PUSH4 0x8732DED8 EQ PUSH2 0x11F JUMPI DUP1 PUSH4 0x9507D39A EQ PUSH2 0x14F JUMPI JUMPDEST PUSH1 0x0 DUP1 REVERT JUMPDEST PUSH2 0xBD PUSH1 0x4 DUP1 CALLDATASIZE SUB DUP2 ADD SWAP1 PUSH2 0xB8 SWAP2 SWAP1 PUSH2 0x3E5 JUMP JUMPDEST PUSH2 0x211 JUMP JUMPDEST PUSH1 0x40 MLOAD PUSH2 0xCA SWAP2 SWAP1 PUSH2 0x421 JUMP JUMPDEST PUSH1 0x40 MLOAD DUP1 SWAP2 SUB SWAP1 RETURN JUMPDEST PUSH2 0xED PUSH1 0x4 DUP1 CALLDATASIZE SUB DUP2 ADD SWAP1 PUSH2 0xE8 SWAP2 SWAP1 PUSH2 0x3E5 JUMP JUMPDEST PUSH2 0x22C JUMP JUMPDEST STOP JUMPDEST PUSH2 0x109 PUSH1 0x4 DUP1 CALLDATASIZE SUB DUP2 ADD SWAP1 PUSH2 0x104 SWAP2 SWAP1 PUSH2 0x3E5 JUMP JUMPDEST PUSH2 0x251 JUMP JUMPDEST PUSH1 0x40 MLOAD PUSH2 0x116 SWAP2 SWAP1 PUSH2 0x421 JUMP JUMPDEST PUSH1 0x40 MLOAD DUP1 SWAP2 SUB SWAP1 RETURN JUMPDEST PUSH2 0x139 PUSH1 0x4 DUP1 CALLDATASIZE SUB DUP2 ADD SWAP1 PUSH2 0x134 SWAP2 SWAP1 PUSH2 0x3E5 JUMP JUMPDEST PUSH2 0x275 JUMP JUMPDEST PUSH1 0x40 MLOAD PUSH2 0x146 SWAP2 SWAP1 PUSH2 0x421 JUMP JUMPDEST PUSH1 0x40 MLOAD DUP1 SWAP2 SUB SWAP1 RETURN JUMPDEST PUSH2 0x169 PUSH1 0x4 DUP1 CALLDATASIZE SUB DUP2 ADD SWAP1 PUSH2 0x164 SWAP2 SWAP1 PUSH2 0x3E5 JUMP JUMPDEST PUSH2 0x290 JUMP JUMPDEST PUSH1 0x40 MLOAD PUSH2 0x176 SWAP2 SWAP1 PUSH2 0x421 JUMP JUMPDEST PUSH1 0x40 MLOAD DUP1 SWAP2 SUB SWAP1 RETURN JUMPDEST PUSH2 0x199 PUSH1 0x4 DUP1 CALLDATASIZE SUB DUP2 ADD SWAP1 PUSH2 0x194 SWAP2 SWAP1 PUSH2 0x3E5 JUMP JUMPDEST PUSH2 0x2B7 JUMP JUMPDEST STOP JUMPDEST PUSH2 0x1A3 PUSH2 0x2E3 JUMP JUMPDEST STOP JUMPDEST PUSH2 0x1AD PUSH2 0x30D JUMP JUMPDEST PUSH1 0x40 MLOAD PUSH2 0x1BA SWAP2 SWAP1 PUSH2 0x421 JUMP JUMPDEST PUSH1 0x40 MLOAD DUP1 SWAP2 SUB SWAP1 RETURN JUMPDEST PUSH2 0x1DD PUSH1 0x4 DUP1 CALLDATASIZE SUB DUP2 ADD SWAP1 PUSH2 0x1D8 SWAP2 SWAP1 PUSH2 0x3E5 JUMP JUMPDEST PUSH2 0x319 JUMP JUMPDEST PUSH1 0x40 MLOAD PUSH2 0x1EA SWAP2 SWAP1 PUSH2 0x421 JUMP JUMPDEST PUSH1 0x40 MLOAD DUP1 SWAP2 SUB SWAP1 RETURN JUMPDEST PUSH2 0x1FB PUSH2 0x33D JUMP JUMPDEST PUSH1 0x40 MLOAD PUSH2 0x208 SWAP2 SWAP1 PUSH2 0x4E7 JUMP JUMPDEST PUSH1 0x40 MLOAD DUP1 SWAP2 SUB SWAP1 RETURN JUMPDEST PUSH1 0x2 DUP2 PUSH1 0xA DUP2 LT PUSH2 0x221 JUMPI PUSH1 0x0 DUP1 REVERT JUMPDEST ADD PUSH1 0x0 SWAP2 POP SWAP1 POP SLOAD DUP2 JUMP JUMPDEST PUSH1 0x0 DUP2 DUP2 SLOAD DUP2 LT PUSH2 0x240 JUMPI PUSH2 0x23F PUSH2 0x502 JUMP JUMPDEST JUMPDEST SWAP1 PUSH1 0x0 MSTORE PUSH1 0x20 PUSH1 0x0 KECCAK256 ADD PUSH1 0x0 SWAP1 SSTORE POP JUMP JUMPDEST PUSH1 0x0 DUP2 DUP2 SLOAD DUP2 LT PUSH2 0x261 JUMPI PUSH1 0x0 DUP1 REVERT JUMPDEST SWAP1 PUSH1 0x0 MSTORE PUSH1 0x20 PUSH1 0x0 KECCAK256 ADD PUSH1 0x0 SWAP2 POP SWAP1 POP SLOAD DUP2 JUMP JUMPDEST PUSH1 0xC DUP2 PUSH1 0x3 DUP2 LT PUSH2 0x285 JUMPI PUSH1 0x0 DUP1 REVERT JUMPDEST ADD PUSH1 0x0 SWAP2 POP SWAP1 POP SLOAD DUP2 JUMP JUMPDEST PUSH1 0x0 DUP1 DUP3 DUP2 SLOAD DUP2 LT PUSH2 0x2A5 JUMPI PUSH2 0x2A4 PUSH2 0x502 JUMP JUMPDEST JUMPDEST SWAP1 PUSH1 0x0 MSTORE PUSH1 0x20 PUSH1 0x0 KECCAK256 ADD SLOAD SWAP1 POP SWAP2 SWAP1 POP JUMP JUMPDEST PUSH1 0x0 DUP2 SWAP1 DUP1 PUSH1 0x1 DUP2 SLOAD ADD DUP1 DUP3 SSTORE DUP1 SWAP2 POP POP PUSH1 0x1 SWAP1 SUB SWAP1 PUSH1 0x0 MSTORE PUSH1 0x20 PUSH1 0x0 KECCAK256 ADD PUSH1 0x0 SWAP1 SWAP2 SWAP1 SWAP2 SWAP1 SWAP2 POP SSTORE POP JUMP JUMPDEST PUSH1 0x0 DUP1 SLOAD DUP1 PUSH2 0x2F5 JUMPI PUSH2 0x2F4 PUSH2 0x531 JUMP JUMPDEST JUMPDEST PUSH1 0x1 SWAP1 SUB DUP2 DUP2 SWAP1 PUSH1 0x0 MSTORE PUSH1 0x20 PUSH1 0x0 KECCAK256 ADD PUSH1 0x0 SWAP1 SSTORE SWAP1 SSTORE JUMP JUMPDEST PUSH1 0x0 DUP1 DUP1 SLOAD SWAP1 POP SWAP1 POP SWAP1 JUMP JUMPDEST PUSH1 0x1 DUP2 DUP2 SLOAD DUP2 LT PUSH2 0x329 JUMPI PUSH1 0x0 DUP1 REVERT JUMPDEST SWAP1 PUSH1 0x0 MSTORE PUSH1 0x20 PUSH1 0x0 KECCAK256 ADD PUSH1 0x0 SWAP2 POP SWAP1 POP SLOAD DUP2 JUMP JUMPDEST PUSH2 0x345 PUSH2 0x388 JUMP JUMPDEST PUSH1 0xC PUSH1 0x3 DUP1 PUSH1 0x20 MUL PUSH1 0x40 MLOAD SWAP1 DUP2 ADD PUSH1 0x40 MSTORE DUP1 SWAP3 SWAP2 SWAP1 DUP3 PUSH1 0x3 DUP1 ISZERO PUSH2 0x37E JUMPI PUSH1 0x20 MUL DUP3 ADD SWAP2 JUMPDEST DUP2 SLOAD DUP2 MSTORE PUSH1 0x20 ADD SWAP1 PUSH1 0x1 ADD SWAP1 DUP1 DUP4 GT PUSH2 0x36A JUMPI JUMPDEST POP POP POP POP POP SWAP1 POP SWAP1 JUMP JUMPDEST PUSH1 0x40 MLOAD DUP1 PUSH1 0x60 ADD PUSH1 0x40 MSTORE DUP1 PUSH1 0x3 SWAP1 PUSH1 0x20 DUP3 MUL DUP1 CALLDATASIZE DUP4 CALLDATACOPY DUP1 DUP3 ADD SWAP2 POP POP SWAP1 POP POP SWAP1 JUMP JUMPDEST PUSH1 0x0 DUP1 REVERT JUMPDEST PUSH1 0x0 DUP2 SWAP1 POP SWAP2 SWAP1 POP JUMP JUMPDEST PUSH2 0x3C2 DUP2 PUSH2 0x3AF JUMP JUMPDEST DUP2 EQ PUSH2 0x3CD JUMPI PUSH1 0x0 DUP1 REVERT JUMPDEST POP JUMP JUMPDEST PUSH1 0x0 DUP2 CALLDATALOAD SWAP1 POP PUSH2 0x3DF DUP2 PUSH2 0x3B9 JUMP JUMPDEST SWAP3 SWAP2 POP POP JUMP JUMPDEST PUSH1 0x0 PUSH1 0x20 DUP3 DUP5 SUB SLT ISZERO PUSH2 0x3FB JUMPI PUSH2 0x3FA PUSH2 0x3AA JUMP JUMPDEST JUMPDEST PUSH1 0x0 PUSH2 0x409 DUP5 DUP3 DUP6 ADD PUSH2 0x3D0 JUMP JUMPDEST SWAP2 POP POP SWAP3 SWAP2 POP POP JUMP JUMPDEST PUSH2 0x41B DUP2 PUSH2 0x3AF JUMP JUMPDEST DUP3 MSTORE POP POP JUMP JUMPDEST PUSH1 0x0 PUSH1 0x20 DUP3 ADD SWAP1 POP PUSH2 0x436 PUSH1 0x0 DUP4 ADD DUP5 PUSH2 0x412 JUMP JUMPDEST SWAP3 SWAP2 POP POP JUMP JUMPDEST PUSH1 0x0 PUSH1 0x3 SWAP1 POP SWAP2 SWAP1 POP JUMP JUMPDEST PUSH1 0x0 DUP2 SWAP1 POP SWAP3 SWAP2 POP POP JUMP JUMPDEST PUSH1 0x0 DUP2 SWAP1 POP SWAP2 SWAP1 POP JUMP JUMPDEST PUSH2 0x465 DUP2 PUSH2 0x3AF JUMP JUMPDEST DUP3 MSTORE POP POP JUMP JUMPDEST PUSH1 0x0 PUSH2 0x477 DUP4 DUP4 PUSH2 0x45C JUMP JUMPDEST PUSH1 0x20 DUP4 ADD SWAP1 POP SWAP3 SWAP2 POP POP JUMP JUMPDEST PUSH1 0x0 PUSH1 0x20 DUP3 ADD SWAP1 POP SWAP2 SWAP1 POP JUMP JUMPDEST PUSH2 0x499 DUP2 PUSH2 0x43C JUMP JUMPDEST PUSH2 0x4A3 DUP2 DUP5 PUSH2 0x447 JUMP JUMPDEST SWAP3 POP PUSH2 0x4AE DUP3 PUSH2 0x452 JUMP JUMPDEST DUP1 PUSH1 0x0 JUMPDEST DUP4 DUP2 LT ISZERO PUSH2 0x4DF JUMPI DUP2 MLOAD PUSH2 0x4C6 DUP8 DUP3 PUSH2 0x46B JUMP JUMPDEST SWAP7 POP PUSH2 0x4D1 DUP4 PUSH2 0x483 JUMP JUMPDEST SWAP3 POP POP PUSH1 0x1 DUP2 ADD SWAP1 POP PUSH2 0x4B2 JUMP JUMPDEST POP POP POP POP POP POP JUMP JUMPDEST PUSH1 0x0 PUSH1 0x60 DUP3 ADD SWAP1 POP PUSH2 0x4FC PUSH1 0x0 DUP4 ADD DUP5 PUSH2 0x490 JUMP JUMPDEST SWAP3 SWAP2 POP POP JUMP JUMPDEST PUSH32 0x4E487B7100000000000000000000000000000000000000000000000000000000 PUSH1 0x0 MSTORE PUSH1 0x32 PUSH1 0x4 MSTORE PUSH1 0x24 PUSH1 0x0 REVERT JUMPDEST PUSH32 0x4E487B7100000000000000000000000000000000000000000000000000000000 PUSH1 0x0 MSTORE PUSH1 0x31 PUSH1 0x4 MSTORE PUSH1 0x24 PUSH1 0x0 REVERT INVALID LOG2 PUSH5 0x6970667358 0x22 SLT KECCAK256 0xD8 PUSH18 0x48F61AF6FC8A85961B7FC1CD82FA8C780ED8 0x25 SWAP7 0xBC 0xC3 DIV AND 0xA7 CODECOPY 0xF7 DELEGATECALL LOG3 0xBC PUSH5 0x736F6C6343 STOP ADDMOD SLT STOP CALLER "
				},
				"gasEstimates": {
					"creation": {
						"codeDepositCost": "286000",
						"executionCost": "infinite",
						"totalCost": "infinite"
					},
					"external": {
						"arr(uint256)": "infinite",
						"arr2(uint256)": "infinite",
						"arr3(uint256)": "infinite",
						"get(uint256)": "infinite",
						"getArr()": "infinite",
						"getLength()": "2489",
						"myFixedSizeArr(uint256)": "infinite",
						"pop()": "29467",
						"push(uint256)": "46829",
						"remove(uint256)": "7618"
					}
				},
				"methodIdentifiers": {
					"arr(uint256)": "71e5ee5f",
					"arr2(uint256)": "edf0099b",
					"arr3(uint256)": "8732ded8",
					"get(uint256)": "9507d39a",
					"getArr()": "fb8cbced",
					"getLength()": "be1c766b",
					"myFixedSizeArr(uint256)": "38a067ce",
					"pop()": "a4ece52c",
					"push(uint256)": "959ac484",
					"remove(uint256)": "4cc82215"
				}
			},
			"storageLayout": {
				"storage": [
					{
						"astId": 4,
						"contract": ".learneth/Solidity Beginner Course/8.1 Data Structures - Arrays/arrays.sol:Array",
						"label": "arr",
						"offset": 0,
						"slot": "0",
						"type": "t_array(t_uint256)dyn_storage"
					},
					{
						"astId": 11,
						"contract": ".learneth/Solidity Beginner Course/8.1 Data Structures - Arrays/arrays.sol:Array",
						"label": "arr2",
						"offset": 0,
						"slot": "1",
						"type": "t_array(t_uint256)dyn_storage"
					},
					{
						"astId": 15,
						"contract": ".learneth/Solidity Beginner Course/8.1 Data Structures - Arrays/arrays.sol:Array",
						"label": "myFixedSizeArr",
						"offset": 0,
						"slot": "2",
						"type": "t_array(t_uint256)10_storage"
					},
					{
						"astId": 23,
						"contract": ".learneth/Solidity Beginner Course/8.1 Data Structures - Arrays/arrays.sol:Array",
						"label": "arr3",
						"offset": 0,
						"slot": "12",
						"type": "t_array(t_uint256)3_storage"
					}
				],
				"types": {
					"t_array(t_uint256)10_storage": {
						"base": "t_uint256",
						"encoding": "inplace",
						"label": "uint256[10]",
						"numberOfBytes": "320"
					},
					"t_array(t_uint256)3_storage": {
						"base": "t_uint256",
						"encoding": "inplace",
						"label": "uint256[3]",
						"numberOfBytes": "96"
					},
					"t_array(t_uint256)dyn_storage": {
						"base": "t_uint256",
						"encoding": "dynamic_array",
						"label": "uint256[]",
						"numberOfBytes": "32"
					},
					"t_uint256": {
						"encoding": "inplace",
						"label": "uint256",
						"numberOfBytes": "32"
					}
				}
			},
			"userdoc": {
				"kind": "user",
				"methods": {},
				"version": 1
			}
		}
	}
}