{
	".learneth/Solidity Beginner Course/10.2 Transactions - Gas and Gas Price/gasAndGasPrice.sol": {
		"Gas": {
			"abi": [
				{
					"inputs": [],
					"name": "cost",
					"outputs": [
						{
							"internalType": "uint256",
							"name": "",
							"type": "uint256"
						}
					],
					"stateMutability": "view",
					"type": "function"
				},
				{
					"inputs": [],
					"name": "forever",
					"outputs": [],
					"stateMutability": "nonpayable",
					"type": "function"
				},
				{
					"inputs": [],
					"name": "i",
					"outputs": [
						{
							"internalType": "uint256",
							"name": "",
							"type": "uint256"
						}
					],
					"stateMutability": "view",
					"type": "function"
				}
			],
			"devdoc": {
				"kind": "dev",
				"methods": {},
				"version": 1
			},
			"evm": {
				"assembly": "    /* \".learneth/Solidity Beginner Course/10.2 Transactions - Gas and Gas Price/gasAndGasPrice.sol\":57:463  contract Gas {... */\n  mstore(0x40, 0x80)\n    /* \".learneth/Solidity Beginner Course/10.2 Transactions - Gas and Gas Price/gasAndGasPrice.sol\":92:93  0 */\n  0x00\n    /* \".learneth/Solidity Beginner Course/10.2 Transactions - Gas and Gas Price/gasAndGasPrice.sol\":76:93  uint public i = 0 */\n  dup1\n  sstore\n    /* \".learneth/Solidity Beginner Course/10.2 Transactions - Gas and Gas Price/gasAndGasPrice.sol\":118:124  161906 */\n  0x027872\n    /* \".learneth/Solidity Beginner Course/10.2 Transactions - Gas and Gas Price/gasAndGasPrice.sol\":99:124  uint public cost = 161906 */\n  0x01\n  sstore\n    /* \".learneth/Solidity Beginner Course/10.2 Transactions - Gas and Gas Price/gasAndGasPrice.sol\":57:463  contract Gas {... */\n  callvalue\n  dup1\n  iszero\n  tag_1\n  jumpi\n  0x00\n  dup1\n  revert\ntag_1:\n  pop\n  dataSize(sub_0)\n  dup1\n  dataOffset(sub_0)\n  0x00\n  codecopy\n  0x00\n  return\nstop\n\nsub_0: assembly {\n        /* \".learneth/Solidity Beginner Course/10.2 Transactions - Gas and Gas Price/gasAndGasPrice.sol\":57:463  contract Gas {... */\n      mstore(0x40, 0x80)\n      callvalue\n      dup1\n      iszero\n      tag_1\n      jumpi\n      0x00\n      dup1\n      revert\n    tag_1:\n      pop\n      jumpi(tag_2, lt(calldatasize, 0x04))\n      shr(0xe0, calldataload(0x00))\n      dup1\n      0x13faede6\n      eq\n      tag_3\n      jumpi\n      dup1\n      0x9ff9a603\n      eq\n      tag_4\n      jumpi\n      dup1\n      0xe5aa3d58\n      eq\n      tag_5\n      jumpi\n    tag_2:\n      0x00\n      dup1\n      revert\n        /* \".learneth/Solidity Beginner Course/10.2 Transactions - Gas and Gas Price/gasAndGasPrice.sol\":99:124  uint public cost = 161906 */\n    tag_3:\n      tag_6\n      tag_7\n      jump\t// in\n    tag_6:\n      mload(0x40)\n      tag_8\n      swap2\n      swap1\n      tag_9\n      jump\t// in\n    tag_8:\n      mload(0x40)\n      dup1\n      swap2\n      sub\n      swap1\n      return\n        /* \".learneth/Solidity Beginner Course/10.2 Transactions - Gas and Gas Price/gasAndGasPrice.sol\":277:461  function forever() public {... */\n    tag_4:\n      tag_10\n      tag_11\n      jump\t// in\n    tag_10:\n      stop\n        /* \".learneth/Solidity Beginner Course/10.2 Transactions - Gas and Gas Price/gasAndGasPrice.sol\":76:93  uint public i = 0 */\n    tag_5:\n      tag_12\n      tag_13\n      jump\t// in\n    tag_12:\n      mload(0x40)\n      tag_14\n      swap2\n      swap1\n      tag_9\n      jump\t// in\n    tag_14:\n      mload(0x40)\n      dup1\n      swap2\n      sub\n      swap1\n      return\n        /* \".learneth/Solidity Beginner Course/10.2 Transactions - Gas and Gas Price/gasAndGasPrice.sol\":99:124  uint public cost = 161906 */\n    tag_7:\n      sload(0x01)\n      dup2\n      jump\t// out\n        /* \".learneth/Solidity Beginner Course/10.2 Transactions - Gas and Gas Price/gasAndGasPrice.sol\":277:461  function forever() public {... */\n    tag_11:\n        /* \".learneth/Solidity Beginner Course/10.2 Transactions - Gas and Gas Price/gasAndGasPrice.sol\":411:455  while (true) {... */\n    tag_16:\n        /* \".learneth/Solidity Beginner Course/10.2 Transactions - Gas and Gas Price/gasAndGasPrice.sol\":418:422  true */\n      0x01\n        /* \".learneth/Solidity Beginner Course/10.2 Transactions - Gas and Gas Price/gasAndGasPrice.sol\":411:455  while (true) {... */\n      iszero\n      tag_17\n      jumpi\n        /* \".learneth/Solidity Beginner Course/10.2 Transactions - Gas and Gas Price/gasAndGasPrice.sol\":443:444  1 */\n      0x01\n        /* \".learneth/Solidity Beginner Course/10.2 Transactions - Gas and Gas Price/gasAndGasPrice.sol\":438:439  i */\n      0x00\n      dup1\n        /* \".learneth/Solidity Beginner Course/10.2 Transactions - Gas and Gas Price/gasAndGasPrice.sol\":438:444  i += 1 */\n      dup3\n      dup3\n      sload\n      tag_18\n      swap2\n      swap1\n      tag_19\n      jump\t// in\n    tag_18:\n      swap3\n      pop\n      pop\n      dup2\n      swap1\n      sstore\n      pop\n        /* \".learneth/Solidity Beginner Course/10.2 Transactions - Gas and Gas Price/gasAndGasPrice.sol\":411:455  while (true) {... */\n      jump(tag_16)\n    tag_17:\n        /* \".learneth/Solidity Beginner Course/10.2 Transactions - Gas and Gas Price/gasAndGasPrice.sol\":277:461  function forever() public {... */\n      jump\t// out\n        /* \".learneth/Solidity Beginner Course/10.2 Transactions - Gas and Gas Price/gasAndGasPrice.sol\":76:93  uint public i = 0 */\n    tag_13:\n      sload(0x00)\n      dup2\n      jump\t// out\n        /* \"#utility.yul\":7:84   */\n    tag_20:\n        /* \"#utility.yul\":44:51   */\n      0x00\n        /* \"#utility.yul\":73:78   */\n      dup2\n        /* \"#utility.yul\":62:78   */\n      swap1\n      pop\n        /* \"#utility.yul\":7:84   */\n      swap2\n      swap1\n      pop\n      jump\t// out\n        /* \"#utility.yul\":90:208   */\n    tag_21:\n        /* \"#utility.yul\":177:201   */\n      tag_26\n        /* \"#utility.yul\":195:200   */\n      dup2\n        /* \"#utility.yul\":177:201   */\n      tag_20\n      jump\t// in\n    tag_26:\n        /* \"#utility.yul\":172:175   */\n      dup3\n        /* \"#utility.yul\":165:202   */\n      mstore\n        /* \"#utility.yul\":90:208   */\n      pop\n      pop\n      jump\t// out\n        /* \"#utility.yul\":214:436   */\n    tag_9:\n        /* \"#utility.yul\":307:311   */\n      0x00\n        /* \"#utility.yul\":345:347   */\n      0x20\n        /* \"#utility.yul\":334:343   */\n      dup3\n        /* \"#utility.yul\":330:348   */\n      add\n        /* \"#utility.yul\":322:348   */\n      swap1\n      pop\n        /* \"#utility.yul\":358:429   */\n      tag_28\n        /* \"#utility.yul\":426:427   */\n      0x00\n        /* \"#utility.yul\":415:424   */\n      dup4\n        /* \"#utility.yul\":411:428   */\n      add\n        /* \"#utility.yul\":402:408   */\n      dup5\n        /* \"#utility.yul\":358:429   */\n      tag_21\n      jump\t// in\n    tag_28:\n        /* \"#utility.yul\":214:436   */\n      swap3\n      swap2\n      pop\n      pop\n      jump\t// out\n        /* \"#utility.yul\":442:622   */\n    tag_22:\n        /* \"#utility.yul\":490:567   */\n      0x4e487b7100000000000000000000000000000000000000000000000000000000\n        /* \"#utility.yul\":487:488   */\n      0x00\n        /* \"#utility.yul\":480:568   */\n      mstore\n        /* \"#utility.yul\":587:591   */\n      0x11\n        /* \"#utility.yul\":584:585   */\n      0x04\n        /* \"#utility.yul\":577:592   */\n      mstore\n        /* \"#utility.yul\":611:615   */\n      0x24\n        /* \"#utility.yul\":608:609   */\n      0x00\n        /* \"#utility.yul\":601:616   */\n      revert\n        /* \"#utility.yul\":628:819   */\n    tag_19:\n        /* \"#utility.yul\":668:671   */\n      0x00\n        /* \"#utility.yul\":687:707   */\n      tag_31\n        /* \"#utility.yul\":705:706   */\n      dup3\n        /* \"#utility.yul\":687:707   */\n      tag_20\n      jump\t// in\n    tag_31:\n        /* \"#utility.yul\":682:707   */\n      swap2\n      pop\n        /* \"#utility.yul\":721:741   */\n      tag_32\n        /* \"#utility.yul\":739:740   */\n      dup4\n        /* \"#utility.yul\":721:741   */\n      tag_20\n      jump\t// in\n    tag_32:\n        /* \"#utility.yul\":716:741   */\n      swap3\n      pop\n        /* \"#utility.yul\":764:765   */\n      dup3\n        /* \"#utility.yul\":761:762   */\n      dup3\n        /* \"#utility.yul\":757:766   */\n      add\n        /* \"#utility.yul\":750:766   */\n      swap1\n      pop\n        /* \"#utility.yul\":785:788   */\n      dup1\n        /* \"#utility.yul\":782:783   */\n      dup3\n        /* \"#utility.yul\":779:789   */\n      gt\n        /* \"#utility.yul\":776:812   */\n      iszero\n      tag_33\n      jumpi\n        /* \"#utility.yul\":792:810   */\n      tag_34\n      tag_22\n      jump\t// in\n    tag_34:\n        /* \"#utility.yul\":776:812   */\n    tag_33:\n        /* \"#utility.yul\":628:819   */\n      swap3\n      swap2\n      pop\n      pop\n      jump\t// out\n\n    auxdata: 0xa2646970667358221220dc537fc78a8a2fb58e4c09f7c90de8cff49a55e5ab97e9e832c0294ac511aa7d64736f6c63430008120033\n}\n",
				"bytecode": {
					"linkReferences": {},
					"object": "6080604052600080556202787260015534801561001b57600080fd5b5061018d8061002b6000396000f3fe608060405234801561001057600080fd5b50600436106100415760003560e01c806313faede6146100465780639ff9a60314610064578063e5aa3d581461006e575b600080fd5b61004e61008c565b60405161005b91906100d9565b60405180910390f35b61006c610092565b005b6100766100ba565b60405161008391906100d9565b60405180910390f35b60015481565b5b6001156100b85760016000808282546100ac9190610123565b92505081905550610093565b565b60005481565b6000819050919050565b6100d3816100c0565b82525050565b60006020820190506100ee60008301846100ca565b92915050565b7f4e487b7100000000000000000000000000000000000000000000000000000000600052601160045260246000fd5b600061012e826100c0565b9150610139836100c0565b9250828201905080821115610151576101506100f4565b5b9291505056fea2646970667358221220dc537fc78a8a2fb58e4c09f7c90de8cff49a55e5ab97e9e832c0294ac511aa7d64736f6c63430008120033",
					"opcodes": "PUSH1 0x80 PUSH1 0x40 MSTORE PUSH1 0x0 DUP1 SSTORE PUSH3 0x27872 PUSH1 0x1 SSTORE CALLVALUE DUP1 ISZERO PUSH2 0x1B JUMPI PUSH1 0x0 DUP1 REVERT JUMPDEST POP PUSH2 0x18D DUP1 PUSH2 0x2B PUSH1 0x0 CODECOPY PUSH1 0x0 RETURN INVALID PUSH1 0x80 PUSH1 0x40 MSTORE CALLVALUE DUP1 ISZERO PUSH2 0x10 JUMPI PUSH1 0x0 DUP1 REVERT JUMPDEST POP PUSH1 0x4 CALLDATASIZE LT PUSH2 0x41 JUMPI PUSH1 0x0 CALLDATALOAD PUSH1 0xE0 SHR DUP1 PUSH4 0x13FAEDE6 EQ PUSH2 0x46 JUMPI DUP1 PUSH4 0x9FF9A603 EQ PUSH2 0x64 JUMPI DUP1 PUSH4 0xE5AA3D58 EQ PUSH2 0x6E JUMPI JUMPDEST PUSH1 0x0 DUP1 REVERT JUMPDEST PUSH2 0x4E PUSH2 0x8C JUMP JUMPDEST PUSH1 0x40 MLOAD PUSH2 0x5B SWAP2 SWAP1 PUSH2 0xD9 JUMP JUMPDEST PUSH1 0x40 MLOAD DUP1 SWAP2 SUB SWAP1 RETURN JUMPDEST PUSH2 0x6C PUSH2 0x92 JUMP JUMPDEST STOP JUMPDEST PUSH2 0x76 PUSH2 0xBA JUMP JUMPDEST PUSH1 0x40 MLOAD PUSH2 0x83 SWAP2 SWAP1 PUSH2 0xD9 JUMP JUMPDEST PUSH1 0x40 MLOAD DUP1 SWAP2 SUB SWAP1 RETURN JUMPDEST PUSH1 0x1 SLOAD DUP2 JUMP JUMPDEST JUMPDEST PUSH1 0x1 ISZERO PUSH2 0xB8 JUMPI PUSH1 0x1 PUSH1 0x0 DUP1 DUP3 DUP3 SLOAD PUSH2 0xAC SWAP2 SWAP1 PUSH2 0x123 JUMP JUMPDEST SWAP3 POP POP DUP2 SWAP1 SSTORE POP PUSH2 0x93 JUMP JUMPDEST JUMP JUMPDEST PUSH1 0x0 SLOAD DUP2 JUMP JUMPDEST PUSH1 0x0 DUP2 SWAP1 POP SWAP2 SWAP1 POP JUMP JUMPDEST PUSH2 0xD3 DUP2 PUSH2 0xC0 JUMP JUMPDEST DUP3 MSTORE POP POP JUMP JUMPDEST PUSH1 0x0 PUSH1 0x20 DUP3 ADD SWAP1 POP PUSH2 0xEE PUSH1 0x0 DUP4 ADD DUP5 PUSH2 0xCA JUMP JUMPDEST SWAP3 SWAP2 POP POP JUMP JUMPDEST PUSH32 0x4E487B7100000000000000000000000000000000000000000000000000000000 PUSH1 0x0 MSTORE PUSH1 0x11 PUSH1 0x4 MSTORE PUSH1 0x24 PUSH1 0x0 REVERT JUMPDEST PUSH1 0x0 PUSH2 0x12E DUP3 PUSH2 0xC0 JUMP JUMPDEST SWAP2 POP PUSH2 0x139 DUP4 PUSH2 0xC0 JUMP JUMPDEST SWAP3 POP DUP3 DUP3 ADD SWAP1 POP DUP1 DUP3 GT ISZERO PUSH2 0x151 JUMPI PUSH2 0x150 PUSH2 0xF4 JUMP JUMPDEST JUMPDEST SWAP3 SWAP2 POP POP JUMP INVALID LOG2 PUSH5 0x6970667358 0x22 SLT KECCAK256 0xDC MSTORE8 PUSH32 0xC78A8A2FB58E4C09F7C90DE8CFF49A55E5AB97E9E832C0294AC511AA7D64736F PUSH13 0x63430008120033000000000000 "
				},
				"gasEstimates": {
					"creation": {
						"codeDepositCost": "79400",
						"executionCost": "27241",
						"totalCost": "106641"
					},
					"external": {
						"cost()": "2407",
						"forever()": "infinite",
						"i()": "2451"
					}
				},
				"methodIdentifiers": {
					"cost()": "13faede6",
					"forever()": "9ff9a603",
					"i()": "e5aa3d58"
				}
			},
			"storageLayout": {
				"storage": [
					{
						"astId": 4,
						"contract": ".learneth/Solidity Beginner Course/10.2 Transactions - Gas and Gas Price/gasAndGasPrice.sol:Gas",
						"label": "i",
						"offset": 0,
						"slot": "0",
						"type": "t_uint256"
					},
					{
						"astId": 7,
						"contract": ".learneth/Solidity Beginner Course/10.2 Transactions - Gas and Gas Price/gasAndGasPrice.sol:Gas",
						"label": "cost",
						"offset": 0,
						"slot": "1",
						"type": "t_uint256"
					}
				],
				"types": {
					"t_uint256": {
						"encoding": "inplace",
						"label": "uint256",
						"numberOfBytes": "32"
					}
				}
			},
			"userdoc": {
				"kind": "user",
				"methods": {},
				"version": 1
			}
		}
	}
}