{
	"data": {
		"bytecode": {
			"linkReferences": {},
			"object": "608060405234801561001057600080fd5b506102a8806100206000396000f3fe608060405234801561001057600080fd5b50600436106100415760003560e01c806319c5e07a146100465780632fbebd381461007657806355278c5b146100a6575b600080fd5b610060600480360381019061005b9190610185565b6100d6565b60405161006d91906101cd565b60405180910390f35b610090600480360381019061008b9190610185565b6100fc565b60405161009d91906101f7565b60405180910390f35b6100c060048036038101906100bb9190610185565b61012c565b6040516100cd91906101f7565b60405180910390f35b6000806002836100e69190610241565b146100f25760006100f5565b60015b9050919050565b6000600a8210156101105760009050610127565b60148210156101225760019050610127565b600290505b919050565b6000600a821061013d576002610140565b60015b60ff169050919050565b600080fd5b6000819050919050565b6101628161014f565b811461016d57600080fd5b50565b60008135905061017f81610159565b92915050565b60006020828403121561019b5761019a61014a565b5b60006101a984828501610170565b91505092915050565b60008115159050919050565b6101c7816101b2565b82525050565b60006020820190506101e260008301846101be565b92915050565b6101f18161014f565b82525050565b600060208201905061020c60008301846101e8565b92915050565b7f4e487b7100000000000000000000000000000000000000000000000000000000600052601260045260246000fd5b600061024c8261014f565b91506102578361014f565b92508261026757610266610212565b5b82820490509291505056fea26469706673582212207035a6c3e14762054d61c956a6f691eefb4689c8e33cd1496b4323ea6dc1a7e964736f6c63430008120033",
			"opcodes": "PUSH1 0x80 PUSH1 0x40 MSTORE CALLVALUE DUP1 ISZERO PUSH2 0x10 JUMPI PUSH1 0x0 DUP1 REVERT JUMPDEST POP PUSH2 0x2A8 DUP1 PUSH2 0x20 PUSH1 0x0 CODECOPY PUSH1 0x0 RETURN INVALID PUSH1 0x80 PUSH1 0x40 MSTORE CALLVALUE DUP1 ISZERO PUSH2 0x10 JUMPI PUSH1 0x0 DUP1 REVERT JUMPDEST POP PUSH1 0x4 CALLDATASIZE LT PUSH2 0x41 JUMPI PUSH1 0x0 CALLDATALOAD PUSH1 0xE0 SHR DUP1 PUSH4 0x19C5E07A EQ PUSH2 0x46 JUMPI DUP1 PUSH4 0x2FBEBD38 EQ PUSH2 0x76 JUMPI DUP1 PUSH4 0x55278C5B EQ PUSH2 0xA6 JUMPI JUMPDEST PUSH1 0x0 DUP1 REVERT JUMPDEST PUSH2 0x60 PUSH1 0x4 DUP1 CALLDATASIZE SUB DUP2 ADD SWAP1 PUSH2 0x5B SWAP2 SWAP1 PUSH2 0x185 JUMP JUMPDEST PUSH2 0xD6 JUMP JUMPDEST PUSH1 0x40 MLOAD PUSH2 0x6D SWAP2 SWAP1 PUSH2 0x1CD JUMP JUMPDEST PUSH1 0x40 MLOAD DUP1 SWAP2 SUB SWAP1 RETURN JUMPDEST PUSH2 0x90 PUSH1 0x4 DUP1 CALLDATASIZE SUB DUP2 ADD SWAP1 PUSH2 0x8B SWAP2 SWAP1 PUSH2 0x185 JUMP JUMPDEST PUSH2 0xFC JUMP JUMPDEST PUSH1 0x40 MLOAD PUSH2 0x9D SWAP2 SWAP1 PUSH2 0x1F7 JUMP JUMPDEST PUSH1 0x40 MLOAD DUP1 SWAP2 SUB SWAP1 RETURN JUMPDEST PUSH2 0xC0 PUSH1 0x4 DUP1 CALLDATASIZE SUB DUP2 ADD SWAP1 PUSH2 0xBB SWAP2 SWAP1 PUSH2 0x185 JUMP JUMPDEST PUSH2 0x12C JUMP JUMPDEST PUSH1 0x40 MLOAD PUSH2 0xCD SWAP2 SWAP1 PUSH2 0x1F7 JUMP JUMPDEST PUSH1 0x40 MLOAD DUP1 SWAP2 SUB SWAP1 RETURN JUMPDEST PUSH1 0x0 DUP1 PUSH1 0x2 DUP4 PUSH2 0xE6 SWAP2 SWAP1 PUSH2 0x241 JUMP JUMPDEST EQ PUSH2 0xF2 JUMPI PUSH1 0x0 PUSH2 0xF5 JUMP JUMPDEST PUSH1 0x1 JUMPDEST SWAP1 POP SWAP2 SWAP1 POP JUMP JUMPDEST PUSH1 0x0 PUSH1 0xA DUP3 LT ISZERO PUSH2 0x110 JUMPI PUSH1 0x0 SWAP1 POP PUSH2 0x127 JUMP JUMPDEST PUSH1 0x14 DUP3 LT ISZERO PUSH2 0x122 JUMPI PUSH1 0x1 SWAP1 POP PUSH2 0x127 JUMP JUMPDEST PUSH1 0x2 SWAP1 POP JUMPDEST SWAP2 SWAP1 POP JUMP JUMPDEST PUSH1 0x0 PUSH1 0xA DUP3 LT PUSH2 0x13D JUMPI PUSH1 0x2 PUSH2 0x140 JUMP JUMPDEST PUSH1 0x1 JUMPDEST PUSH1 0xFF AND SWAP1 POP SWAP2 SWAP1 POP JUMP JUMPDEST PUSH1 0x0 DUP1 REVERT JUMPDEST PUSH1 0x0 DUP2 SWAP1 POP SWAP2 SWAP1 POP JUMP JUMPDEST PUSH2 0x162 DUP2 PUSH2 0x14F JUMP JUMPDEST DUP2 EQ PUSH2 0x16D JUMPI PUSH1 0x0 DUP1 REVERT JUMPDEST POP JUMP JUMPDEST PUSH1 0x0 DUP2 CALLDATALOAD SWAP1 POP PUSH2 0x17F DUP2 PUSH2 0x159 JUMP JUMPDEST SWAP3 SWAP2 POP POP JUMP JUMPDEST PUSH1 0x0 PUSH1 0x20 DUP3 DUP5 SUB SLT ISZERO PUSH2 0x19B JUMPI PUSH2 0x19A PUSH2 0x14A JUMP JUMPDEST JUMPDEST PUSH1 0x0 PUSH2 0x1A9 DUP5 DUP3 DUP6 ADD PUSH2 0x170 JUMP JUMPDEST SWAP2 POP POP SWAP3 SWAP2 POP POP JUMP JUMPDEST PUSH1 0x0 DUP2 ISZERO ISZERO SWAP1 POP SWAP2 SWAP1 POP JUMP JUMPDEST PUSH2 0x1C7 DUP2 PUSH2 0x1B2 JUMP JUMPDEST DUP3 MSTORE POP POP JUMP JUMPDEST PUSH1 0x0 PUSH1 0x20 DUP3 ADD SWAP1 POP PUSH2 0x1E2 PUSH1 0x0 DUP4 ADD DUP5 PUSH2 0x1BE JUMP JUMPDEST SWAP3 SWAP2 POP POP JUMP JUMPDEST PUSH2 0x1F1 DUP2 PUSH2 0x14F JUMP JUMPDEST DUP3 MSTORE POP POP JUMP JUMPDEST PUSH1 0x0 PUSH1 0x20 DUP3 ADD SWAP1 POP PUSH2 0x20C PUSH1 0x0 DUP4 ADD DUP5 PUSH2 0x1E8 JUMP JUMPDEST SWAP3 SWAP2 POP POP JUMP JUMPDEST PUSH32 0x4E487B7100000000000000000000000000000000000000000000000000000000 PUSH1 0x0 MSTORE PUSH1 0x12 PUSH1 0x4 MSTORE PUSH1 0x24 PUSH1 0x0 REVERT JUMPDEST PUSH1 0x0 PUSH2 0x24C DUP3 PUSH2 0x14F JUMP JUMPDEST SWAP2 POP PUSH2 0x257 DUP4 PUSH2 0x14F JUMP JUMPDEST SWAP3 POP DUP3 PUSH2 0x267 JUMPI PUSH2 0x266 PUSH2 0x212 JUMP JUMPDEST JUMPDEST DUP3 DUP3 DIV SWAP1 POP SWAP3 SWAP2 POP POP JUMP INVALID LOG2 PUSH5 0x6970667358 0x22 SLT KECCAK256 PUSH17 0x35A6C3E14762054D61C956A6F691EEFB46 DUP10 0xC8 0xE3 EXTCODECOPY 0xD1 0x49 PUSH12 0x4323EA6DC1A7E964736F6C63 NUMBER STOP ADDMOD SLT STOP CALLER "
		},
		"gasEstimates": {
			"creation": {
				"codeDepositCost": "136000",
				"executionCost": "183",
				"totalCost": "136183"
			},
			"external": {
				"evenCheck(uint256)": "infinite",
				"foo(uint256)": "infinite",
				"ternary(uint256)": "infinite"
			}
		},
		"methodIdentifiers": {
			"evenCheck(uint256)": "19c5e07a",
			"foo(uint256)": "2fbebd38",
			"ternary(uint256)": "55278c5b"
		}
	},
	"abi": [
		{
			"inputs": [
				{
					"internalType": "uint256",
					"name": "_x",
					"type": "uint256"
				}
			],
			"name": "evenCheck",
			"outputs": [
				{
					"internalType": "bool",
					"name": "",
					"type": "bool"
				}
			],
			"stateMutability": "pure",
			"type": "function"
		},
		{
			"inputs": [
				{
					"internalType": "uint256",
					"name": "x",
					"type": "uint256"
				}
			],
			"name": "foo",
			"outputs": [
				{
					"internalType": "uint256",
					"name": "",
					"type": "uint256"
				}
			],
			"stateMutability": "pure",
			"type": "function"
		},
		{
			"inputs": [
				{
					"internalType": "uint256",
					"name": "_x",
					"type": "uint256"
				}
			],
			"name": "ternary",
			"outputs": [
				{
					"internalType": "uint256",
					"name": "",
					"type": "uint256"
				}
			],
			"stateMutability": "pure",
			"type": "function"
		}
	]
}