{
	".learneth/Solidity Beginner Course/5.4 Functions - Inputs and Outputs/inputsAndOutputs.sol": {
		"Function": {
			"abi": [
				{
					"inputs": [
						{
							"internalType": "uint256",
							"name": "",
							"type": "uint256"
						}
					],
					"name": "arr",
					"outputs": [
						{
							"internalType": "uint256",
							"name": "",
							"type": "uint256"
						}
					],
					"stateMutability": "view",
					"type": "function"
				},
				{
					"inputs": [
						{
							"internalType": "uint256[]",
							"name": "_arr",
							"type": "uint256[]"
						}
					],
					"name": "arrayInput",
					"outputs": [],
					"stateMutability": "nonpayable",
					"type": "function"
				},
				{
					"inputs": [],
					"name": "arrayOutput",
					"outputs": [
						{
							"internalType": "uint256[]",
							"name": "",
							"type": "uint256[]"
						}
					],
					"stateMutability": "view",
					"type": "function"
				},
				{
					"inputs": [],
					"name": "assigned",
					"outputs": [
						{
							"internalType": "uint256",
							"name": "x",
							"type": "uint256"
						},
						{
							"internalType": "bool",
							"name": "b",
							"type": "bool"
						},
						{
							"internalType": "uint256",
							"name": "y",
							"type": "uint256"
						}
					],
					"stateMutability": "pure",
					"type": "function"
				},
				{
					"inputs": [],
					"name": "destructingAssigments",
					"outputs": [
						{
							"internalType": "uint256",
							"name": "",
							"type": "uint256"
						},
						{
							"internalType": "bool",
							"name": "",
							"type": "bool"
						},
						{
							"internalType": "uint256",
							"name": "",
							"type": "uint256"
						},
						{
							"internalType": "uint256",
							"name": "",
							"type": "uint256"
						},
						{
							"internalType": "uint256",
							"name": "",
							"type": "uint256"
						}
					],
					"stateMutability": "pure",
					"type": "function"
				},
				{
					"inputs": [],
					"name": "named",
					"outputs": [
						{
							"internalType": "uint256",
							"name": "x",
							"type": "uint256"
						},
						{
							"internalType": "bool",
							"name": "b",
							"type": "bool"
						},
						{
							"internalType": "uint256",
							"name": "y",
							"type": "uint256"
						}
					],
					"stateMutability": "pure",
					"type": "function"
				},
				{
					"inputs": [],
					"name": "returnMany",
					"outputs": [
						{
							"internalType": "uint256",
							"name": "",
							"type": "uint256"
						},
						{
							"internalType": "bool",
							"name": "",
							"type": "bool"
						},
						{
							"internalType": "uint256",
							"name": "",
							"type": "uint256"
						}
					],
					"stateMutability": "pure",
					"type": "function"
				},
				{
					"inputs": [],
					"name": "returnTwo",
					"outputs": [
						{
							"internalType": "int8",
							"name": "x",
							"type": "int8"
						},
						{
							"internalType": "bool",
							"name": "b",
							"type": "bool"
						}
					],
					"stateMutability": "pure",
					"type": "function"
				}
			],
			"devdoc": {
				"kind": "dev",
				"methods": {},
				"version": 1
			},
			"evm": {
				"assembly": "    /* \".learneth/Solidity Beginner Course/5.4 Functions - Inputs and Outputs/inputsAndOutputs.sol\":57:1665  contract Function {... */\n  mstore(0x40, 0x80)\n  callvalue\n  dup1\n  iszero\n  tag_1\n  jumpi\n  0x00\n  dup1\n  revert\ntag_1:\n  pop\n  dataSize(sub_0)\n  dup1\n  dataOffset(sub_0)\n  0x00\n  codecopy\n  0x00\n  return\nstop\n\nsub_0: assembly {\n        /* \".learneth/Solidity Beginner Course/5.4 Functions - Inputs and Outputs/inputsAndOutputs.sol\":57:1665  contract Function {... */\n      mstore(0x40, 0x80)\n      callvalue\n      dup1\n      iszero\n      tag_1\n      jumpi\n      0x00\n      dup1\n      revert\n    tag_1:\n      pop\n      jumpi(tag_2, lt(calldatasize, 0x04))\n      shr(0xe0, calldataload(0x00))\n      dup1\n      0x86887544\n      gt\n      tag_11\n      jumpi\n      dup1\n      0x86887544\n      eq\n      tag_7\n      jumpi\n      dup1\n      0x946e182c\n      eq\n      tag_8\n      jumpi\n      dup1\n      0xadb4d990\n      eq\n      tag_9\n      jumpi\n      dup1\n      0xf4bb6e6b\n      eq\n      tag_10\n      jumpi\n      jump(tag_2)\n    tag_11:\n      dup1\n      0x1990532b\n      eq\n      tag_3\n      jumpi\n      dup1\n      0x45f907a8\n      eq\n      tag_4\n      jumpi\n      dup1\n      0x53a6aadb\n      eq\n      tag_5\n      jumpi\n      dup1\n      0x71e5ee5f\n      eq\n      tag_6\n      jumpi\n    tag_2:\n      0x00\n      dup1\n      revert\n        /* \".learneth/Solidity Beginner Course/5.4 Functions - Inputs and Outputs/inputsAndOutputs.sol\":1473:1559  function arrayOutput() public view returns (uint[] memory) {... */\n    tag_3:\n      tag_12\n      tag_13\n      jump\t// in\n    tag_12:\n      mload(0x40)\n      tag_14\n      swap2\n      swap1\n      tag_15\n      jump\t// in\n    tag_14:\n      mload(0x40)\n      dup1\n      swap2\n      sub\n      swap1\n      return\n        /* \".learneth/Solidity Beginner Course/5.4 Functions - Inputs and Outputs/inputsAndOutputs.sol\":338:510  function named()... */\n    tag_4:\n      tag_16\n      tag_17\n      jump\t// in\n    tag_16:\n      mload(0x40)\n      tag_18\n      swap4\n      swap3\n      swap2\n      swap1\n      tag_19\n      jump\t// in\n    tag_18:\n      mload(0x40)\n      dup1\n      swap2\n      sub\n      swap1\n      return\n        /* \".learneth/Solidity Beginner Course/5.4 Functions - Inputs and Outputs/inputsAndOutputs.sol\":926:1273  function destructingAssigments()... */\n    tag_5:\n      tag_20\n      tag_21\n      jump\t// in\n    tag_20:\n      mload(0x40)\n      tag_22\n      swap6\n      swap5\n      swap4\n      swap3\n      swap2\n      swap1\n      tag_23\n      jump\t// in\n    tag_22:\n      mload(0x40)\n      dup1\n      swap2\n      sub\n      swap1\n      return\n        /* \".learneth/Solidity Beginner Course/5.4 Functions - Inputs and Outputs/inputsAndOutputs.sol\":1449:1466  uint[] public arr */\n    tag_6:\n      tag_24\n      0x04\n      dup1\n      calldatasize\n      sub\n      dup2\n      add\n      swap1\n      tag_25\n      swap2\n      swap1\n      tag_26\n      jump\t// in\n    tag_25:\n      tag_27\n      jump\t// in\n    tag_24:\n      mload(0x40)\n      tag_28\n      swap2\n      swap1\n      tag_29\n      jump\t// in\n    tag_28:\n      mload(0x40)\n      dup1\n      swap2\n      sub\n      swap1\n      return\n        /* \".learneth/Solidity Beginner Course/5.4 Functions - Inputs and Outputs/inputsAndOutputs.sol\":126:297  function returnMany()... */\n    tag_7:\n      tag_30\n      tag_31\n      jump\t// in\n    tag_30:\n      mload(0x40)\n      tag_32\n      swap4\n      swap3\n      swap2\n      swap1\n      tag_19\n      jump\t// in\n    tag_32:\n      mload(0x40)\n      dup1\n      swap2\n      sub\n      swap1\n      return\n        /* \".learneth/Solidity Beginner Course/5.4 Functions - Inputs and Outputs/inputsAndOutputs.sol\":1565:1663  function returnTwo() public pure returns (int8 x, bool b){... */\n    tag_8:\n      tag_33\n      tag_34\n      jump\t// in\n    tag_33:\n      mload(0x40)\n      tag_35\n      swap3\n      swap2\n      swap1\n      tag_36\n      jump\t// in\n    tag_35:\n      mload(0x40)\n      dup1\n      swap2\n      sub\n      swap1\n      return\n        /* \".learneth/Solidity Beginner Course/5.4 Functions - Inputs and Outputs/inputsAndOutputs.sol\":625:819  function assigned()... */\n    tag_9:\n      tag_37\n      tag_38\n      jump\t// in\n    tag_37:\n      mload(0x40)\n      tag_39\n      swap4\n      swap3\n      swap2\n      swap1\n      tag_19\n      jump\t// in\n    tag_39:\n      mload(0x40)\n      dup1\n      swap2\n      sub\n      swap1\n      return\n        /* \".learneth/Solidity Beginner Course/5.4 Functions - Inputs and Outputs/inputsAndOutputs.sol\":1362:1411  function arrayInput(uint[] memory _arr) public {} */\n    tag_10:\n      tag_40\n      0x04\n      dup1\n      calldatasize\n      sub\n      dup2\n      add\n      swap1\n      tag_41\n      swap2\n      swap1\n      tag_42\n      jump\t// in\n    tag_41:\n      tag_43\n      jump\t// in\n    tag_40:\n      stop\n        /* \".learneth/Solidity Beginner Course/5.4 Functions - Inputs and Outputs/inputsAndOutputs.sol\":1473:1559  function arrayOutput() public view returns (uint[] memory) {... */\n    tag_13:\n        /* \".learneth/Solidity Beginner Course/5.4 Functions - Inputs and Outputs/inputsAndOutputs.sol\":1517:1530  uint[] memory */\n      0x60\n        /* \".learneth/Solidity Beginner Course/5.4 Functions - Inputs and Outputs/inputsAndOutputs.sol\":1549:1552  arr */\n      0x00\n        /* \".learneth/Solidity Beginner Course/5.4 Functions - Inputs and Outputs/inputsAndOutputs.sol\":1542:1552  return arr */\n      dup1\n      sload\n      dup1\n      0x20\n      mul\n      0x20\n      add\n      mload(0x40)\n      swap1\n      dup2\n      add\n      0x40\n      mstore\n      dup1\n      swap3\n      swap2\n      swap1\n      dup2\n      dup2\n      mstore\n      0x20\n      add\n      dup3\n      dup1\n      sload\n      dup1\n      iszero\n      tag_45\n      jumpi\n      0x20\n      mul\n      dup3\n      add\n      swap2\n      swap1\n      0x00\n      mstore\n      keccak256(0x00, 0x20)\n      swap1\n    tag_46:\n      dup2\n      sload\n      dup2\n      mstore\n      0x20\n      add\n      swap1\n      0x01\n      add\n      swap1\n      dup1\n      dup4\n      gt\n      tag_46\n      jumpi\n    tag_45:\n      pop\n      pop\n      pop\n      pop\n      pop\n      swap1\n      pop\n        /* \".learneth/Solidity Beginner Course/5.4 Functions - Inputs and Outputs/inputsAndOutputs.sol\":1473:1559  function arrayOutput() public view returns (uint[] memory) {... */\n      swap1\n      jump\t// out\n        /* \".learneth/Solidity Beginner Course/5.4 Functions - Inputs and Outputs/inputsAndOutputs.sol\":338:510  function named()... */\n    tag_17:\n        /* \".learneth/Solidity Beginner Course/5.4 Functions - Inputs and Outputs/inputsAndOutputs.sol\":413:419  uint x */\n      0x00\n        /* \".learneth/Solidity Beginner Course/5.4 Functions - Inputs and Outputs/inputsAndOutputs.sol\":433:439  bool b */\n      dup1\n        /* \".learneth/Solidity Beginner Course/5.4 Functions - Inputs and Outputs/inputsAndOutputs.sol\":453:459  uint y */\n      0x00\n        /* \".learneth/Solidity Beginner Course/5.4 Functions - Inputs and Outputs/inputsAndOutputs.sol\":492:493  1 */\n      0x01\n        /* \".learneth/Solidity Beginner Course/5.4 Functions - Inputs and Outputs/inputsAndOutputs.sol\":495:499  true */\n      dup1\n        /* \".learneth/Solidity Beginner Course/5.4 Functions - Inputs and Outputs/inputsAndOutputs.sol\":501:502  2 */\n      0x02\n        /* \".learneth/Solidity Beginner Course/5.4 Functions - Inputs and Outputs/inputsAndOutputs.sol\":484:503  return (1, true, 2) */\n      swap3\n      pop\n      swap3\n      pop\n      swap3\n      pop\n        /* \".learneth/Solidity Beginner Course/5.4 Functions - Inputs and Outputs/inputsAndOutputs.sol\":338:510  function named()... */\n      swap1\n      swap2\n      swap3\n      jump\t// out\n        /* \".learneth/Solidity Beginner Course/5.4 Functions - Inputs and Outputs/inputsAndOutputs.sol\":926:1273  function destructingAssigments()... */\n    tag_21:\n        /* \".learneth/Solidity Beginner Course/5.4 Functions - Inputs and Outputs/inputsAndOutputs.sol\":1017:1021  uint */\n      0x00\n        /* \".learneth/Solidity Beginner Course/5.4 Functions - Inputs and Outputs/inputsAndOutputs.sol\":1035:1039  bool */\n      dup1\n        /* \".learneth/Solidity Beginner Course/5.4 Functions - Inputs and Outputs/inputsAndOutputs.sol\":1053:1057  uint */\n      0x00\n        /* \".learneth/Solidity Beginner Course/5.4 Functions - Inputs and Outputs/inputsAndOutputs.sol\":1071:1075  uint */\n      dup1\n        /* \".learneth/Solidity Beginner Course/5.4 Functions - Inputs and Outputs/inputsAndOutputs.sol\":1089:1093  uint */\n      0x00\n        /* \".learneth/Solidity Beginner Course/5.4 Functions - Inputs and Outputs/inputsAndOutputs.sol\":1119:1125  uint i */\n      dup1\n        /* \".learneth/Solidity Beginner Course/5.4 Functions - Inputs and Outputs/inputsAndOutputs.sol\":1127:1133  bool b */\n      0x00\n        /* \".learneth/Solidity Beginner Course/5.4 Functions - Inputs and Outputs/inputsAndOutputs.sol\":1135:1141  uint j */\n      dup1\n        /* \".learneth/Solidity Beginner Course/5.4 Functions - Inputs and Outputs/inputsAndOutputs.sol\":1145:1157  returnMany() */\n      tag_49\n        /* \".learneth/Solidity Beginner Course/5.4 Functions - Inputs and Outputs/inputsAndOutputs.sol\":1145:1155  returnMany */\n      tag_31\n        /* \".learneth/Solidity Beginner Course/5.4 Functions - Inputs and Outputs/inputsAndOutputs.sol\":1145:1157  returnMany() */\n      jump\t// in\n    tag_49:\n        /* \".learneth/Solidity Beginner Course/5.4 Functions - Inputs and Outputs/inputsAndOutputs.sol\":1118:1157  (uint i, bool b, uint j) = returnMany() */\n      swap3\n      pop\n      swap3\n      pop\n      swap3\n      pop\n        /* \".learneth/Solidity Beginner Course/5.4 Functions - Inputs and Outputs/inputsAndOutputs.sol\":1204:1210  uint x */\n      0x00\n        /* \".learneth/Solidity Beginner Course/5.4 Functions - Inputs and Outputs/inputsAndOutputs.sol\":1214:1220  uint y */\n      dup1\n        /* \".learneth/Solidity Beginner Course/5.4 Functions - Inputs and Outputs/inputsAndOutputs.sol\":1225:1226  4 */\n      0x04\n        /* \".learneth/Solidity Beginner Course/5.4 Functions - Inputs and Outputs/inputsAndOutputs.sol\":1228:1229  5 */\n      0x05\n        /* \".learneth/Solidity Beginner Course/5.4 Functions - Inputs and Outputs/inputsAndOutputs.sol\":1231:1232  6 */\n      0x06\n        /* \".learneth/Solidity Beginner Course/5.4 Functions - Inputs and Outputs/inputsAndOutputs.sol\":1203:1233  (uint x, , uint y) = (4, 5, 6) */\n      swap3\n      pop\n      pop\n      swap2\n      pop\n        /* \".learneth/Solidity Beginner Course/5.4 Functions - Inputs and Outputs/inputsAndOutputs.sol\":1252:1253  i */\n      dup5\n        /* \".learneth/Solidity Beginner Course/5.4 Functions - Inputs and Outputs/inputsAndOutputs.sol\":1255:1256  b */\n      dup5\n        /* \".learneth/Solidity Beginner Course/5.4 Functions - Inputs and Outputs/inputsAndOutputs.sol\":1258:1259  j */\n      dup5\n        /* \".learneth/Solidity Beginner Course/5.4 Functions - Inputs and Outputs/inputsAndOutputs.sol\":1261:1262  x */\n      dup5\n        /* \".learneth/Solidity Beginner Course/5.4 Functions - Inputs and Outputs/inputsAndOutputs.sol\":1264:1265  y */\n      dup5\n        /* \".learneth/Solidity Beginner Course/5.4 Functions - Inputs and Outputs/inputsAndOutputs.sol\":1244:1266  return (i, b, j, x, y) */\n      swap10\n      pop\n      swap10\n      pop\n      swap10\n      pop\n      swap10\n      pop\n      swap10\n      pop\n      pop\n      pop\n      pop\n      pop\n      pop\n        /* \".learneth/Solidity Beginner Course/5.4 Functions - Inputs and Outputs/inputsAndOutputs.sol\":926:1273  function destructingAssigments()... */\n      swap1\n      swap2\n      swap3\n      swap4\n      swap5\n      jump\t// out\n        /* \".learneth/Solidity Beginner Course/5.4 Functions - Inputs and Outputs/inputsAndOutputs.sol\":1449:1466  uint[] public arr */\n    tag_27:\n      0x00\n      dup2\n      dup2\n      sload\n      dup2\n      lt\n      tag_50\n      jumpi\n      0x00\n      dup1\n      revert\n    tag_50:\n      swap1\n      0x00\n      mstore\n      keccak256(0x00, 0x20)\n      add\n      0x00\n      swap2\n      pop\n      swap1\n      pop\n      sload\n      dup2\n      jump\t// out\n        /* \".learneth/Solidity Beginner Course/5.4 Functions - Inputs and Outputs/inputsAndOutputs.sol\":126:297  function returnMany()... */\n    tag_31:\n        /* \".learneth/Solidity Beginner Course/5.4 Functions - Inputs and Outputs/inputsAndOutputs.sol\":206:210  uint */\n      0x00\n        /* \".learneth/Solidity Beginner Course/5.4 Functions - Inputs and Outputs/inputsAndOutputs.sol\":224:228  bool */\n      dup1\n        /* \".learneth/Solidity Beginner Course/5.4 Functions - Inputs and Outputs/inputsAndOutputs.sol\":242:246  uint */\n      0x00\n        /* \".learneth/Solidity Beginner Course/5.4 Functions - Inputs and Outputs/inputsAndOutputs.sol\":279:280  1 */\n      0x01\n        /* \".learneth/Solidity Beginner Course/5.4 Functions - Inputs and Outputs/inputsAndOutputs.sol\":282:286  true */\n      dup1\n        /* \".learneth/Solidity Beginner Course/5.4 Functions - Inputs and Outputs/inputsAndOutputs.sol\":288:289  2 */\n      0x02\n        /* \".learneth/Solidity Beginner Course/5.4 Functions - Inputs and Outputs/inputsAndOutputs.sol\":271:290  return (1, true, 2) */\n      swap3\n      pop\n      swap3\n      pop\n      swap3\n      pop\n        /* \".learneth/Solidity Beginner Course/5.4 Functions - Inputs and Outputs/inputsAndOutputs.sol\":126:297  function returnMany()... */\n      swap1\n      swap2\n      swap3\n      jump\t// out\n        /* \".learneth/Solidity Beginner Course/5.4 Functions - Inputs and Outputs/inputsAndOutputs.sol\":1565:1663  function returnTwo() public pure returns (int8 x, bool b){... */\n    tag_34:\n        /* \".learneth/Solidity Beginner Course/5.4 Functions - Inputs and Outputs/inputsAndOutputs.sol\":1607:1613  int8 x */\n      0x00\n        /* \".learneth/Solidity Beginner Course/5.4 Functions - Inputs and Outputs/inputsAndOutputs.sol\":1615:1621  bool b */\n      dup1\n        /* \".learneth/Solidity Beginner Course/5.4 Functions - Inputs and Outputs/inputsAndOutputs.sol\":1636:1638  -2 */\n      0xfffffffffffffffffffffffffffffffffffffffffffffffffffffffffffffffe\n        /* \".learneth/Solidity Beginner Course/5.4 Functions - Inputs and Outputs/inputsAndOutputs.sol\":1632:1638  x = -2 */\n      swap2\n      pop\n        /* \".learneth/Solidity Beginner Course/5.4 Functions - Inputs and Outputs/inputsAndOutputs.sol\":1652:1656  true */\n      0x01\n        /* \".learneth/Solidity Beginner Course/5.4 Functions - Inputs and Outputs/inputsAndOutputs.sol\":1648:1656  b = true */\n      swap1\n      pop\n        /* \".learneth/Solidity Beginner Course/5.4 Functions - Inputs and Outputs/inputsAndOutputs.sol\":1565:1663  function returnTwo() public pure returns (int8 x, bool b){... */\n      swap1\n      swap2\n      jump\t// out\n        /* \".learneth/Solidity Beginner Course/5.4 Functions - Inputs and Outputs/inputsAndOutputs.sol\":625:819  function assigned()... */\n    tag_38:\n        /* \".learneth/Solidity Beginner Course/5.4 Functions - Inputs and Outputs/inputsAndOutputs.sol\":703:709  uint x */\n      0x00\n        /* \".learneth/Solidity Beginner Course/5.4 Functions - Inputs and Outputs/inputsAndOutputs.sol\":723:729  bool b */\n      dup1\n        /* \".learneth/Solidity Beginner Course/5.4 Functions - Inputs and Outputs/inputsAndOutputs.sol\":743:749  uint y */\n      0x00\n        /* \".learneth/Solidity Beginner Course/5.4 Functions - Inputs and Outputs/inputsAndOutputs.sol\":778:779  1 */\n      0x01\n        /* \".learneth/Solidity Beginner Course/5.4 Functions - Inputs and Outputs/inputsAndOutputs.sol\":774:779  x = 1 */\n      swap3\n      pop\n        /* \".learneth/Solidity Beginner Course/5.4 Functions - Inputs and Outputs/inputsAndOutputs.sol\":793:797  true */\n      0x01\n        /* \".learneth/Solidity Beginner Course/5.4 Functions - Inputs and Outputs/inputsAndOutputs.sol\":789:797  b = true */\n      swap2\n      pop\n        /* \".learneth/Solidity Beginner Course/5.4 Functions - Inputs and Outputs/inputsAndOutputs.sol\":811:812  2 */\n      0x02\n        /* \".learneth/Solidity Beginner Course/5.4 Functions - Inputs and Outputs/inputsAndOutputs.sol\":807:812  y = 2 */\n      swap1\n      pop\n        /* \".learneth/Solidity Beginner Course/5.4 Functions - Inputs and Outputs/inputsAndOutputs.sol\":625:819  function assigned()... */\n      swap1\n      swap2\n      swap3\n      jump\t// out\n        /* \".learneth/Solidity Beginner Course/5.4 Functions - Inputs and Outputs/inputsAndOutputs.sol\":1362:1411  function arrayInput(uint[] memory _arr) public {} */\n    tag_43:\n      pop\n      jump\t// out\n        /* \"#utility.yul\":7:121   */\n    tag_56:\n        /* \"#utility.yul\":74:80   */\n      0x00\n        /* \"#utility.yul\":108:113   */\n      dup2\n        /* \"#utility.yul\":102:114   */\n      mload\n        /* \"#utility.yul\":92:114   */\n      swap1\n      pop\n        /* \"#utility.yul\":7:121   */\n      swap2\n      swap1\n      pop\n      jump\t// out\n        /* \"#utility.yul\":127:311   */\n    tag_57:\n        /* \"#utility.yul\":226:237   */\n      0x00\n        /* \"#utility.yul\":260:266   */\n      dup3\n        /* \"#utility.yul\":255:258   */\n      dup3\n        /* \"#utility.yul\":248:267   */\n      mstore\n        /* \"#utility.yul\":300:304   */\n      0x20\n        /* \"#utility.yul\":295:298   */\n      dup3\n        /* \"#utility.yul\":291:305   */\n      add\n        /* \"#utility.yul\":276:305   */\n      swap1\n      pop\n        /* \"#utility.yul\":127:311   */\n      swap3\n      swap2\n      pop\n      pop\n      jump\t// out\n        /* \"#utility.yul\":317:449   */\n    tag_58:\n        /* \"#utility.yul\":384:388   */\n      0x00\n        /* \"#utility.yul\":407:410   */\n      dup2\n        /* \"#utility.yul\":399:410   */\n      swap1\n      pop\n        /* \"#utility.yul\":437:441   */\n      0x20\n        /* \"#utility.yul\":432:435   */\n      dup3\n        /* \"#utility.yul\":428:442   */\n      add\n        /* \"#utility.yul\":420:442   */\n      swap1\n      pop\n        /* \"#utility.yul\":317:449   */\n      swap2\n      swap1\n      pop\n      jump\t// out\n        /* \"#utility.yul\":455:532   */\n    tag_59:\n        /* \"#utility.yul\":492:499   */\n      0x00\n        /* \"#utility.yul\":521:526   */\n      dup2\n        /* \"#utility.yul\":510:526   */\n      swap1\n      pop\n        /* \"#utility.yul\":455:532   */\n      swap2\n      swap1\n      pop\n      jump\t// out\n        /* \"#utility.yul\":538:646   */\n    tag_60:\n        /* \"#utility.yul\":615:639   */\n      tag_89\n        /* \"#utility.yul\":633:638   */\n      dup2\n        /* \"#utility.yul\":615:639   */\n      tag_59\n      jump\t// in\n    tag_89:\n        /* \"#utility.yul\":610:613   */\n      dup3\n        /* \"#utility.yul\":603:640   */\n      mstore\n        /* \"#utility.yul\":538:646   */\n      pop\n      pop\n      jump\t// out\n        /* \"#utility.yul\":652:831   */\n    tag_61:\n        /* \"#utility.yul\":721:731   */\n      0x00\n        /* \"#utility.yul\":742:788   */\n      tag_91\n        /* \"#utility.yul\":784:787   */\n      dup4\n        /* \"#utility.yul\":776:782   */\n      dup4\n        /* \"#utility.yul\":742:788   */\n      tag_60\n      jump\t// in\n    tag_91:\n        /* \"#utility.yul\":820:824   */\n      0x20\n        /* \"#utility.yul\":815:818   */\n      dup4\n        /* \"#utility.yul\":811:825   */\n      add\n        /* \"#utility.yul\":797:825   */\n      swap1\n      pop\n        /* \"#utility.yul\":652:831   */\n      swap3\n      swap2\n      pop\n      pop\n      jump\t// out\n        /* \"#utility.yul\":837:950   */\n    tag_62:\n        /* \"#utility.yul\":907:911   */\n      0x00\n        /* \"#utility.yul\":939:943   */\n      0x20\n        /* \"#utility.yul\":934:937   */\n      dup3\n        /* \"#utility.yul\":930:944   */\n      add\n        /* \"#utility.yul\":922:944   */\n      swap1\n      pop\n        /* \"#utility.yul\":837:950   */\n      swap2\n      swap1\n      pop\n      jump\t// out\n        /* \"#utility.yul\":986:1718   */\n    tag_63:\n        /* \"#utility.yul\":1105:1108   */\n      0x00\n        /* \"#utility.yul\":1134:1188   */\n      tag_94\n        /* \"#utility.yul\":1182:1187   */\n      dup3\n        /* \"#utility.yul\":1134:1188   */\n      tag_56\n      jump\t// in\n    tag_94:\n        /* \"#utility.yul\":1204:1290   */\n      tag_95\n        /* \"#utility.yul\":1283:1289   */\n      dup2\n        /* \"#utility.yul\":1278:1281   */\n      dup6\n        /* \"#utility.yul\":1204:1290   */\n      tag_57\n      jump\t// in\n    tag_95:\n        /* \"#utility.yul\":1197:1290   */\n      swap4\n      pop\n        /* \"#utility.yul\":1314:1370   */\n      tag_96\n        /* \"#utility.yul\":1364:1369   */\n      dup4\n        /* \"#utility.yul\":1314:1370   */\n      tag_58\n      jump\t// in\n    tag_96:\n        /* \"#utility.yul\":1393:1400   */\n      dup1\n        /* \"#utility.yul\":1424:1425   */\n      0x00\n        /* \"#utility.yul\":1409:1693   */\n    tag_97:\n        /* \"#utility.yul\":1434:1440   */\n      dup4\n        /* \"#utility.yul\":1431:1432   */\n      dup2\n        /* \"#utility.yul\":1428:1441   */\n      lt\n        /* \"#utility.yul\":1409:1693   */\n      iszero\n      tag_99\n      jumpi\n        /* \"#utility.yul\":1510:1516   */\n      dup2\n        /* \"#utility.yul\":1504:1517   */\n      mload\n        /* \"#utility.yul\":1537:1600   */\n      tag_100\n        /* \"#utility.yul\":1596:1599   */\n      dup9\n        /* \"#utility.yul\":1581:1594   */\n      dup3\n        /* \"#utility.yul\":1537:1600   */\n      tag_61\n      jump\t// in\n    tag_100:\n        /* \"#utility.yul\":1530:1600   */\n      swap8\n      pop\n        /* \"#utility.yul\":1623:1683   */\n      tag_101\n        /* \"#utility.yul\":1676:1682   */\n      dup4\n        /* \"#utility.yul\":1623:1683   */\n      tag_62\n      jump\t// in\n    tag_101:\n        /* \"#utility.yul\":1613:1683   */\n      swap3\n      pop\n        /* \"#utility.yul\":1469:1693   */\n      pop\n        /* \"#utility.yul\":1456:1457   */\n      0x01\n        /* \"#utility.yul\":1453:1454   */\n      dup2\n        /* \"#utility.yul\":1449:1458   */\n      add\n        /* \"#utility.yul\":1444:1458   */\n      swap1\n      pop\n        /* \"#utility.yul\":1409:1693   */\n      jump(tag_97)\n    tag_99:\n        /* \"#utility.yul\":1413:1427   */\n      pop\n        /* \"#utility.yul\":1709:1712   */\n      dup6\n        /* \"#utility.yul\":1702:1712   */\n      swap4\n      pop\n        /* \"#utility.yul\":1110:1718   */\n      pop\n      pop\n      pop\n        /* \"#utility.yul\":986:1718   */\n      swap3\n      swap2\n      pop\n      pop\n      jump\t// out\n        /* \"#utility.yul\":1724:2097   */\n    tag_15:\n        /* \"#utility.yul\":1867:1871   */\n      0x00\n        /* \"#utility.yul\":1905:1907   */\n      0x20\n        /* \"#utility.yul\":1894:1903   */\n      dup3\n        /* \"#utility.yul\":1890:1908   */\n      add\n        /* \"#utility.yul\":1882:1908   */\n      swap1\n      pop\n        /* \"#utility.yul\":1954:1963   */\n      dup2\n        /* \"#utility.yul\":1948:1952   */\n      dup2\n        /* \"#utility.yul\":1944:1964   */\n      sub\n        /* \"#utility.yul\":1940:1941   */\n      0x00\n        /* \"#utility.yul\":1929:1938   */\n      dup4\n        /* \"#utility.yul\":1925:1942   */\n      add\n        /* \"#utility.yul\":1918:1965   */\n      mstore\n        /* \"#utility.yul\":1982:2090   */\n      tag_103\n        /* \"#utility.yul\":2085:2089   */\n      dup2\n        /* \"#utility.yul\":2076:2082   */\n      dup5\n        /* \"#utility.yul\":1982:2090   */\n      tag_63\n      jump\t// in\n    tag_103:\n        /* \"#utility.yul\":1974:2090   */\n      swap1\n      pop\n        /* \"#utility.yul\":1724:2097   */\n      swap3\n      swap2\n      pop\n      pop\n      jump\t// out\n        /* \"#utility.yul\":2103:2221   */\n    tag_64:\n        /* \"#utility.yul\":2190:2214   */\n      tag_105\n        /* \"#utility.yul\":2208:2213   */\n      dup2\n        /* \"#utility.yul\":2190:2214   */\n      tag_59\n      jump\t// in\n    tag_105:\n        /* \"#utility.yul\":2185:2188   */\n      dup3\n        /* \"#utility.yul\":2178:2215   */\n      mstore\n        /* \"#utility.yul\":2103:2221   */\n      pop\n      pop\n      jump\t// out\n        /* \"#utility.yul\":2227:2317   */\n    tag_65:\n        /* \"#utility.yul\":2261:2268   */\n      0x00\n        /* \"#utility.yul\":2304:2309   */\n      dup2\n        /* \"#utility.yul\":2297:2310   */\n      iszero\n        /* \"#utility.yul\":2290:2311   */\n      iszero\n        /* \"#utility.yul\":2279:2311   */\n      swap1\n      pop\n        /* \"#utility.yul\":2227:2317   */\n      swap2\n      swap1\n      pop\n      jump\t// out\n        /* \"#utility.yul\":2323:2432   */\n    tag_66:\n        /* \"#utility.yul\":2404:2425   */\n      tag_108\n        /* \"#utility.yul\":2419:2424   */\n      dup2\n        /* \"#utility.yul\":2404:2425   */\n      tag_65\n      jump\t// in\n    tag_108:\n        /* \"#utility.yul\":2399:2402   */\n      dup3\n        /* \"#utility.yul\":2392:2426   */\n      mstore\n        /* \"#utility.yul\":2323:2432   */\n      pop\n      pop\n      jump\t// out\n        /* \"#utility.yul\":2438:2868   */\n    tag_19:\n        /* \"#utility.yul\":2581:2585   */\n      0x00\n        /* \"#utility.yul\":2619:2621   */\n      0x60\n        /* \"#utility.yul\":2608:2617   */\n      dup3\n        /* \"#utility.yul\":2604:2622   */\n      add\n        /* \"#utility.yul\":2596:2622   */\n      swap1\n      pop\n        /* \"#utility.yul\":2632:2703   */\n      tag_110\n        /* \"#utility.yul\":2700:2701   */\n      0x00\n        /* \"#utility.yul\":2689:2698   */\n      dup4\n        /* \"#utility.yul\":2685:2702   */\n      add\n        /* \"#utility.yul\":2676:2682   */\n      dup7\n        /* \"#utility.yul\":2632:2703   */\n      tag_64\n      jump\t// in\n    tag_110:\n        /* \"#utility.yul\":2713:2779   */\n      tag_111\n        /* \"#utility.yul\":2775:2777   */\n      0x20\n        /* \"#utility.yul\":2764:2773   */\n      dup4\n        /* \"#utility.yul\":2760:2778   */\n      add\n        /* \"#utility.yul\":2751:2757   */\n      dup6\n        /* \"#utility.yul\":2713:2779   */\n      tag_66\n      jump\t// in\n    tag_111:\n        /* \"#utility.yul\":2789:2861   */\n      tag_112\n        /* \"#utility.yul\":2857:2859   */\n      0x40\n        /* \"#utility.yul\":2846:2855   */\n      dup4\n        /* \"#utility.yul\":2842:2860   */\n      add\n        /* \"#utility.yul\":2833:2839   */\n      dup5\n        /* \"#utility.yul\":2789:2861   */\n      tag_64\n      jump\t// in\n    tag_112:\n        /* \"#utility.yul\":2438:2868   */\n      swap5\n      swap4\n      pop\n      pop\n      pop\n      pop\n      jump\t// out\n        /* \"#utility.yul\":2874:3526   */\n    tag_23:\n        /* \"#utility.yul\":3073:3077   */\n      0x00\n        /* \"#utility.yul\":3111:3114   */\n      0xa0\n        /* \"#utility.yul\":3100:3109   */\n      dup3\n        /* \"#utility.yul\":3096:3115   */\n      add\n        /* \"#utility.yul\":3088:3115   */\n      swap1\n      pop\n        /* \"#utility.yul\":3125:3196   */\n      tag_114\n        /* \"#utility.yul\":3193:3194   */\n      0x00\n        /* \"#utility.yul\":3182:3191   */\n      dup4\n        /* \"#utility.yul\":3178:3195   */\n      add\n        /* \"#utility.yul\":3169:3175   */\n      dup9\n        /* \"#utility.yul\":3125:3196   */\n      tag_64\n      jump\t// in\n    tag_114:\n        /* \"#utility.yul\":3206:3272   */\n      tag_115\n        /* \"#utility.yul\":3268:3270   */\n      0x20\n        /* \"#utility.yul\":3257:3266   */\n      dup4\n        /* \"#utility.yul\":3253:3271   */\n      add\n        /* \"#utility.yul\":3244:3250   */\n      dup8\n        /* \"#utility.yul\":3206:3272   */\n      tag_66\n      jump\t// in\n    tag_115:\n        /* \"#utility.yul\":3282:3354   */\n      tag_116\n        /* \"#utility.yul\":3350:3352   */\n      0x40\n        /* \"#utility.yul\":3339:3348   */\n      dup4\n        /* \"#utility.yul\":3335:3353   */\n      add\n        /* \"#utility.yul\":3326:3332   */\n      dup7\n        /* \"#utility.yul\":3282:3354   */\n      tag_64\n      jump\t// in\n    tag_116:\n        /* \"#utility.yul\":3364:3436   */\n      tag_117\n        /* \"#utility.yul\":3432:3434   */\n      0x60\n        /* \"#utility.yul\":3421:3430   */\n      dup4\n        /* \"#utility.yul\":3417:3435   */\n      add\n        /* \"#utility.yul\":3408:3414   */\n      dup6\n        /* \"#utility.yul\":3364:3436   */\n      tag_64\n      jump\t// in\n    tag_117:\n        /* \"#utility.yul\":3446:3519   */\n      tag_118\n        /* \"#utility.yul\":3514:3517   */\n      0x80\n        /* \"#utility.yul\":3503:3512   */\n      dup4\n        /* \"#utility.yul\":3499:3518   */\n      add\n        /* \"#utility.yul\":3490:3496   */\n      dup5\n        /* \"#utility.yul\":3446:3519   */\n      tag_64\n      jump\t// in\n    tag_118:\n        /* \"#utility.yul\":2874:3526   */\n      swap7\n      swap6\n      pop\n      pop\n      pop\n      pop\n      pop\n      pop\n      jump\t// out\n        /* \"#utility.yul\":3532:3607   */\n    tag_67:\n        /* \"#utility.yul\":3565:3571   */\n      0x00\n        /* \"#utility.yul\":3598:3600   */\n      0x40\n        /* \"#utility.yul\":3592:3601   */\n      mload\n        /* \"#utility.yul\":3582:3601   */\n      swap1\n      pop\n        /* \"#utility.yul\":3532:3607   */\n      swap1\n      jump\t// out\n        /* \"#utility.yul\":3613:3730   */\n    tag_68:\n        /* \"#utility.yul\":3722:3723   */\n      0x00\n        /* \"#utility.yul\":3719:3720   */\n      dup1\n        /* \"#utility.yul\":3712:3724   */\n      revert\n        /* \"#utility.yul\":3736:3853   */\n    tag_69:\n        /* \"#utility.yul\":3845:3846   */\n      0x00\n        /* \"#utility.yul\":3842:3843   */\n      dup1\n        /* \"#utility.yul\":3835:3847   */\n      revert\n        /* \"#utility.yul\":3859:3981   */\n    tag_70:\n        /* \"#utility.yul\":3932:3956   */\n      tag_123\n        /* \"#utility.yul\":3950:3955   */\n      dup2\n        /* \"#utility.yul\":3932:3956   */\n      tag_59\n      jump\t// in\n    tag_123:\n        /* \"#utility.yul\":3925:3930   */\n      dup2\n        /* \"#utility.yul\":3922:3957   */\n      eq\n        /* \"#utility.yul\":3912:3975   */\n      tag_124\n      jumpi\n        /* \"#utility.yul\":3971:3972   */\n      0x00\n        /* \"#utility.yul\":3968:3969   */\n      dup1\n        /* \"#utility.yul\":3961:3973   */\n      revert\n        /* \"#utility.yul\":3912:3975   */\n    tag_124:\n        /* \"#utility.yul\":3859:3981   */\n      pop\n      jump\t// out\n        /* \"#utility.yul\":3987:4126   */\n    tag_71:\n        /* \"#utility.yul\":4033:4038   */\n      0x00\n        /* \"#utility.yul\":4071:4077   */\n      dup2\n        /* \"#utility.yul\":4058:4078   */\n      calldataload\n        /* \"#utility.yul\":4049:4078   */\n      swap1\n      pop\n        /* \"#utility.yul\":4087:4120   */\n      tag_126\n        /* \"#utility.yul\":4114:4119   */\n      dup2\n        /* \"#utility.yul\":4087:4120   */\n      tag_70\n      jump\t// in\n    tag_126:\n        /* \"#utility.yul\":3987:4126   */\n      swap3\n      swap2\n      pop\n      pop\n      jump\t// out\n        /* \"#utility.yul\":4132:4461   */\n    tag_26:\n        /* \"#utility.yul\":4191:4197   */\n      0x00\n        /* \"#utility.yul\":4240:4242   */\n      0x20\n        /* \"#utility.yul\":4228:4237   */\n      dup3\n        /* \"#utility.yul\":4219:4226   */\n      dup5\n        /* \"#utility.yul\":4215:4238   */\n      sub\n        /* \"#utility.yul\":4211:4243   */\n      slt\n        /* \"#utility.yul\":4208:4327   */\n      iszero\n      tag_128\n      jumpi\n        /* \"#utility.yul\":4246:4325   */\n      tag_129\n      tag_68\n      jump\t// in\n    tag_129:\n        /* \"#utility.yul\":4208:4327   */\n    tag_128:\n        /* \"#utility.yul\":4366:4367   */\n      0x00\n        /* \"#utility.yul\":4391:4444   */\n      tag_130\n        /* \"#utility.yul\":4436:4443   */\n      dup5\n        /* \"#utility.yul\":4427:4433   */\n      dup3\n        /* \"#utility.yul\":4416:4425   */\n      dup6\n        /* \"#utility.yul\":4412:4434   */\n      add\n        /* \"#utility.yul\":4391:4444   */\n      tag_71\n      jump\t// in\n    tag_130:\n        /* \"#utility.yul\":4381:4444   */\n      swap2\n      pop\n        /* \"#utility.yul\":4337:4454   */\n      pop\n        /* \"#utility.yul\":4132:4461   */\n      swap3\n      swap2\n      pop\n      pop\n      jump\t// out\n        /* \"#utility.yul\":4467:4689   */\n    tag_29:\n        /* \"#utility.yul\":4560:4564   */\n      0x00\n        /* \"#utility.yul\":4598:4600   */\n      0x20\n        /* \"#utility.yul\":4587:4596   */\n      dup3\n        /* \"#utility.yul\":4583:4601   */\n      add\n        /* \"#utility.yul\":4575:4601   */\n      swap1\n      pop\n        /* \"#utility.yul\":4611:4682   */\n      tag_132\n        /* \"#utility.yul\":4679:4680   */\n      0x00\n        /* \"#utility.yul\":4668:4677   */\n      dup4\n        /* \"#utility.yul\":4664:4681   */\n      add\n        /* \"#utility.yul\":4655:4661   */\n      dup5\n        /* \"#utility.yul\":4611:4682   */\n      tag_64\n      jump\t// in\n    tag_132:\n        /* \"#utility.yul\":4467:4689   */\n      swap3\n      swap2\n      pop\n      pop\n      jump\t// out\n        /* \"#utility.yul\":4695:4784   */\n    tag_72:\n        /* \"#utility.yul\":4729:4736   */\n      0x00\n        /* \"#utility.yul\":4772:4777   */\n      dup2\n        /* \"#utility.yul\":4769:4770   */\n      0x00\n        /* \"#utility.yul\":4758:4778   */\n      signextend\n        /* \"#utility.yul\":4747:4778   */\n      swap1\n      pop\n        /* \"#utility.yul\":4695:4784   */\n      swap2\n      swap1\n      pop\n      jump\t// out\n        /* \"#utility.yul\":4790:4899   */\n    tag_73:\n        /* \"#utility.yul\":4871:4892   */\n      tag_135\n        /* \"#utility.yul\":4886:4891   */\n      dup2\n        /* \"#utility.yul\":4871:4892   */\n      tag_72\n      jump\t// in\n    tag_135:\n        /* \"#utility.yul\":4866:4869   */\n      dup3\n        /* \"#utility.yul\":4859:4893   */\n      mstore\n        /* \"#utility.yul\":4790:4899   */\n      pop\n      pop\n      jump\t// out\n        /* \"#utility.yul\":4905:5213   */\n    tag_36:\n        /* \"#utility.yul\":5014:5018   */\n      0x00\n        /* \"#utility.yul\":5052:5054   */\n      0x40\n        /* \"#utility.yul\":5041:5050   */\n      dup3\n        /* \"#utility.yul\":5037:5055   */\n      add\n        /* \"#utility.yul\":5029:5055   */\n      swap1\n      pop\n        /* \"#utility.yul\":5065:5130   */\n      tag_137\n        /* \"#utility.yul\":5127:5128   */\n      0x00\n        /* \"#utility.yul\":5116:5125   */\n      dup4\n        /* \"#utility.yul\":5112:5129   */\n      add\n        /* \"#utility.yul\":5103:5109   */\n      dup6\n        /* \"#utility.yul\":5065:5130   */\n      tag_73\n      jump\t// in\n    tag_137:\n        /* \"#utility.yul\":5140:5206   */\n      tag_138\n        /* \"#utility.yul\":5202:5204   */\n      0x20\n        /* \"#utility.yul\":5191:5200   */\n      dup4\n        /* \"#utility.yul\":5187:5205   */\n      add\n        /* \"#utility.yul\":5178:5184   */\n      dup5\n        /* \"#utility.yul\":5140:5206   */\n      tag_66\n      jump\t// in\n    tag_138:\n        /* \"#utility.yul\":4905:5213   */\n      swap4\n      swap3\n      pop\n      pop\n      pop\n      jump\t// out\n        /* \"#utility.yul\":5219:5336   */\n    tag_74:\n        /* \"#utility.yul\":5328:5329   */\n      0x00\n        /* \"#utility.yul\":5325:5326   */\n      dup1\n        /* \"#utility.yul\":5318:5330   */\n      revert\n        /* \"#utility.yul\":5342:5444   */\n    tag_75:\n        /* \"#utility.yul\":5383:5389   */\n      0x00\n        /* \"#utility.yul\":5434:5436   */\n      0x1f\n        /* \"#utility.yul\":5430:5437   */\n      not\n        /* \"#utility.yul\":5425:5427   */\n      0x1f\n        /* \"#utility.yul\":5418:5423   */\n      dup4\n        /* \"#utility.yul\":5414:5428   */\n      add\n        /* \"#utility.yul\":5410:5438   */\n      and\n        /* \"#utility.yul\":5400:5438   */\n      swap1\n      pop\n        /* \"#utility.yul\":5342:5444   */\n      swap2\n      swap1\n      pop\n      jump\t// out\n        /* \"#utility.yul\":5450:5630   */\n    tag_76:\n        /* \"#utility.yul\":5498:5575   */\n      0x4e487b7100000000000000000000000000000000000000000000000000000000\n        /* \"#utility.yul\":5495:5496   */\n      0x00\n        /* \"#utility.yul\":5488:5576   */\n      mstore\n        /* \"#utility.yul\":5595:5599   */\n      0x41\n        /* \"#utility.yul\":5592:5593   */\n      0x04\n        /* \"#utility.yul\":5585:5600   */\n      mstore\n        /* \"#utility.yul\":5619:5623   */\n      0x24\n        /* \"#utility.yul\":5616:5617   */\n      0x00\n        /* \"#utility.yul\":5609:5624   */\n      revert\n        /* \"#utility.yul\":5636:5917   */\n    tag_77:\n        /* \"#utility.yul\":5719:5746   */\n      tag_143\n        /* \"#utility.yul\":5741:5745   */\n      dup3\n        /* \"#utility.yul\":5719:5746   */\n      tag_75\n      jump\t// in\n    tag_143:\n        /* \"#utility.yul\":5711:5717   */\n      dup2\n        /* \"#utility.yul\":5707:5747   */\n      add\n        /* \"#utility.yul\":5849:5855   */\n      dup2\n        /* \"#utility.yul\":5837:5847   */\n      dup2\n        /* \"#utility.yul\":5834:5856   */\n      lt\n        /* \"#utility.yul\":5813:5831   */\n      0xffffffffffffffff\n        /* \"#utility.yul\":5801:5811   */\n      dup3\n        /* \"#utility.yul\":5798:5832   */\n      gt\n        /* \"#utility.yul\":5795:5857   */\n      or\n        /* \"#utility.yul\":5792:5880   */\n      iszero\n      tag_144\n      jumpi\n        /* \"#utility.yul\":5860:5878   */\n      tag_145\n      tag_76\n      jump\t// in\n    tag_145:\n        /* \"#utility.yul\":5792:5880   */\n    tag_144:\n        /* \"#utility.yul\":5900:5910   */\n      dup1\n        /* \"#utility.yul\":5896:5898   */\n      0x40\n        /* \"#utility.yul\":5889:5911   */\n      mstore\n        /* \"#utility.yul\":5679:5917   */\n      pop\n        /* \"#utility.yul\":5636:5917   */\n      pop\n      pop\n      jump\t// out\n        /* \"#utility.yul\":5923:6052   */\n    tag_78:\n        /* \"#utility.yul\":5957:5963   */\n      0x00\n        /* \"#utility.yul\":5984:6004   */\n      tag_147\n      tag_67\n      jump\t// in\n    tag_147:\n        /* \"#utility.yul\":5974:6004   */\n      swap1\n      pop\n        /* \"#utility.yul\":6013:6046   */\n      tag_148\n        /* \"#utility.yul\":6041:6045   */\n      dup3\n        /* \"#utility.yul\":6033:6039   */\n      dup3\n        /* \"#utility.yul\":6013:6046   */\n      tag_77\n      jump\t// in\n    tag_148:\n        /* \"#utility.yul\":5923:6052   */\n      swap2\n      swap1\n      pop\n      jump\t// out\n        /* \"#utility.yul\":6058:6369   */\n    tag_79:\n        /* \"#utility.yul\":6135:6139   */\n      0x00\n        /* \"#utility.yul\":6225:6243   */\n      0xffffffffffffffff\n        /* \"#utility.yul\":6217:6223   */\n      dup3\n        /* \"#utility.yul\":6214:6244   */\n      gt\n        /* \"#utility.yul\":6211:6267   */\n      iszero\n      tag_150\n      jumpi\n        /* \"#utility.yul\":6247:6265   */\n      tag_151\n      tag_76\n      jump\t// in\n    tag_151:\n        /* \"#utility.yul\":6211:6267   */\n    tag_150:\n        /* \"#utility.yul\":6297:6301   */\n      0x20\n        /* \"#utility.yul\":6289:6295   */\n      dup3\n        /* \"#utility.yul\":6285:6302   */\n      mul\n        /* \"#utility.yul\":6277:6302   */\n      swap1\n      pop\n        /* \"#utility.yul\":6357:6361   */\n      0x20\n        /* \"#utility.yul\":6351:6355   */\n      dup2\n        /* \"#utility.yul\":6347:6362   */\n      add\n        /* \"#utility.yul\":6339:6362   */\n      swap1\n      pop\n        /* \"#utility.yul\":6058:6369   */\n      swap2\n      swap1\n      pop\n      jump\t// out\n        /* \"#utility.yul\":6375:6492   */\n    tag_80:\n        /* \"#utility.yul\":6484:6485   */\n      0x00\n        /* \"#utility.yul\":6481:6482   */\n      dup1\n        /* \"#utility.yul\":6474:6486   */\n      revert\n        /* \"#utility.yul\":6515:7225   */\n    tag_81:\n        /* \"#utility.yul\":6611:6616   */\n      0x00\n        /* \"#utility.yul\":6636:6717   */\n      tag_154\n        /* \"#utility.yul\":6652:6716   */\n      tag_155\n        /* \"#utility.yul\":6709:6715   */\n      dup5\n        /* \"#utility.yul\":6652:6716   */\n      tag_79\n      jump\t// in\n    tag_155:\n        /* \"#utility.yul\":6636:6717   */\n      tag_78\n      jump\t// in\n    tag_154:\n        /* \"#utility.yul\":6627:6717   */\n      swap1\n      pop\n        /* \"#utility.yul\":6737:6742   */\n      dup1\n        /* \"#utility.yul\":6766:6772   */\n      dup4\n        /* \"#utility.yul\":6759:6764   */\n      dup3\n        /* \"#utility.yul\":6752:6773   */\n      mstore\n        /* \"#utility.yul\":6800:6804   */\n      0x20\n        /* \"#utility.yul\":6793:6798   */\n      dup3\n        /* \"#utility.yul\":6789:6805   */\n      add\n        /* \"#utility.yul\":6782:6805   */\n      swap1\n      pop\n        /* \"#utility.yul\":6853:6857   */\n      0x20\n        /* \"#utility.yul\":6845:6851   */\n      dup5\n        /* \"#utility.yul\":6841:6858   */\n      mul\n        /* \"#utility.yul\":6833:6839   */\n      dup4\n        /* \"#utility.yul\":6829:6859   */\n      add\n        /* \"#utility.yul\":6882:6885   */\n      dup6\n        /* \"#utility.yul\":6874:6880   */\n      dup2\n        /* \"#utility.yul\":6871:6886   */\n      gt\n        /* \"#utility.yul\":6868:6990   */\n      iszero\n      tag_156\n      jumpi\n        /* \"#utility.yul\":6901:6980   */\n      tag_157\n      tag_80\n      jump\t// in\n    tag_157:\n        /* \"#utility.yul\":6868:6990   */\n    tag_156:\n        /* \"#utility.yul\":7016:7022   */\n      dup4\n        /* \"#utility.yul\":6999:7219   */\n    tag_158:\n        /* \"#utility.yul\":7033:7039   */\n      dup2\n        /* \"#utility.yul\":7028:7031   */\n      dup2\n        /* \"#utility.yul\":7025:7040   */\n      lt\n        /* \"#utility.yul\":6999:7219   */\n      iszero\n      tag_160\n      jumpi\n        /* \"#utility.yul\":7108:7111   */\n      dup1\n        /* \"#utility.yul\":7137:7174   */\n      tag_161\n        /* \"#utility.yul\":7170:7173   */\n      dup9\n        /* \"#utility.yul\":7158:7168   */\n      dup3\n        /* \"#utility.yul\":7137:7174   */\n      tag_71\n      jump\t// in\n    tag_161:\n        /* \"#utility.yul\":7132:7135   */\n      dup5\n        /* \"#utility.yul\":7125:7175   */\n      mstore\n        /* \"#utility.yul\":7204:7208   */\n      0x20\n        /* \"#utility.yul\":7199:7202   */\n      dup5\n        /* \"#utility.yul\":7195:7209   */\n      add\n        /* \"#utility.yul\":7188:7209   */\n      swap4\n      pop\n        /* \"#utility.yul\":7075:7219   */\n      pop\n        /* \"#utility.yul\":7059:7063   */\n      0x20\n        /* \"#utility.yul\":7054:7057   */\n      dup2\n        /* \"#utility.yul\":7050:7064   */\n      add\n        /* \"#utility.yul\":7043:7064   */\n      swap1\n      pop\n        /* \"#utility.yul\":6999:7219   */\n      jump(tag_158)\n    tag_160:\n        /* \"#utility.yul\":7003:7024   */\n      pop\n        /* \"#utility.yul\":6617:7225   */\n      pop\n      pop\n        /* \"#utility.yul\":6515:7225   */\n      swap4\n      swap3\n      pop\n      pop\n      pop\n      jump\t// out\n        /* \"#utility.yul\":7248:7618   */\n    tag_82:\n        /* \"#utility.yul\":7319:7324   */\n      0x00\n        /* \"#utility.yul\":7368:7371   */\n      dup3\n        /* \"#utility.yul\":7361:7365   */\n      0x1f\n        /* \"#utility.yul\":7353:7359   */\n      dup4\n        /* \"#utility.yul\":7349:7366   */\n      add\n        /* \"#utility.yul\":7345:7372   */\n      slt\n        /* \"#utility.yul\":7335:7457   */\n      tag_163\n      jumpi\n        /* \"#utility.yul\":7376:7455   */\n      tag_164\n      tag_74\n      jump\t// in\n    tag_164:\n        /* \"#utility.yul\":7335:7457   */\n    tag_163:\n        /* \"#utility.yul\":7493:7499   */\n      dup2\n        /* \"#utility.yul\":7480:7500   */\n      calldataload\n        /* \"#utility.yul\":7518:7612   */\n      tag_165\n        /* \"#utility.yul\":7608:7611   */\n      dup5\n        /* \"#utility.yul\":7600:7606   */\n      dup3\n        /* \"#utility.yul\":7593:7597   */\n      0x20\n        /* \"#utility.yul\":7585:7591   */\n      dup7\n        /* \"#utility.yul\":7581:7598   */\n      add\n        /* \"#utility.yul\":7518:7612   */\n      tag_81\n      jump\t// in\n    tag_165:\n        /* \"#utility.yul\":7509:7612   */\n      swap2\n      pop\n        /* \"#utility.yul\":7325:7618   */\n      pop\n        /* \"#utility.yul\":7248:7618   */\n      swap3\n      swap2\n      pop\n      pop\n      jump\t// out\n        /* \"#utility.yul\":7624:8163   */\n    tag_42:\n        /* \"#utility.yul\":7708:7714   */\n      0x00\n        /* \"#utility.yul\":7757:7759   */\n      0x20\n        /* \"#utility.yul\":7745:7754   */\n      dup3\n        /* \"#utility.yul\":7736:7743   */\n      dup5\n        /* \"#utility.yul\":7732:7755   */\n      sub\n        /* \"#utility.yul\":7728:7760   */\n      slt\n        /* \"#utility.yul\":7725:7844   */\n      iszero\n      tag_167\n      jumpi\n        /* \"#utility.yul\":7763:7842   */\n      tag_168\n      tag_68\n      jump\t// in\n    tag_168:\n        /* \"#utility.yul\":7725:7844   */\n    tag_167:\n        /* \"#utility.yul\":7911:7912   */\n      0x00\n        /* \"#utility.yul\":7900:7909   */\n      dup3\n        /* \"#utility.yul\":7896:7913   */\n      add\n        /* \"#utility.yul\":7883:7914   */\n      calldataload\n        /* \"#utility.yul\":7941:7959   */\n      0xffffffffffffffff\n        /* \"#utility.yul\":7933:7939   */\n      dup2\n        /* \"#utility.yul\":7930:7960   */\n      gt\n        /* \"#utility.yul\":7927:8044   */\n      iszero\n      tag_169\n      jumpi\n        /* \"#utility.yul\":7963:8042   */\n      tag_170\n      tag_69\n      jump\t// in\n    tag_170:\n        /* \"#utility.yul\":7927:8044   */\n    tag_169:\n        /* \"#utility.yul\":8068:8146   */\n      tag_171\n        /* \"#utility.yul\":8138:8145   */\n      dup5\n        /* \"#utility.yul\":8129:8135   */\n      dup3\n        /* \"#utility.yul\":8118:8127   */\n      dup6\n        /* \"#utility.yul\":8114:8136   */\n      add\n        /* \"#utility.yul\":8068:8146   */\n      tag_82\n      jump\t// in\n    tag_171:\n        /* \"#utility.yul\":8058:8146   */\n      swap2\n      pop\n        /* \"#utility.yul\":7854:8156   */\n      pop\n        /* \"#utility.yul\":7624:8163   */\n      swap3\n      swap2\n      pop\n      pop\n      jump\t// out\n\n    auxdata: 0xa2646970667358221220731581e9966f793a7baf58104b58806ac052701409e7c30c9ef19f75968cb5bd64736f6c63430008120033\n}\n",
				"bytecode": {
					"linkReferences": {},
					"object": "608060405234801561001057600080fd5b5061070b806100206000396000f3fe608060405234801561001057600080fd5b50600436106100885760003560e01c8063868875441161005b578063868875441461011d578063946e182c1461013d578063adb4d9901461015c578063f4bb6e6b1461017c57610088565b80631990532b1461008d57806345f907a8146100ab57806353a6aadb146100cb57806371e5ee5f146100ed575b600080fd5b610095610198565b6040516100a29190610390565b60405180910390f35b6100b36101f0565b6040516100c2939291906103dc565b60405180910390f35b6100d3610205565b6040516100e4959493929190610413565b60405180910390f35b610107600480360381019061010291906104a6565b610248565b60405161011491906104d3565b60405180910390f35b61012561026c565b604051610134939291906103dc565b60405180910390f35b610145610281565b60405161015392919061050a565b60405180910390f35b6101646102af565b604051610173939291906103dc565b60405180910390f35b6101966004803603810190610191919061068c565b6102c5565b005b606060008054806020026020016040519081016040528092919081815260200182805480156101e657602002820191906000526020600020905b8154815260200190600101908083116101d2575b5050505050905090565b60008060006001806002925092509250909192565b60008060008060008060008061021961026c565b925092509250600080600460056006925050915084848484849950995099509950995050505050509091929394565b6000818154811061025857600080fd5b906000526020600020016000915090505481565b60008060006001806002925092509250909192565b6000807ffffffffffffffffffffffffffffffffffffffffffffffffffffffffffffffffe9150600190509091565b6000806000600192506001915060029050909192565b50565b600081519050919050565b600082825260208201905092915050565b6000819050602082019050919050565b6000819050919050565b610307816102f4565b82525050565b600061031983836102fe565b60208301905092915050565b6000602082019050919050565b600061033d826102c8565b61034781856102d3565b9350610352836102e4565b8060005b8381101561038357815161036a888261030d565b975061037583610325565b925050600181019050610356565b5085935050505092915050565b600060208201905081810360008301526103aa8184610332565b905092915050565b6103bb816102f4565b82525050565b60008115159050919050565b6103d6816103c1565b82525050565b60006060820190506103f160008301866103b2565b6103fe60208301856103cd565b61040b60408301846103b2565b949350505050565b600060a08201905061042860008301886103b2565b61043560208301876103cd565b61044260408301866103b2565b61044f60608301856103b2565b61045c60808301846103b2565b9695505050505050565b6000604051905090565b600080fd5b600080fd5b610483816102f4565b811461048e57600080fd5b50565b6000813590506104a08161047a565b92915050565b6000602082840312156104bc576104bb610470565b5b60006104ca84828501610491565b91505092915050565b60006020820190506104e860008301846103b2565b92915050565b60008160000b9050919050565b610504816104ee565b82525050565b600060408201905061051f60008301856104fb565b61052c60208301846103cd565b9392505050565b600080fd5b6000601f19601f8301169050919050565b7f4e487b7100000000000000000000000000000000000000000000000000000000600052604160045260246000fd5b61058182610538565b810181811067ffffffffffffffff821117156105a05761059f610549565b5b80604052505050565b60006105b3610466565b90506105bf8282610578565b919050565b600067ffffffffffffffff8211156105df576105de610549565b5b602082029050602081019050919050565b600080fd5b6000610608610603846105c4565b6105a9565b9050808382526020820190506020840283018581111561062b5761062a6105f0565b5b835b8181101561065457806106408882610491565b84526020840193505060208101905061062d565b5050509392505050565b600082601f83011261067357610672610533565b5b81356106838482602086016105f5565b91505092915050565b6000602082840312156106a2576106a1610470565b5b600082013567ffffffffffffffff8111156106c0576106bf610475565b5b6106cc8482850161065e565b9150509291505056fea2646970667358221220731581e9966f793a7baf58104b58806ac052701409e7c30c9ef19f75968cb5bd64736f6c63430008120033",
					"opcodes": "PUSH1 0x80 PUSH1 0x40 MSTORE CALLVALUE DUP1 ISZERO PUSH2 0x10 JUMPI PUSH1 0x0 DUP1 REVERT JUMPDEST POP PUSH2 0x70B DUP1 PUSH2 0x20 PUSH1 0x0 CODECOPY PUSH1 0x0 RETURN INVALID PUSH1 0x80 PUSH1 0x40 MSTORE CALLVALUE DUP1 ISZERO PUSH2 0x10 JUMPI PUSH1 0x0 DUP1 REVERT JUMPDEST POP PUSH1 0x4 CALLDATASIZE LT PUSH2 0x88 JUMPI PUSH1 0x0 CALLDATALOAD PUSH1 0xE0 SHR DUP1 PUSH4 0x86887544 GT PUSH2 0x5B JUMPI DUP1 PUSH4 0x86887544 EQ PUSH2 0x11D JUMPI DUP1 PUSH4 0x946E182C EQ PUSH2 0x13D JUMPI DUP1 PUSH4 0xADB4D990 EQ PUSH2 0x15C JUMPI DUP1 PUSH4 0xF4BB6E6B EQ PUSH2 0x17C JUMPI PUSH2 0x88 JUMP JUMPDEST DUP1 PUSH4 0x1990532B EQ PUSH2 0x8D JUMPI DUP1 PUSH4 0x45F907A8 EQ PUSH2 0xAB JUMPI DUP1 PUSH4 0x53A6AADB EQ PUSH2 0xCB JUMPI DUP1 PUSH4 0x71E5EE5F EQ PUSH2 0xED JUMPI JUMPDEST PUSH1 0x0 DUP1 REVERT JUMPDEST PUSH2 0x95 PUSH2 0x198 JUMP JUMPDEST PUSH1 0x40 MLOAD PUSH2 0xA2 SWAP2 SWAP1 PUSH2 0x390 JUMP JUMPDEST PUSH1 0x40 MLOAD DUP1 SWAP2 SUB SWAP1 RETURN JUMPDEST PUSH2 0xB3 PUSH2 0x1F0 JUMP JUMPDEST PUSH1 0x40 MLOAD PUSH2 0xC2 SWAP4 SWAP3 SWAP2 SWAP1 PUSH2 0x3DC JUMP JUMPDEST PUSH1 0x40 MLOAD DUP1 SWAP2 SUB SWAP1 RETURN JUMPDEST PUSH2 0xD3 PUSH2 0x205 JUMP JUMPDEST PUSH1 0x40 MLOAD PUSH2 0xE4 SWAP6 SWAP5 SWAP4 SWAP3 SWAP2 SWAP1 PUSH2 0x413 JUMP JUMPDEST PUSH1 0x40 MLOAD DUP1 SWAP2 SUB SWAP1 RETURN JUMPDEST PUSH2 0x107 PUSH1 0x4 DUP1 CALLDATASIZE SUB DUP2 ADD SWAP1 PUSH2 0x102 SWAP2 SWAP1 PUSH2 0x4A6 JUMP JUMPDEST PUSH2 0x248 JUMP JUMPDEST PUSH1 0x40 MLOAD PUSH2 0x114 SWAP2 SWAP1 PUSH2 0x4D3 JUMP JUMPDEST PUSH1 0x40 MLOAD DUP1 SWAP2 SUB SWAP1 RETURN JUMPDEST PUSH2 0x125 PUSH2 0x26C JUMP JUMPDEST PUSH1 0x40 MLOAD PUSH2 0x134 SWAP4 SWAP3 SWAP2 SWAP1 PUSH2 0x3DC JUMP JUMPDEST PUSH1 0x40 MLOAD DUP1 SWAP2 SUB SWAP1 RETURN JUMPDEST PUSH2 0x145 PUSH2 0x281 JUMP JUMPDEST PUSH1 0x40 MLOAD PUSH2 0x153 SWAP3 SWAP2 SWAP1 PUSH2 0x50A JUMP JUMPDEST PUSH1 0x40 MLOAD DUP1 SWAP2 SUB SWAP1 RETURN JUMPDEST PUSH2 0x164 PUSH2 0x2AF JUMP JUMPDEST PUSH1 0x40 MLOAD PUSH2 0x173 SWAP4 SWAP3 SWAP2 SWAP1 PUSH2 0x3DC JUMP JUMPDEST PUSH1 0x40 MLOAD DUP1 SWAP2 SUB SWAP1 RETURN JUMPDEST PUSH2 0x196 PUSH1 0x4 DUP1 CALLDATASIZE SUB DUP2 ADD SWAP1 PUSH2 0x191 SWAP2 SWAP1 PUSH2 0x68C JUMP JUMPDEST PUSH2 0x2C5 JUMP JUMPDEST STOP JUMPDEST PUSH1 0x60 PUSH1 0x0 DUP1 SLOAD DUP1 PUSH1 0x20 MUL PUSH1 0x20 ADD PUSH1 0x40 MLOAD SWAP1 DUP2 ADD PUSH1 0x40 MSTORE DUP1 SWAP3 SWAP2 SWAP1 DUP2 DUP2 MSTORE PUSH1 0x20 ADD DUP3 DUP1 SLOAD DUP1 ISZERO PUSH2 0x1E6 JUMPI PUSH1 0x20 MUL DUP3 ADD SWAP2 SWAP1 PUSH1 0x0 MSTORE PUSH1 0x20 PUSH1 0x0 KECCAK256 SWAP1 JUMPDEST DUP2 SLOAD DUP2 MSTORE PUSH1 0x20 ADD SWAP1 PUSH1 0x1 ADD SWAP1 DUP1 DUP4 GT PUSH2 0x1D2 JUMPI JUMPDEST POP POP POP POP POP SWAP1 POP SWAP1 JUMP JUMPDEST PUSH1 0x0 DUP1 PUSH1 0x0 PUSH1 0x1 DUP1 PUSH1 0x2 SWAP3 POP SWAP3 POP SWAP3 POP SWAP1 SWAP2 SWAP3 JUMP JUMPDEST PUSH1 0x0 DUP1 PUSH1 0x0 DUP1 PUSH1 0x0 DUP1 PUSH1 0x0 DUP1 PUSH2 0x219 PUSH2 0x26C JUMP JUMPDEST SWAP3 POP SWAP3 POP SWAP3 POP PUSH1 0x0 DUP1 PUSH1 0x4 PUSH1 0x5 PUSH1 0x6 SWAP3 POP POP SWAP2 POP DUP5 DUP5 DUP5 DUP5 DUP5 SWAP10 POP SWAP10 POP SWAP10 POP SWAP10 POP SWAP10 POP POP POP POP POP POP SWAP1 SWAP2 SWAP3 SWAP4 SWAP5 JUMP JUMPDEST PUSH1 0x0 DUP2 DUP2 SLOAD DUP2 LT PUSH2 0x258 JUMPI PUSH1 0x0 DUP1 REVERT JUMPDEST SWAP1 PUSH1 0x0 MSTORE PUSH1 0x20 PUSH1 0x0 KECCAK256 ADD PUSH1 0x0 SWAP2 POP SWAP1 POP SLOAD DUP2 JUMP JUMPDEST PUSH1 0x0 DUP1 PUSH1 0x0 PUSH1 0x1 DUP1 PUSH1 0x2 SWAP3 POP SWAP3 POP SWAP3 POP SWAP1 SWAP2 SWAP3 JUMP JUMPDEST PUSH1 0x0 DUP1 PUSH32 0xFFFFFFFFFFFFFFFFFFFFFFFFFFFFFFFFFFFFFFFFFFFFFFFFFFFFFFFFFFFFFFFE SWAP2 POP PUSH1 0x1 SWAP1 POP SWAP1 SWAP2 JUMP JUMPDEST PUSH1 0x0 DUP1 PUSH1 0x0 PUSH1 0x1 SWAP3 POP PUSH1 0x1 SWAP2 POP PUSH1 0x2 SWAP1 POP SWAP1 SWAP2 SWAP3 JUMP JUMPDEST POP JUMP JUMPDEST PUSH1 0x0 DUP2 MLOAD SWAP1 POP SWAP2 SWAP1 POP JUMP JUMPDEST PUSH1 0x0 DUP3 DUP3 MSTORE PUSH1 0x20 DUP3 ADD SWAP1 POP SWAP3 SWAP2 POP POP JUMP JUMPDEST PUSH1 0x0 DUP2 SWAP1 POP PUSH1 0x20 DUP3 ADD SWAP1 POP SWAP2 SWAP1 POP JUMP JUMPDEST PUSH1 0x0 DUP2 SWAP1 POP SWAP2 SWAP1 POP JUMP JUMPDEST PUSH2 0x307 DUP2 PUSH2 0x2F4 JUMP JUMPDEST DUP3 MSTORE POP POP JUMP JUMPDEST PUSH1 0x0 PUSH2 0x319 DUP4 DUP4 PUSH2 0x2FE JUMP JUMPDEST PUSH1 0x20 DUP4 ADD SWAP1 POP SWAP3 SWAP2 POP POP JUMP JUMPDEST PUSH1 0x0 PUSH1 0x20 DUP3 ADD SWAP1 POP SWAP2 SWAP1 POP JUMP JUMPDEST PUSH1 0x0 PUSH2 0x33D DUP3 PUSH2 0x2C8 JUMP JUMPDEST PUSH2 0x347 DUP2 DUP6 PUSH2 0x2D3 JUMP JUMPDEST SWAP4 POP PUSH2 0x352 DUP4 PUSH2 0x2E4 JUMP JUMPDEST DUP1 PUSH1 0x0 JUMPDEST DUP4 DUP2 LT ISZERO PUSH2 0x383 JUMPI DUP2 MLOAD PUSH2 0x36A DUP9 DUP3 PUSH2 0x30D JUMP JUMPDEST SWAP8 POP PUSH2 0x375 DUP4 PUSH2 0x325 JUMP JUMPDEST SWAP3 POP POP PUSH1 0x1 DUP2 ADD SWAP1 POP PUSH2 0x356 JUMP JUMPDEST POP DUP6 SWAP4 POP POP POP POP SWAP3 SWAP2 POP POP JUMP JUMPDEST PUSH1 0x0 PUSH1 0x20 DUP3 ADD SWAP1 POP DUP2 DUP2 SUB PUSH1 0x0 DUP4 ADD MSTORE PUSH2 0x3AA DUP2 DUP5 PUSH2 0x332 JUMP JUMPDEST SWAP1 POP SWAP3 SWAP2 POP POP JUMP JUMPDEST PUSH2 0x3BB DUP2 PUSH2 0x2F4 JUMP JUMPDEST DUP3 MSTORE POP POP JUMP JUMPDEST PUSH1 0x0 DUP2 ISZERO ISZERO SWAP1 POP SWAP2 SWAP1 POP JUMP JUMPDEST PUSH2 0x3D6 DUP2 PUSH2 0x3C1 JUMP JUMPDEST DUP3 MSTORE POP POP JUMP JUMPDEST PUSH1 0x0 PUSH1 0x60 DUP3 ADD SWAP1 POP PUSH2 0x3F1 PUSH1 0x0 DUP4 ADD DUP7 PUSH2 0x3B2 JUMP JUMPDEST PUSH2 0x3FE PUSH1 0x20 DUP4 ADD DUP6 PUSH2 0x3CD JUMP JUMPDEST PUSH2 0x40B PUSH1 0x40 DUP4 ADD DUP5 PUSH2 0x3B2 JUMP JUMPDEST SWAP5 SWAP4 POP POP POP POP JUMP JUMPDEST PUSH1 0x0 PUSH1 0xA0 DUP3 ADD SWAP1 POP PUSH2 0x428 PUSH1 0x0 DUP4 ADD DUP9 PUSH2 0x3B2 JUMP JUMPDEST PUSH2 0x435 PUSH1 0x20 DUP4 ADD DUP8 PUSH2 0x3CD JUMP JUMPDEST PUSH2 0x442 PUSH1 0x40 DUP4 ADD DUP7 PUSH2 0x3B2 JUMP JUMPDEST PUSH2 0x44F PUSH1 0x60 DUP4 ADD DUP6 PUSH2 0x3B2 JUMP JUMPDEST PUSH2 0x45C PUSH1 0x80 DUP4 ADD DUP5 PUSH2 0x3B2 JUMP JUMPDEST SWAP7 SWAP6 POP POP POP POP POP POP JUMP JUMPDEST PUSH1 0x0 PUSH1 0x40 MLOAD SWAP1 POP SWAP1 JUMP JUMPDEST PUSH1 0x0 DUP1 REVERT JUMPDEST PUSH1 0x0 DUP1 REVERT JUMPDEST PUSH2 0x483 DUP2 PUSH2 0x2F4 JUMP JUMPDEST DUP2 EQ PUSH2 0x48E JUMPI PUSH1 0x0 DUP1 REVERT JUMPDEST POP JUMP JUMPDEST PUSH1 0x0 DUP2 CALLDATALOAD SWAP1 POP PUSH2 0x4A0 DUP2 PUSH2 0x47A JUMP JUMPDEST SWAP3 SWAP2 POP POP JUMP JUMPDEST PUSH1 0x0 PUSH1 0x20 DUP3 DUP5 SUB SLT ISZERO PUSH2 0x4BC JUMPI PUSH2 0x4BB PUSH2 0x470 JUMP JUMPDEST JUMPDEST PUSH1 0x0 PUSH2 0x4CA DUP5 DUP3 DUP6 ADD PUSH2 0x491 JUMP JUMPDEST SWAP2 POP POP SWAP3 SWAP2 POP POP JUMP JUMPDEST PUSH1 0x0 PUSH1 0x20 DUP3 ADD SWAP1 POP PUSH2 0x4E8 PUSH1 0x0 DUP4 ADD DUP5 PUSH2 0x3B2 JUMP JUMPDEST SWAP3 SWAP2 POP POP JUMP JUMPDEST PUSH1 0x0 DUP2 PUSH1 0x0 SIGNEXTEND SWAP1 POP SWAP2 SWAP1 POP JUMP JUMPDEST PUSH2 0x504 DUP2 PUSH2 0x4EE JUMP JUMPDEST DUP3 MSTORE POP POP JUMP JUMPDEST PUSH1 0x0 PUSH1 0x40 DUP3 ADD SWAP1 POP PUSH2 0x51F PUSH1 0x0 DUP4 ADD DUP6 PUSH2 0x4FB JUMP JUMPDEST PUSH2 0x52C PUSH1 0x20 DUP4 ADD DUP5 PUSH2 0x3CD JUMP JUMPDEST SWAP4 SWAP3 POP POP POP JUMP JUMPDEST PUSH1 0x0 DUP1 REVERT JUMPDEST PUSH1 0x0 PUSH1 0x1F NOT PUSH1 0x1F DUP4 ADD AND SWAP1 POP SWAP2 SWAP1 POP JUMP JUMPDEST PUSH32 0x4E487B7100000000000000000000000000000000000000000000000000000000 PUSH1 0x0 MSTORE PUSH1 0x41 PUSH1 0x4 MSTORE PUSH1 0x24 PUSH1 0x0 REVERT JUMPDEST PUSH2 0x581 DUP3 PUSH2 0x538 JUMP JUMPDEST DUP2 ADD DUP2 DUP2 LT PUSH8 0xFFFFFFFFFFFFFFFF DUP3 GT OR ISZERO PUSH2 0x5A0 JUMPI PUSH2 0x59F PUSH2 0x549 JUMP JUMPDEST JUMPDEST DUP1 PUSH1 0x40 MSTORE POP POP POP JUMP JUMPDEST PUSH1 0x0 PUSH2 0x5B3 PUSH2 0x466 JUMP JUMPDEST SWAP1 POP PUSH2 0x5BF DUP3 DUP3 PUSH2 0x578 JUMP JUMPDEST SWAP2 SWAP1 POP JUMP JUMPDEST PUSH1 0x0 PUSH8 0xFFFFFFFFFFFFFFFF DUP3 GT ISZERO PUSH2 0x5DF JUMPI PUSH2 0x5DE PUSH2 0x549 JUMP JUMPDEST JUMPDEST PUSH1 0x20 DUP3 MUL SWAP1 POP PUSH1 0x20 DUP2 ADD SWAP1 POP SWAP2 SWAP1 POP JUMP JUMPDEST PUSH1 0x0 DUP1 REVERT JUMPDEST PUSH1 0x0 PUSH2 0x608 PUSH2 0x603 DUP5 PUSH2 0x5C4 JUMP JUMPDEST PUSH2 0x5A9 JUMP JUMPDEST SWAP1 POP DUP1 DUP4 DUP3 MSTORE PUSH1 0x20 DUP3 ADD SWAP1 POP PUSH1 0x20 DUP5 MUL DUP4 ADD DUP6 DUP2 GT ISZERO PUSH2 0x62B JUMPI PUSH2 0x62A PUSH2 0x5F0 JUMP JUMPDEST JUMPDEST DUP4 JUMPDEST DUP2 DUP2 LT ISZERO PUSH2 0x654 JUMPI DUP1 PUSH2 0x640 DUP9 DUP3 PUSH2 0x491 JUMP JUMPDEST DUP5 MSTORE PUSH1 0x20 DUP5 ADD SWAP4 POP POP PUSH1 0x20 DUP2 ADD SWAP1 POP PUSH2 0x62D JUMP JUMPDEST POP POP POP SWAP4 SWAP3 POP POP POP JUMP JUMPDEST PUSH1 0x0 DUP3 PUSH1 0x1F DUP4 ADD SLT PUSH2 0x673 JUMPI PUSH2 0x672 PUSH2 0x533 JUMP JUMPDEST JUMPDEST DUP2 CALLDATALOAD PUSH2 0x683 DUP5 DUP3 PUSH1 0x20 DUP7 ADD PUSH2 0x5F5 JUMP JUMPDEST SWAP2 POP POP SWAP3 SWAP2 POP POP JUMP JUMPDEST PUSH1 0x0 PUSH1 0x20 DUP3 DUP5 SUB SLT ISZERO PUSH2 0x6A2 JUMPI PUSH2 0x6A1 PUSH2 0x470 JUMP JUMPDEST JUMPDEST PUSH1 0x0 DUP3 ADD CALLDATALOAD PUSH8 0xFFFFFFFFFFFFFFFF DUP2 GT ISZERO PUSH2 0x6C0 JUMPI PUSH2 0x6BF PUSH2 0x475 JUMP JUMPDEST JUMPDEST PUSH2 0x6CC DUP5 DUP3 DUP6 ADD PUSH2 0x65E JUMP JUMPDEST SWAP2 POP POP SWAP3 SWAP2 POP POP JUMP INVALID LOG2 PUSH5 0x6970667358 0x22 SLT KECCAK256 PUSH20 0x1581E9966F793A7BAF58104B58806AC052701409 0xE7 0xC3 0xC SWAP15 CALL SWAP16 PUSH22 0x968CB5BD64736F6C6343000812003300000000000000 "
				},
				"gasEstimates": {
					"creation": {
						"codeDepositCost": "360600",
						"executionCost": "399",
						"totalCost": "360999"
					},
					"external": {
						"arr(uint256)": "infinite",
						"arrayInput(uint256[])": "infinite",
						"arrayOutput()": "infinite",
						"assigned()": "infinite",
						"destructingAssigments()": "infinite",
						"named()": "infinite",
						"returnMany()": "infinite",
						"returnTwo()": "487"
					}
				},
				"methodIdentifiers": {
					"arr(uint256)": "71e5ee5f",
					"arrayInput(uint256[])": "f4bb6e6b",
					"arrayOutput()": "1990532b",
					"assigned()": "adb4d990",
					"destructingAssigments()": "53a6aadb",
					"named()": "45f907a8",
					"returnMany()": "86887544",
					"returnTwo()": "946e182c"
				}
			},
			"storageLayout": {
				"storage": [
					{
						"astId": 102,
						"contract": ".learneth/Solidity Beginner Course/5.4 Functions - Inputs and Outputs/inputsAndOutputs.sol:Function",
						"label": "arr",
						"offset": 0,
						"slot": "0",
						"type": "t_array(t_uint256)dyn_storage"
					}
				],
				"types": {
					"t_array(t_uint256)dyn_storage": {
						"base": "t_uint256",
						"encoding": "dynamic_array",
						"label": "uint256[]",
						"numberOfBytes": "32"
					},
					"t_uint256": {
						"encoding": "inplace",
						"label": "uint256",
						"numberOfBytes": "32"
					}
				}
			},
			"userdoc": {
				"kind": "user",
				"methods": {},
				"version": 1
			}
		}
	}
}