{
	".learneth/Solidity Beginner Course/3. Primitive Data Types/primitiveDataTypes.sol": {
		"Primitives": {
			"abi": [
				{
					"inputs": [],
					"name": "addr",
					"outputs": [
						{
							"internalType": "address",
							"name": "",
							"type": "address"
						}
					],
					"stateMutability": "view",
					"type": "function"
				},
				{
					"inputs": [],
					"name": "boo",
					"outputs": [
						{
							"internalType": "bool",
							"name": "",
							"type": "bool"
						}
					],
					"stateMutability": "view",
					"type": "function"
				},
				{
					"inputs": [],
					"name": "defaultAddr",
					"outputs": [
						{
							"internalType": "address",
							"name": "",
							"type": "address"
						}
					],
					"stateMutability": "view",
					"type": "function"
				},
				{
					"inputs": [],
					"name": "defaultBoo",
					"outputs": [
						{
							"internalType": "bool",
							"name": "",
							"type": "bool"
						}
					],
					"stateMutability": "view",
					"type": "function"
				},
				{
					"inputs": [],
					"name": "defaultInt",
					"outputs": [
						{
							"internalType": "int256",
							"name": "",
							"type": "int256"
						}
					],
					"stateMutability": "view",
					"type": "function"
				},
				{
					"inputs": [],
					"name": "defaultUint",
					"outputs": [
						{
							"internalType": "uint256",
							"name": "",
							"type": "uint256"
						}
					],
					"stateMutability": "view",
					"type": "function"
				},
				{
					"inputs": [],
					"name": "i",
					"outputs": [
						{
							"internalType": "int256",
							"name": "",
							"type": "int256"
						}
					],
					"stateMutability": "view",
					"type": "function"
				},
				{
					"inputs": [],
					"name": "i256",
					"outputs": [
						{
							"internalType": "int256",
							"name": "",
							"type": "int256"
						}
					],
					"stateMutability": "view",
					"type": "function"
				},
				{
					"inputs": [],
					"name": "i8",
					"outputs": [
						{
							"internalType": "int8",
							"name": "",
							"type": "int8"
						}
					],
					"stateMutability": "view",
					"type": "function"
				},
				{
					"inputs": [],
					"name": "neg",
					"outputs": [
						{
							"internalType": "int8",
							"name": "",
							"type": "int8"
						}
					],
					"stateMutability": "view",
					"type": "function"
				},
				{
					"inputs": [],
					"name": "newAddr",
					"outputs": [
						{
							"internalType": "address",
							"name": "",
							"type": "address"
						}
					],
					"stateMutability": "view",
					"type": "function"
				},
				{
					"inputs": [],
					"name": "newU",
					"outputs": [
						{
							"internalType": "uint8",
							"name": "",
							"type": "uint8"
						}
					],
					"stateMutability": "view",
					"type": "function"
				},
				{
					"inputs": [],
					"name": "u",
					"outputs": [
						{
							"internalType": "uint256",
							"name": "",
							"type": "uint256"
						}
					],
					"stateMutability": "view",
					"type": "function"
				},
				{
					"inputs": [],
					"name": "u256",
					"outputs": [
						{
							"internalType": "uint256",
							"name": "",
							"type": "uint256"
						}
					],
					"stateMutability": "view",
					"type": "function"
				},
				{
					"inputs": [],
					"name": "u8",
					"outputs": [
						{
							"internalType": "uint8",
							"name": "",
							"type": "uint8"
						}
					],
					"stateMutability": "view",
					"type": "function"
				}
			],
			"devdoc": {
				"kind": "dev",
				"methods": {},
				"version": 1
			},
			"evm": {
				"assembly": "    /* \".learneth/Solidity Beginner Course/3. Primitive Data Types/primitiveDataTypes.sol\":57:1165  contract Primitives {... */\n  mstore(0x40, 0x80)\n    /* \".learneth/Solidity Beginner Course/3. Primitive Data Types/primitiveDataTypes.sol\":109:151  0xCA35b7d915458EF540aDe6068dFe2F44E8fa733c */\n  0xca35b7d915458ef540ade6068dfe2f44e8fa733c\n    /* \".learneth/Solidity Beginner Course/3. Primitive Data Types/primitiveDataTypes.sol\":83:151  address public newAddr =  0xCA35b7d915458EF540aDe6068dFe2F44E8fa733c */\n  0x00\n  dup1\n  0x0100\n  exp\n  dup2\n  sload\n  dup2\n  0xffffffffffffffffffffffffffffffffffffffff\n  mul\n  not\n  and\n  swap1\n  dup4\n  0xffffffffffffffffffffffffffffffffffffffff\n  and\n  mul\n  or\n  swap1\n  sstore\n  pop\n    /* \".learneth/Solidity Beginner Course/3. Primitive Data Types/primitiveDataTypes.sol\":175:177  -1 */\n  0xffffffffffffffffffffffffffffffffffffffffffffffffffffffffffffffff\n    /* \".learneth/Solidity Beginner Course/3. Primitive Data Types/primitiveDataTypes.sol\":157:177  int8 public neg = -1 */\n  0x00\n  exp(0x0100, 0x14)\n  dup2\n  sload\n  dup2\n  0xff\n  mul\n  not\n  and\n  swap1\n  dup4\n  0x00\n  signextend\n  0xff\n  and\n  mul\n  or\n  swap1\n  sstore\n  pop\n    /* \".learneth/Solidity Beginner Course/3. Primitive Data Types/primitiveDataTypes.sol\":203:204  0 */\n  0x00\n    /* \".learneth/Solidity Beginner Course/3. Primitive Data Types/primitiveDataTypes.sol\":183:204  uint8 public newU = 0 */\n  dup1\n  exp(0x0100, 0x15)\n  dup2\n  sload\n  dup2\n  0xff\n  mul\n  not\n  and\n  swap1\n  dup4\n  0xff\n  and\n  mul\n  or\n  swap1\n  sstore\n  pop\n    /* \".learneth/Solidity Beginner Course/3. Primitive Data Types/primitiveDataTypes.sol\":229:233  true */\n  0x01\n    /* \".learneth/Solidity Beginner Course/3. Primitive Data Types/primitiveDataTypes.sol\":211:233  bool public boo = true */\n  0x00\n  exp(0x0100, 0x16)\n  dup2\n  sload\n  dup2\n  0xff\n  mul\n  not\n  and\n  swap1\n  dup4\n  iszero\n  iszero\n  mul\n  or\n  swap1\n  sstore\n  pop\n    /* \".learneth/Solidity Beginner Course/3. Primitive Data Types/primitiveDataTypes.sol\":521:522  1 */\n  0x01\n    /* \".learneth/Solidity Beginner Course/3. Primitive Data Types/primitiveDataTypes.sol\":503:522  uint8 public u8 = 1 */\n  0x00\n  exp(0x0100, 0x17)\n  dup2\n  sload\n  dup2\n  0xff\n  mul\n  not\n  and\n  swap1\n  dup4\n  0xff\n  and\n  mul\n  or\n  swap1\n  sstore\n  pop\n    /* \".learneth/Solidity Beginner Course/3. Primitive Data Types/primitiveDataTypes.sol\":547:550  456 */\n  0x01c8\n    /* \".learneth/Solidity Beginner Course/3. Primitive Data Types/primitiveDataTypes.sol\":528:550  uint public u256 = 456 */\n  0x01\n  sstore\n    /* \".learneth/Solidity Beginner Course/3. Primitive Data Types/primitiveDataTypes.sol\":572:575  123 */\n  0x7b\n    /* \".learneth/Solidity Beginner Course/3. Primitive Data Types/primitiveDataTypes.sol\":556:575  uint public u = 123 */\n  0x02\n  sstore\n    /* \".learneth/Solidity Beginner Course/3. Primitive Data Types/primitiveDataTypes.sol\":759:761  -1 */\n  0xffffffffffffffffffffffffffffffffffffffffffffffffffffffffffffffff\n    /* \".learneth/Solidity Beginner Course/3. Primitive Data Types/primitiveDataTypes.sol\":742:761  int8 public i8 = -1 */\n  0x03\n  exp(0x0100, 0x00)\n  dup2\n  sload\n  dup2\n  0xff\n  mul\n  not\n  and\n  swap1\n  dup4\n  0x00\n  signextend\n  0xff\n  and\n  mul\n  or\n  swap1\n  sstore\n  pop\n    /* \".learneth/Solidity Beginner Course/3. Primitive Data Types/primitiveDataTypes.sol\":785:788  456 */\n  0x01c8\n    /* \".learneth/Solidity Beginner Course/3. Primitive Data Types/primitiveDataTypes.sol\":767:788  int public i256 = 456 */\n  0x04\n  sstore\n    /* \".learneth/Solidity Beginner Course/3. Primitive Data Types/primitiveDataTypes.sol\":809:813  -123 */\n  0xffffffffffffffffffffffffffffffffffffffffffffffffffffffffffffff85\n    /* \".learneth/Solidity Beginner Course/3. Primitive Data Types/primitiveDataTypes.sol\":794:813  int public i = -123 */\n  0x05\n  sstore\n    /* \".learneth/Solidity Beginner Course/3. Primitive Data Types/primitiveDataTypes.sol\":867:909  0xCA35b7d915458EF540aDe6068dFe2F44E8fa733c */\n  0xca35b7d915458ef540ade6068dfe2f44e8fa733c\n    /* \".learneth/Solidity Beginner Course/3. Primitive Data Types/primitiveDataTypes.sol\":845:909  address public addr = 0xCA35b7d915458EF540aDe6068dFe2F44E8fa733c */\n  0x06\n  exp(0x0100, 0x00)\n  dup2\n  sload\n  dup2\n  0xffffffffffffffffffffffffffffffffffffffff\n  mul\n  not\n  and\n  swap1\n  dup4\n  0xffffffffffffffffffffffffffffffffffffffff\n  and\n  mul\n  or\n  swap1\n  sstore\n  pop\n    /* \".learneth/Solidity Beginner Course/3. Primitive Data Types/primitiveDataTypes.sol\":57:1165  contract Primitives {... */\n  callvalue\n  dup1\n  iszero\n  tag_1\n  jumpi\n  0x00\n  dup1\n  revert\ntag_1:\n  pop\n  dataSize(sub_0)\n  dup1\n  dataOffset(sub_0)\n  0x00\n  codecopy\n  0x00\n  return\nstop\n\nsub_0: assembly {\n        /* \".learneth/Solidity Beginner Course/3. Primitive Data Types/primitiveDataTypes.sol\":57:1165  contract Primitives {... */\n      mstore(0x40, 0x80)\n      callvalue\n      dup1\n      iszero\n      tag_1\n      jumpi\n      0x00\n      dup1\n      revert\n    tag_1:\n      pop\n      jumpi(tag_2, lt(calldatasize, 0x04))\n      shr(0xe0, calldataload(0x00))\n      dup1\n      0x6a76e307\n      gt\n      tag_18\n      jumpi\n      dup1\n      0xab3a58a3\n      gt\n      tag_19\n      jumpi\n      dup1\n      0xab3a58a3\n      eq\n      tag_14\n      jumpi\n      dup1\n      0xc6a898c5\n      eq\n      tag_15\n      jumpi\n      dup1\n      0xe5aa3d58\n      eq\n      tag_16\n      jumpi\n      dup1\n      0xf2427d37\n      eq\n      tag_17\n      jumpi\n      jump(tag_2)\n    tag_19:\n      dup1\n      0x6a76e307\n      eq\n      tag_10\n      jumpi\n      dup1\n      0x767800de\n      eq\n      tag_11\n      jumpi\n      dup1\n      0x78063b1f\n      eq\n      tag_12\n      jumpi\n      dup1\n      0x921cda74\n      eq\n      tag_13\n      jumpi\n      jump(tag_2)\n    tag_18:\n      dup1\n      0x459b1acf\n      gt\n      tag_20\n      jumpi\n      dup1\n      0x459b1acf\n      eq\n      tag_6\n      jumpi\n      dup1\n      0x4b3df200\n      eq\n      tag_7\n      jumpi\n      dup1\n      0x4c27fd62\n      eq\n      tag_8\n      jumpi\n      dup1\n      0x5abe622b\n      eq\n      tag_9\n      jumpi\n      jump(tag_2)\n    tag_20:\n      dup1\n      0x074eef3f\n      eq\n      tag_3\n      jumpi\n      dup1\n      0x149d8ffc\n      eq\n      tag_4\n      jumpi\n      dup1\n      0x1570c2cb\n      eq\n      tag_5\n      jumpi\n    tag_2:\n      0x00\n      dup1\n      revert\n        /* \".learneth/Solidity Beginner Course/3. Primitive Data Types/primitiveDataTypes.sol\":987:1009  bool public defaultBoo */\n    tag_3:\n      tag_21\n      tag_22\n      jump\t// in\n    tag_21:\n      mload(0x40)\n      tag_23\n      swap2\n      swap1\n      tag_24\n      jump\t// in\n    tag_23:\n      mload(0x40)\n      dup1\n      swap2\n      sub\n      swap1\n      return\n        /* \".learneth/Solidity Beginner Course/3. Primitive Data Types/primitiveDataTypes.sol\":183:204  uint8 public newU = 0 */\n    tag_4:\n      tag_25\n      tag_26\n      jump\t// in\n    tag_25:\n      mload(0x40)\n      tag_27\n      swap2\n      swap1\n      tag_28\n      jump\t// in\n    tag_27:\n      mload(0x40)\n      dup1\n      swap2\n      sub\n      swap1\n      return\n        /* \".learneth/Solidity Beginner Course/3. Primitive Data Types/primitiveDataTypes.sol\":1024:1047  uint public defaultUint */\n    tag_5:\n      tag_29\n      tag_30\n      jump\t// in\n    tag_29:\n      mload(0x40)\n      tag_31\n      swap2\n      swap1\n      tag_32\n      jump\t// in\n    tag_31:\n      mload(0x40)\n      dup1\n      swap2\n      sub\n      swap1\n      return\n        /* \".learneth/Solidity Beginner Course/3. Primitive Data Types/primitiveDataTypes.sol\":528:550  uint public u256 = 456 */\n    tag_6:\n      tag_33\n      tag_34\n      jump\t// in\n    tag_33:\n      mload(0x40)\n      tag_35\n      swap2\n      swap1\n      tag_32\n      jump\t// in\n    tag_35:\n      mload(0x40)\n      dup1\n      swap2\n      sub\n      swap1\n      return\n        /* \".learneth/Solidity Beginner Course/3. Primitive Data Types/primitiveDataTypes.sol\":211:233  bool public boo = true */\n    tag_7:\n      tag_36\n      tag_37\n      jump\t// in\n    tag_36:\n      mload(0x40)\n      tag_38\n      swap2\n      swap1\n      tag_24\n      jump\t// in\n    tag_38:\n      mload(0x40)\n      dup1\n      swap2\n      sub\n      swap1\n      return\n        /* \".learneth/Solidity Beginner Course/3. Primitive Data Types/primitiveDataTypes.sol\":767:788  int public i256 = 456 */\n    tag_8:\n      tag_39\n      tag_40\n      jump\t// in\n    tag_39:\n      mload(0x40)\n      tag_41\n      swap2\n      swap1\n      tag_42\n      jump\t// in\n    tag_41:\n      mload(0x40)\n      dup1\n      swap2\n      sub\n      swap1\n      return\n        /* \".learneth/Solidity Beginner Course/3. Primitive Data Types/primitiveDataTypes.sol\":1058:1079  int public defaultInt */\n    tag_9:\n      tag_43\n      tag_44\n      jump\t// in\n    tag_43:\n      mload(0x40)\n      tag_45\n      swap2\n      swap1\n      tag_42\n      jump\t// in\n    tag_45:\n      mload(0x40)\n      dup1\n      swap2\n      sub\n      swap1\n      return\n        /* \".learneth/Solidity Beginner Course/3. Primitive Data Types/primitiveDataTypes.sol\":83:151  address public newAddr =  0xCA35b7d915458EF540aDe6068dFe2F44E8fa733c */\n    tag_10:\n      tag_46\n      tag_47\n      jump\t// in\n    tag_46:\n      mload(0x40)\n      tag_48\n      swap2\n      swap1\n      tag_49\n      jump\t// in\n    tag_48:\n      mload(0x40)\n      dup1\n      swap2\n      sub\n      swap1\n      return\n        /* \".learneth/Solidity Beginner Course/3. Primitive Data Types/primitiveDataTypes.sol\":845:909  address public addr = 0xCA35b7d915458EF540aDe6068dFe2F44E8fa733c */\n    tag_11:\n      tag_50\n      tag_51\n      jump\t// in\n    tag_50:\n      mload(0x40)\n      tag_52\n      swap2\n      swap1\n      tag_49\n      jump\t// in\n    tag_52:\n      mload(0x40)\n      dup1\n      swap2\n      sub\n      swap1\n      return\n        /* \".learneth/Solidity Beginner Course/3. Primitive Data Types/primitiveDataTypes.sol\":157:177  int8 public neg = -1 */\n    tag_12:\n      tag_53\n      tag_54\n      jump\t// in\n    tag_53:\n      mload(0x40)\n      tag_55\n      swap2\n      swap1\n      tag_56\n      jump\t// in\n    tag_55:\n      mload(0x40)\n      dup1\n      swap2\n      sub\n      swap1\n      return\n        /* \".learneth/Solidity Beginner Course/3. Primitive Data Types/primitiveDataTypes.sol\":742:761  int8 public i8 = -1 */\n    tag_13:\n      tag_57\n      tag_58\n      jump\t// in\n    tag_57:\n      mload(0x40)\n      tag_59\n      swap2\n      swap1\n      tag_56\n      jump\t// in\n    tag_59:\n      mload(0x40)\n      dup1\n      swap2\n      sub\n      swap1\n      return\n        /* \".learneth/Solidity Beginner Course/3. Primitive Data Types/primitiveDataTypes.sol\":503:522  uint8 public u8 = 1 */\n    tag_14:\n      tag_60\n      tag_61\n      jump\t// in\n    tag_60:\n      mload(0x40)\n      tag_62\n      swap2\n      swap1\n      tag_28\n      jump\t// in\n    tag_62:\n      mload(0x40)\n      dup1\n      swap2\n      sub\n      swap1\n      return\n        /* \".learneth/Solidity Beginner Course/3. Primitive Data Types/primitiveDataTypes.sol\":556:575  uint public u = 123 */\n    tag_15:\n      tag_63\n      tag_64\n      jump\t// in\n    tag_63:\n      mload(0x40)\n      tag_65\n      swap2\n      swap1\n      tag_32\n      jump\t// in\n    tag_65:\n      mload(0x40)\n      dup1\n      swap2\n      sub\n      swap1\n      return\n        /* \".learneth/Solidity Beginner Course/3. Primitive Data Types/primitiveDataTypes.sol\":794:813  int public i = -123 */\n    tag_16:\n      tag_66\n      tag_67\n      jump\t// in\n    tag_66:\n      mload(0x40)\n      tag_68\n      swap2\n      swap1\n      tag_42\n      jump\t// in\n    tag_68:\n      mload(0x40)\n      dup1\n      swap2\n      sub\n      swap1\n      return\n        /* \".learneth/Solidity Beginner Course/3. Primitive Data Types/primitiveDataTypes.sol\":1090:1116  address public defaultAddr */\n    tag_17:\n      tag_69\n      tag_70\n      jump\t// in\n    tag_69:\n      mload(0x40)\n      tag_71\n      swap2\n      swap1\n      tag_49\n      jump\t// in\n    tag_71:\n      mload(0x40)\n      dup1\n      swap2\n      sub\n      swap1\n      return\n        /* \".learneth/Solidity Beginner Course/3. Primitive Data Types/primitiveDataTypes.sol\":987:1009  bool public defaultBoo */\n    tag_22:\n      0x06\n      0x14\n      swap1\n      sload\n      swap1\n      0x0100\n      exp\n      swap1\n      div\n      0xff\n      and\n      dup2\n      jump\t// out\n        /* \".learneth/Solidity Beginner Course/3. Primitive Data Types/primitiveDataTypes.sol\":183:204  uint8 public newU = 0 */\n    tag_26:\n      0x00\n      0x15\n      swap1\n      sload\n      swap1\n      0x0100\n      exp\n      swap1\n      div\n      0xff\n      and\n      dup2\n      jump\t// out\n        /* \".learneth/Solidity Beginner Course/3. Primitive Data Types/primitiveDataTypes.sol\":1024:1047  uint public defaultUint */\n    tag_30:\n      sload(0x07)\n      dup2\n      jump\t// out\n        /* \".learneth/Solidity Beginner Course/3. Primitive Data Types/primitiveDataTypes.sol\":528:550  uint public u256 = 456 */\n    tag_34:\n      sload(0x01)\n      dup2\n      jump\t// out\n        /* \".learneth/Solidity Beginner Course/3. Primitive Data Types/primitiveDataTypes.sol\":211:233  bool public boo = true */\n    tag_37:\n      0x00\n      0x16\n      swap1\n      sload\n      swap1\n      0x0100\n      exp\n      swap1\n      div\n      0xff\n      and\n      dup2\n      jump\t// out\n        /* \".learneth/Solidity Beginner Course/3. Primitive Data Types/primitiveDataTypes.sol\":767:788  int public i256 = 456 */\n    tag_40:\n      sload(0x04)\n      dup2\n      jump\t// out\n        /* \".learneth/Solidity Beginner Course/3. Primitive Data Types/primitiveDataTypes.sol\":1058:1079  int public defaultInt */\n    tag_44:\n      sload(0x08)\n      dup2\n      jump\t// out\n        /* \".learneth/Solidity Beginner Course/3. Primitive Data Types/primitiveDataTypes.sol\":83:151  address public newAddr =  0xCA35b7d915458EF540aDe6068dFe2F44E8fa733c */\n    tag_47:\n      0x00\n      dup1\n      sload\n      swap1\n      0x0100\n      exp\n      swap1\n      div\n      0xffffffffffffffffffffffffffffffffffffffff\n      and\n      dup2\n      jump\t// out\n        /* \".learneth/Solidity Beginner Course/3. Primitive Data Types/primitiveDataTypes.sol\":845:909  address public addr = 0xCA35b7d915458EF540aDe6068dFe2F44E8fa733c */\n    tag_51:\n      0x06\n      0x00\n      swap1\n      sload\n      swap1\n      0x0100\n      exp\n      swap1\n      div\n      0xffffffffffffffffffffffffffffffffffffffff\n      and\n      dup2\n      jump\t// out\n        /* \".learneth/Solidity Beginner Course/3. Primitive Data Types/primitiveDataTypes.sol\":157:177  int8 public neg = -1 */\n    tag_54:\n      0x00\n      0x14\n      swap1\n      sload\n      swap1\n      0x0100\n      exp\n      swap1\n      div\n      0x00\n      signextend\n      dup2\n      jump\t// out\n        /* \".learneth/Solidity Beginner Course/3. Primitive Data Types/primitiveDataTypes.sol\":742:761  int8 public i8 = -1 */\n    tag_58:\n      0x03\n      0x00\n      swap1\n      sload\n      swap1\n      0x0100\n      exp\n      swap1\n      div\n      0x00\n      signextend\n      dup2\n      jump\t// out\n        /* \".learneth/Solidity Beginner Course/3. Primitive Data Types/primitiveDataTypes.sol\":503:522  uint8 public u8 = 1 */\n    tag_61:\n      0x00\n      0x17\n      swap1\n      sload\n      swap1\n      0x0100\n      exp\n      swap1\n      div\n      0xff\n      and\n      dup2\n      jump\t// out\n        /* \".learneth/Solidity Beginner Course/3. Primitive Data Types/primitiveDataTypes.sol\":556:575  uint public u = 123 */\n    tag_64:\n      sload(0x02)\n      dup2\n      jump\t// out\n        /* \".learneth/Solidity Beginner Course/3. Primitive Data Types/primitiveDataTypes.sol\":794:813  int public i = -123 */\n    tag_67:\n      sload(0x05)\n      dup2\n      jump\t// out\n        /* \".learneth/Solidity Beginner Course/3. Primitive Data Types/primitiveDataTypes.sol\":1090:1116  address public defaultAddr */\n    tag_70:\n      0x09\n      0x00\n      swap1\n      sload\n      swap1\n      0x0100\n      exp\n      swap1\n      div\n      0xffffffffffffffffffffffffffffffffffffffff\n      and\n      dup2\n      jump\t// out\n        /* \"#utility.yul\":7:97   */\n    tag_72:\n        /* \"#utility.yul\":41:48   */\n      0x00\n        /* \"#utility.yul\":84:89   */\n      dup2\n        /* \"#utility.yul\":77:90   */\n      iszero\n        /* \"#utility.yul\":70:91   */\n      iszero\n        /* \"#utility.yul\":59:91   */\n      swap1\n      pop\n        /* \"#utility.yul\":7:97   */\n      swap2\n      swap1\n      pop\n      jump\t// out\n        /* \"#utility.yul\":103:212   */\n    tag_73:\n        /* \"#utility.yul\":184:205   */\n      tag_88\n        /* \"#utility.yul\":199:204   */\n      dup2\n        /* \"#utility.yul\":184:205   */\n      tag_72\n      jump\t// in\n    tag_88:\n        /* \"#utility.yul\":179:182   */\n      dup3\n        /* \"#utility.yul\":172:206   */\n      mstore\n        /* \"#utility.yul\":103:212   */\n      pop\n      pop\n      jump\t// out\n        /* \"#utility.yul\":218:428   */\n    tag_24:\n        /* \"#utility.yul\":305:309   */\n      0x00\n        /* \"#utility.yul\":343:345   */\n      0x20\n        /* \"#utility.yul\":332:341   */\n      dup3\n        /* \"#utility.yul\":328:346   */\n      add\n        /* \"#utility.yul\":320:346   */\n      swap1\n      pop\n        /* \"#utility.yul\":356:421   */\n      tag_90\n        /* \"#utility.yul\":418:419   */\n      0x00\n        /* \"#utility.yul\":407:416   */\n      dup4\n        /* \"#utility.yul\":403:420   */\n      add\n        /* \"#utility.yul\":394:400   */\n      dup5\n        /* \"#utility.yul\":356:421   */\n      tag_73\n      jump\t// in\n    tag_90:\n        /* \"#utility.yul\":218:428   */\n      swap3\n      swap2\n      pop\n      pop\n      jump\t// out\n        /* \"#utility.yul\":434:520   */\n    tag_74:\n        /* \"#utility.yul\":469:476   */\n      0x00\n        /* \"#utility.yul\":509:513   */\n      0xff\n        /* \"#utility.yul\":502:507   */\n      dup3\n        /* \"#utility.yul\":498:514   */\n      and\n        /* \"#utility.yul\":487:514   */\n      swap1\n      pop\n        /* \"#utility.yul\":434:520   */\n      swap2\n      swap1\n      pop\n      jump\t// out\n        /* \"#utility.yul\":526:638   */\n    tag_75:\n        /* \"#utility.yul\":609:631   */\n      tag_93\n        /* \"#utility.yul\":625:630   */\n      dup2\n        /* \"#utility.yul\":609:631   */\n      tag_74\n      jump\t// in\n    tag_93:\n        /* \"#utility.yul\":604:607   */\n      dup3\n        /* \"#utility.yul\":597:632   */\n      mstore\n        /* \"#utility.yul\":526:638   */\n      pop\n      pop\n      jump\t// out\n        /* \"#utility.yul\":644:858   */\n    tag_28:\n        /* \"#utility.yul\":733:737   */\n      0x00\n        /* \"#utility.yul\":771:773   */\n      0x20\n        /* \"#utility.yul\":760:769   */\n      dup3\n        /* \"#utility.yul\":756:774   */\n      add\n        /* \"#utility.yul\":748:774   */\n      swap1\n      pop\n        /* \"#utility.yul\":784:851   */\n      tag_95\n        /* \"#utility.yul\":848:849   */\n      0x00\n        /* \"#utility.yul\":837:846   */\n      dup4\n        /* \"#utility.yul\":833:850   */\n      add\n        /* \"#utility.yul\":824:830   */\n      dup5\n        /* \"#utility.yul\":784:851   */\n      tag_75\n      jump\t// in\n    tag_95:\n        /* \"#utility.yul\":644:858   */\n      swap3\n      swap2\n      pop\n      pop\n      jump\t// out\n        /* \"#utility.yul\":864:941   */\n    tag_76:\n        /* \"#utility.yul\":901:908   */\n      0x00\n        /* \"#utility.yul\":930:935   */\n      dup2\n        /* \"#utility.yul\":919:935   */\n      swap1\n      pop\n        /* \"#utility.yul\":864:941   */\n      swap2\n      swap1\n      pop\n      jump\t// out\n        /* \"#utility.yul\":947:1065   */\n    tag_77:\n        /* \"#utility.yul\":1034:1058   */\n      tag_98\n        /* \"#utility.yul\":1052:1057   */\n      dup2\n        /* \"#utility.yul\":1034:1058   */\n      tag_76\n      jump\t// in\n    tag_98:\n        /* \"#utility.yul\":1029:1032   */\n      dup3\n        /* \"#utility.yul\":1022:1059   */\n      mstore\n        /* \"#utility.yul\":947:1065   */\n      pop\n      pop\n      jump\t// out\n        /* \"#utility.yul\":1071:1293   */\n    tag_32:\n        /* \"#utility.yul\":1164:1168   */\n      0x00\n        /* \"#utility.yul\":1202:1204   */\n      0x20\n        /* \"#utility.yul\":1191:1200   */\n      dup3\n        /* \"#utility.yul\":1187:1205   */\n      add\n        /* \"#utility.yul\":1179:1205   */\n      swap1\n      pop\n        /* \"#utility.yul\":1215:1286   */\n      tag_100\n        /* \"#utility.yul\":1283:1284   */\n      0x00\n        /* \"#utility.yul\":1272:1281   */\n      dup4\n        /* \"#utility.yul\":1268:1285   */\n      add\n        /* \"#utility.yul\":1259:1265   */\n      dup5\n        /* \"#utility.yul\":1215:1286   */\n      tag_77\n      jump\t// in\n    tag_100:\n        /* \"#utility.yul\":1071:1293   */\n      swap3\n      swap2\n      pop\n      pop\n      jump\t// out\n        /* \"#utility.yul\":1299:1375   */\n    tag_78:\n        /* \"#utility.yul\":1335:1342   */\n      0x00\n        /* \"#utility.yul\":1364:1369   */\n      dup2\n        /* \"#utility.yul\":1353:1369   */\n      swap1\n      pop\n        /* \"#utility.yul\":1299:1375   */\n      swap2\n      swap1\n      pop\n      jump\t// out\n        /* \"#utility.yul\":1381:1496   */\n    tag_79:\n        /* \"#utility.yul\":1466:1489   */\n      tag_103\n        /* \"#utility.yul\":1483:1488   */\n      dup2\n        /* \"#utility.yul\":1466:1489   */\n      tag_78\n      jump\t// in\n    tag_103:\n        /* \"#utility.yul\":1461:1464   */\n      dup3\n        /* \"#utility.yul\":1454:1490   */\n      mstore\n        /* \"#utility.yul\":1381:1496   */\n      pop\n      pop\n      jump\t// out\n        /* \"#utility.yul\":1502:1720   */\n    tag_42:\n        /* \"#utility.yul\":1593:1597   */\n      0x00\n        /* \"#utility.yul\":1631:1633   */\n      0x20\n        /* \"#utility.yul\":1620:1629   */\n      dup3\n        /* \"#utility.yul\":1616:1634   */\n      add\n        /* \"#utility.yul\":1608:1634   */\n      swap1\n      pop\n        /* \"#utility.yul\":1644:1713   */\n      tag_105\n        /* \"#utility.yul\":1710:1711   */\n      0x00\n        /* \"#utility.yul\":1699:1708   */\n      dup4\n        /* \"#utility.yul\":1695:1712   */\n      add\n        /* \"#utility.yul\":1686:1692   */\n      dup5\n        /* \"#utility.yul\":1644:1713   */\n      tag_79\n      jump\t// in\n    tag_105:\n        /* \"#utility.yul\":1502:1720   */\n      swap3\n      swap2\n      pop\n      pop\n      jump\t// out\n        /* \"#utility.yul\":1726:1852   */\n    tag_80:\n        /* \"#utility.yul\":1763:1770   */\n      0x00\n        /* \"#utility.yul\":1803:1845   */\n      0xffffffffffffffffffffffffffffffffffffffff\n        /* \"#utility.yul\":1796:1801   */\n      dup3\n        /* \"#utility.yul\":1792:1846   */\n      and\n        /* \"#utility.yul\":1781:1846   */\n      swap1\n      pop\n        /* \"#utility.yul\":1726:1852   */\n      swap2\n      swap1\n      pop\n      jump\t// out\n        /* \"#utility.yul\":1858:1954   */\n    tag_81:\n        /* \"#utility.yul\":1895:1902   */\n      0x00\n        /* \"#utility.yul\":1924:1948   */\n      tag_108\n        /* \"#utility.yul\":1942:1947   */\n      dup3\n        /* \"#utility.yul\":1924:1948   */\n      tag_80\n      jump\t// in\n    tag_108:\n        /* \"#utility.yul\":1913:1948   */\n      swap1\n      pop\n        /* \"#utility.yul\":1858:1954   */\n      swap2\n      swap1\n      pop\n      jump\t// out\n        /* \"#utility.yul\":1960:2078   */\n    tag_82:\n        /* \"#utility.yul\":2047:2071   */\n      tag_110\n        /* \"#utility.yul\":2065:2070   */\n      dup2\n        /* \"#utility.yul\":2047:2071   */\n      tag_81\n      jump\t// in\n    tag_110:\n        /* \"#utility.yul\":2042:2045   */\n      dup3\n        /* \"#utility.yul\":2035:2072   */\n      mstore\n        /* \"#utility.yul\":1960:2078   */\n      pop\n      pop\n      jump\t// out\n        /* \"#utility.yul\":2084:2306   */\n    tag_49:\n        /* \"#utility.yul\":2177:2181   */\n      0x00\n        /* \"#utility.yul\":2215:2217   */\n      0x20\n        /* \"#utility.yul\":2204:2213   */\n      dup3\n        /* \"#utility.yul\":2200:2218   */\n      add\n        /* \"#utility.yul\":2192:2218   */\n      swap1\n      pop\n        /* \"#utility.yul\":2228:2299   */\n      tag_112\n        /* \"#utility.yul\":2296:2297   */\n      0x00\n        /* \"#utility.yul\":2285:2294   */\n      dup4\n        /* \"#utility.yul\":2281:2298   */\n      add\n        /* \"#utility.yul\":2272:2278   */\n      dup5\n        /* \"#utility.yul\":2228:2299   */\n      tag_82\n      jump\t// in\n    tag_112:\n        /* \"#utility.yul\":2084:2306   */\n      swap3\n      swap2\n      pop\n      pop\n      jump\t// out\n        /* \"#utility.yul\":2312:2401   */\n    tag_83:\n        /* \"#utility.yul\":2346:2353   */\n      0x00\n        /* \"#utility.yul\":2389:2394   */\n      dup2\n        /* \"#utility.yul\":2386:2387   */\n      0x00\n        /* \"#utility.yul\":2375:2395   */\n      signextend\n        /* \"#utility.yul\":2364:2395   */\n      swap1\n      pop\n        /* \"#utility.yul\":2312:2401   */\n      swap2\n      swap1\n      pop\n      jump\t// out\n        /* \"#utility.yul\":2407:2516   */\n    tag_84:\n        /* \"#utility.yul\":2488:2509   */\n      tag_115\n        /* \"#utility.yul\":2503:2508   */\n      dup2\n        /* \"#utility.yul\":2488:2509   */\n      tag_83\n      jump\t// in\n    tag_115:\n        /* \"#utility.yul\":2483:2486   */\n      dup3\n        /* \"#utility.yul\":2476:2510   */\n      mstore\n        /* \"#utility.yul\":2407:2516   */\n      pop\n      pop\n      jump\t// out\n        /* \"#utility.yul\":2522:2732   */\n    tag_56:\n        /* \"#utility.yul\":2609:2613   */\n      0x00\n        /* \"#utility.yul\":2647:2649   */\n      0x20\n        /* \"#utility.yul\":2636:2645   */\n      dup3\n        /* \"#utility.yul\":2632:2650   */\n      add\n        /* \"#utility.yul\":2624:2650   */\n      swap1\n      pop\n        /* \"#utility.yul\":2660:2725   */\n      tag_117\n        /* \"#utility.yul\":2722:2723   */\n      0x00\n        /* \"#utility.yul\":2711:2720   */\n      dup4\n        /* \"#utility.yul\":2707:2724   */\n      add\n        /* \"#utility.yul\":2698:2704   */\n      dup5\n        /* \"#utility.yul\":2660:2725   */\n      tag_84\n      jump\t// in\n    tag_117:\n        /* \"#utility.yul\":2522:2732   */\n      swap3\n      swap2\n      pop\n      pop\n      jump\t// out\n\n    auxdata: 0xa2646970667358221220518d4c7b80c1f47bac2fb8b60f1bcf52f20d93111f5006873f9b5cfc02694acd64736f6c63430008120033\n}\n",
				"bytecode": {
					"linkReferences": {},
					"object": "608060405273ca35b7d915458ef540ade6068dfe2f44e8fa733c6000806101000a81548173ffffffffffffffffffffffffffffffffffffffff021916908373ffffffffffffffffffffffffffffffffffffffff1602179055507fffffffffffffffffffffffffffffffffffffffffffffffffffffffffffffffff600060146101000a81548160ff021916908360000b60ff16021790555060008060156101000a81548160ff021916908360ff1602179055506001600060166101000a81548160ff0219169083151502179055506001600060176101000a81548160ff021916908360ff1602179055506101c8600155607b6002557fffffffffffffffffffffffffffffffffffffffffffffffffffffffffffffffff600360006101000a81548160ff021916908360000b60ff1602179055506101c86004557fffffffffffffffffffffffffffffffffffffffffffffffffffffffffffffff8560055573ca35b7d915458ef540ade6068dfe2f44e8fa733c600660006101000a81548173ffffffffffffffffffffffffffffffffffffffff021916908373ffffffffffffffffffffffffffffffffffffffff1602179055503480156101bc57600080fd5b50610560806101cc6000396000f3fe608060405234801561001057600080fd5b50600436106100f55760003560e01c80636a76e30711610097578063ab3a58a311610066578063ab3a58a314610244578063c6a898c514610262578063e5aa3d5814610280578063f2427d371461029e576100f5565b80636a76e307146101cc578063767800de146101ea57806378063b1f14610208578063921cda7414610226576100f5565b8063459b1acf116100d3578063459b1acf146101545780634b3df200146101725780634c27fd62146101905780635abe622b146101ae576100f5565b8063074eef3f146100fa578063149d8ffc146101185780631570c2cb14610136575b600080fd5b6101026102bc565b60405161010f91906103dd565b60405180910390f35b6101206102cf565b60405161012d9190610414565b60405180910390f35b61013e6102e2565b60405161014b9190610448565b60405180910390f35b61015c6102e8565b6040516101699190610448565b60405180910390f35b61017a6102ee565b60405161018791906103dd565b60405180910390f35b610198610301565b6040516101a5919061047c565b60405180910390f35b6101b6610307565b6040516101c3919061047c565b60405180910390f35b6101d461030d565b6040516101e191906104d8565b60405180910390f35b6101f2610331565b6040516101ff91906104d8565b60405180910390f35b610210610357565b60405161021d919061050f565b60405180910390f35b61022e61036a565b60405161023b919061050f565b60405180910390f35b61024c61037d565b6040516102599190610414565b60405180910390f35b61026a610390565b6040516102779190610448565b60405180910390f35b610288610396565b604051610295919061047c565b60405180910390f35b6102a661039c565b6040516102b391906104d8565b60405180910390f35b600660149054906101000a900460ff1681565b600060159054906101000a900460ff1681565b60075481565b60015481565b600060169054906101000a900460ff1681565b60045481565b60085481565b60008054906101000a900473ffffffffffffffffffffffffffffffffffffffff1681565b600660009054906101000a900473ffffffffffffffffffffffffffffffffffffffff1681565b600060149054906101000a900460000b81565b600360009054906101000a900460000b81565b600060179054906101000a900460ff1681565b60025481565b60055481565b600960009054906101000a900473ffffffffffffffffffffffffffffffffffffffff1681565b60008115159050919050565b6103d7816103c2565b82525050565b60006020820190506103f260008301846103ce565b92915050565b600060ff82169050919050565b61040e816103f8565b82525050565b60006020820190506104296000830184610405565b92915050565b6000819050919050565b6104428161042f565b82525050565b600060208201905061045d6000830184610439565b92915050565b6000819050919050565b61047681610463565b82525050565b6000602082019050610491600083018461046d565b92915050565b600073ffffffffffffffffffffffffffffffffffffffff82169050919050565b60006104c282610497565b9050919050565b6104d2816104b7565b82525050565b60006020820190506104ed60008301846104c9565b92915050565b60008160000b9050919050565b610509816104f3565b82525050565b60006020820190506105246000830184610500565b9291505056fea2646970667358221220518d4c7b80c1f47bac2fb8b60f1bcf52f20d93111f5006873f9b5cfc02694acd64736f6c63430008120033",
					"opcodes": "PUSH1 0x80 PUSH1 0x40 MSTORE PUSH20 0xCA35B7D915458EF540ADE6068DFE2F44E8FA733C PUSH1 0x0 DUP1 PUSH2 0x100 EXP DUP2 SLOAD DUP2 PUSH20 0xFFFFFFFFFFFFFFFFFFFFFFFFFFFFFFFFFFFFFFFF MUL NOT AND SWAP1 DUP4 PUSH20 0xFFFFFFFFFFFFFFFFFFFFFFFFFFFFFFFFFFFFFFFF AND MUL OR SWAP1 SSTORE POP PUSH32 0xFFFFFFFFFFFFFFFFFFFFFFFFFFFFFFFFFFFFFFFFFFFFFFFFFFFFFFFFFFFFFFFF PUSH1 0x0 PUSH1 0x14 PUSH2 0x100 EXP DUP2 SLOAD DUP2 PUSH1 0xFF MUL NOT AND SWAP1 DUP4 PUSH1 0x0 SIGNEXTEND PUSH1 0xFF AND MUL OR SWAP1 SSTORE POP PUSH1 0x0 DUP1 PUSH1 0x15 PUSH2 0x100 EXP DUP2 SLOAD DUP2 PUSH1 0xFF MUL NOT AND SWAP1 DUP4 PUSH1 0xFF AND MUL OR SWAP1 SSTORE POP PUSH1 0x1 PUSH1 0x0 PUSH1 0x16 PUSH2 0x100 EXP DUP2 SLOAD DUP2 PUSH1 0xFF MUL NOT AND SWAP1 DUP4 ISZERO ISZERO MUL OR SWAP1 SSTORE POP PUSH1 0x1 PUSH1 0x0 PUSH1 0x17 PUSH2 0x100 EXP DUP2 SLOAD DUP2 PUSH1 0xFF MUL NOT AND SWAP1 DUP4 PUSH1 0xFF AND MUL OR SWAP1 SSTORE POP PUSH2 0x1C8 PUSH1 0x1 SSTORE PUSH1 0x7B PUSH1 0x2 SSTORE PUSH32 0xFFFFFFFFFFFFFFFFFFFFFFFFFFFFFFFFFFFFFFFFFFFFFFFFFFFFFFFFFFFFFFFF PUSH1 0x3 PUSH1 0x0 PUSH2 0x100 EXP DUP2 SLOAD DUP2 PUSH1 0xFF MUL NOT AND SWAP1 DUP4 PUSH1 0x0 SIGNEXTEND PUSH1 0xFF AND MUL OR SWAP1 SSTORE POP PUSH2 0x1C8 PUSH1 0x4 SSTORE PUSH32 0xFFFFFFFFFFFFFFFFFFFFFFFFFFFFFFFFFFFFFFFFFFFFFFFFFFFFFFFFFFFFFF85 PUSH1 0x5 SSTORE PUSH20 0xCA35B7D915458EF540ADE6068DFE2F44E8FA733C PUSH1 0x6 PUSH1 0x0 PUSH2 0x100 EXP DUP2 SLOAD DUP2 PUSH20 0xFFFFFFFFFFFFFFFFFFFFFFFFFFFFFFFFFFFFFFFF MUL NOT AND SWAP1 DUP4 PUSH20 0xFFFFFFFFFFFFFFFFFFFFFFFFFFFFFFFFFFFFFFFF AND MUL OR SWAP1 SSTORE POP CALLVALUE DUP1 ISZERO PUSH2 0x1BC JUMPI PUSH1 0x0 DUP1 REVERT JUMPDEST POP PUSH2 0x560 DUP1 PUSH2 0x1CC PUSH1 0x0 CODECOPY PUSH1 0x0 RETURN INVALID PUSH1 0x80 PUSH1 0x40 MSTORE CALLVALUE DUP1 ISZERO PUSH2 0x10 JUMPI PUSH1 0x0 DUP1 REVERT JUMPDEST POP PUSH1 0x4 CALLDATASIZE LT PUSH2 0xF5 JUMPI PUSH1 0x0 CALLDATALOAD PUSH1 0xE0 SHR DUP1 PUSH4 0x6A76E307 GT PUSH2 0x97 JUMPI DUP1 PUSH4 0xAB3A58A3 GT PUSH2 0x66 JUMPI DUP1 PUSH4 0xAB3A58A3 EQ PUSH2 0x244 JUMPI DUP1 PUSH4 0xC6A898C5 EQ PUSH2 0x262 JUMPI DUP1 PUSH4 0xE5AA3D58 EQ PUSH2 0x280 JUMPI DUP1 PUSH4 0xF2427D37 EQ PUSH2 0x29E JUMPI PUSH2 0xF5 JUMP JUMPDEST DUP1 PUSH4 0x6A76E307 EQ PUSH2 0x1CC JUMPI DUP1 PUSH4 0x767800DE EQ PUSH2 0x1EA JUMPI DUP1 PUSH4 0x78063B1F EQ PUSH2 0x208 JUMPI DUP1 PUSH4 0x921CDA74 EQ PUSH2 0x226 JUMPI PUSH2 0xF5 JUMP JUMPDEST DUP1 PUSH4 0x459B1ACF GT PUSH2 0xD3 JUMPI DUP1 PUSH4 0x459B1ACF EQ PUSH2 0x154 JUMPI DUP1 PUSH4 0x4B3DF200 EQ PUSH2 0x172 JUMPI DUP1 PUSH4 0x4C27FD62 EQ PUSH2 0x190 JUMPI DUP1 PUSH4 0x5ABE622B EQ PUSH2 0x1AE JUMPI PUSH2 0xF5 JUMP JUMPDEST DUP1 PUSH4 0x74EEF3F EQ PUSH2 0xFA JUMPI DUP1 PUSH4 0x149D8FFC EQ PUSH2 0x118 JUMPI DUP1 PUSH4 0x1570C2CB EQ PUSH2 0x136 JUMPI JUMPDEST PUSH1 0x0 DUP1 REVERT JUMPDEST PUSH2 0x102 PUSH2 0x2BC JUMP JUMPDEST PUSH1 0x40 MLOAD PUSH2 0x10F SWAP2 SWAP1 PUSH2 0x3DD JUMP JUMPDEST PUSH1 0x40 MLOAD DUP1 SWAP2 SUB SWAP1 RETURN JUMPDEST PUSH2 0x120 PUSH2 0x2CF JUMP JUMPDEST PUSH1 0x40 MLOAD PUSH2 0x12D SWAP2 SWAP1 PUSH2 0x414 JUMP JUMPDEST PUSH1 0x40 MLOAD DUP1 SWAP2 SUB SWAP1 RETURN JUMPDEST PUSH2 0x13E PUSH2 0x2E2 JUMP JUMPDEST PUSH1 0x40 MLOAD PUSH2 0x14B SWAP2 SWAP1 PUSH2 0x448 JUMP JUMPDEST PUSH1 0x40 MLOAD DUP1 SWAP2 SUB SWAP1 RETURN JUMPDEST PUSH2 0x15C PUSH2 0x2E8 JUMP JUMPDEST PUSH1 0x40 MLOAD PUSH2 0x169 SWAP2 SWAP1 PUSH2 0x448 JUMP JUMPDEST PUSH1 0x40 MLOAD DUP1 SWAP2 SUB SWAP1 RETURN JUMPDEST PUSH2 0x17A PUSH2 0x2EE JUMP JUMPDEST PUSH1 0x40 MLOAD PUSH2 0x187 SWAP2 SWAP1 PUSH2 0x3DD JUMP JUMPDEST PUSH1 0x40 MLOAD DUP1 SWAP2 SUB SWAP1 RETURN JUMPDEST PUSH2 0x198 PUSH2 0x301 JUMP JUMPDEST PUSH1 0x40 MLOAD PUSH2 0x1A5 SWAP2 SWAP1 PUSH2 0x47C JUMP JUMPDEST PUSH1 0x40 MLOAD DUP1 SWAP2 SUB SWAP1 RETURN JUMPDEST PUSH2 0x1B6 PUSH2 0x307 JUMP JUMPDEST PUSH1 0x40 MLOAD PUSH2 0x1C3 SWAP2 SWAP1 PUSH2 0x47C JUMP JUMPDEST PUSH1 0x40 MLOAD DUP1 SWAP2 SUB SWAP1 RETURN JUMPDEST PUSH2 0x1D4 PUSH2 0x30D JUMP JUMPDEST PUSH1 0x40 MLOAD PUSH2 0x1E1 SWAP2 SWAP1 PUSH2 0x4D8 JUMP JUMPDEST PUSH1 0x40 MLOAD DUP1 SWAP2 SUB SWAP1 RETURN JUMPDEST PUSH2 0x1F2 PUSH2 0x331 JUMP JUMPDEST PUSH1 0x40 MLOAD PUSH2 0x1FF SWAP2 SWAP1 PUSH2 0x4D8 JUMP JUMPDEST PUSH1 0x40 MLOAD DUP1 SWAP2 SUB SWAP1 RETURN JUMPDEST PUSH2 0x210 PUSH2 0x357 JUMP JUMPDEST PUSH1 0x40 MLOAD PUSH2 0x21D SWAP2 SWAP1 PUSH2 0x50F JUMP JUMPDEST PUSH1 0x40 MLOAD DUP1 SWAP2 SUB SWAP1 RETURN JUMPDEST PUSH2 0x22E PUSH2 0x36A JUMP JUMPDEST PUSH1 0x40 MLOAD PUSH2 0x23B SWAP2 SWAP1 PUSH2 0x50F JUMP JUMPDEST PUSH1 0x40 MLOAD DUP1 SWAP2 SUB SWAP1 RETURN JUMPDEST PUSH2 0x24C PUSH2 0x37D JUMP JUMPDEST PUSH1 0x40 MLOAD PUSH2 0x259 SWAP2 SWAP1 PUSH2 0x414 JUMP JUMPDEST PUSH1 0x40 MLOAD DUP1 SWAP2 SUB SWAP1 RETURN JUMPDEST PUSH2 0x26A PUSH2 0x390 JUMP JUMPDEST PUSH1 0x40 MLOAD PUSH2 0x277 SWAP2 SWAP1 PUSH2 0x448 JUMP JUMPDEST PUSH1 0x40 MLOAD DUP1 SWAP2 SUB SWAP1 RETURN JUMPDEST PUSH2 0x288 PUSH2 0x396 JUMP JUMPDEST PUSH1 0x40 MLOAD PUSH2 0x295 SWAP2 SWAP1 PUSH2 0x47C JUMP JUMPDEST PUSH1 0x40 MLOAD DUP1 SWAP2 SUB SWAP1 RETURN JUMPDEST PUSH2 0x2A6 PUSH2 0x39C JUMP JUMPDEST PUSH1 0x40 MLOAD PUSH2 0x2B3 SWAP2 SWAP1 PUSH2 0x4D8 JUMP JUMPDEST PUSH1 0x40 MLOAD DUP1 SWAP2 SUB SWAP1 RETURN JUMPDEST PUSH1 0x6 PUSH1 0x14 SWAP1 SLOAD SWAP1 PUSH2 0x100 EXP SWAP1 DIV PUSH1 0xFF AND DUP2 JUMP JUMPDEST PUSH1 0x0 PUSH1 0x15 SWAP1 SLOAD SWAP1 PUSH2 0x100 EXP SWAP1 DIV PUSH1 0xFF AND DUP2 JUMP JUMPDEST PUSH1 0x7 SLOAD DUP2 JUMP JUMPDEST PUSH1 0x1 SLOAD DUP2 JUMP JUMPDEST PUSH1 0x0 PUSH1 0x16 SWAP1 SLOAD SWAP1 PUSH2 0x100 EXP SWAP1 DIV PUSH1 0xFF AND DUP2 JUMP JUMPDEST PUSH1 0x4 SLOAD DUP2 JUMP JUMPDEST PUSH1 0x8 SLOAD DUP2 JUMP JUMPDEST PUSH1 0x0 DUP1 SLOAD SWAP1 PUSH2 0x100 EXP SWAP1 DIV PUSH20 0xFFFFFFFFFFFFFFFFFFFFFFFFFFFFFFFFFFFFFFFF AND DUP2 JUMP JUMPDEST PUSH1 0x6 PUSH1 0x0 SWAP1 SLOAD SWAP1 PUSH2 0x100 EXP SWAP1 DIV PUSH20 0xFFFFFFFFFFFFFFFFFFFFFFFFFFFFFFFFFFFFFFFF AND DUP2 JUMP JUMPDEST PUSH1 0x0 PUSH1 0x14 SWAP1 SLOAD SWAP1 PUSH2 0x100 EXP SWAP1 DIV PUSH1 0x0 SIGNEXTEND DUP2 JUMP JUMPDEST PUSH1 0x3 PUSH1 0x0 SWAP1 SLOAD SWAP1 PUSH2 0x100 EXP SWAP1 DIV PUSH1 0x0 SIGNEXTEND DUP2 JUMP JUMPDEST PUSH1 0x0 PUSH1 0x17 SWAP1 SLOAD SWAP1 PUSH2 0x100 EXP SWAP1 DIV PUSH1 0xFF AND DUP2 JUMP JUMPDEST PUSH1 0x2 SLOAD DUP2 JUMP JUMPDEST PUSH1 0x5 SLOAD DUP2 JUMP JUMPDEST PUSH1 0x9 PUSH1 0x0 SWAP1 SLOAD SWAP1 PUSH2 0x100 EXP SWAP1 DIV PUSH20 0xFFFFFFFFFFFFFFFFFFFFFFFFFFFFFFFFFFFFFFFF AND DUP2 JUMP JUMPDEST PUSH1 0x0 DUP2 ISZERO ISZERO SWAP1 POP SWAP2 SWAP1 POP JUMP JUMPDEST PUSH2 0x3D7 DUP2 PUSH2 0x3C2 JUMP JUMPDEST DUP3 MSTORE POP POP JUMP JUMPDEST PUSH1 0x0 PUSH1 0x20 DUP3 ADD SWAP1 POP PUSH2 0x3F2 PUSH1 0x0 DUP4 ADD DUP5 PUSH2 0x3CE JUMP JUMPDEST SWAP3 SWAP2 POP POP JUMP JUMPDEST PUSH1 0x0 PUSH1 0xFF DUP3 AND SWAP1 POP SWAP2 SWAP1 POP JUMP JUMPDEST PUSH2 0x40E DUP2 PUSH2 0x3F8 JUMP JUMPDEST DUP3 MSTORE POP POP JUMP JUMPDEST PUSH1 0x0 PUSH1 0x20 DUP3 ADD SWAP1 POP PUSH2 0x429 PUSH1 0x0 DUP4 ADD DUP5 PUSH2 0x405 JUMP JUMPDEST SWAP3 SWAP2 POP POP JUMP JUMPDEST PUSH1 0x0 DUP2 SWAP1 POP SWAP2 SWAP1 POP JUMP JUMPDEST PUSH2 0x442 DUP2 PUSH2 0x42F JUMP JUMPDEST DUP3 MSTORE POP POP JUMP JUMPDEST PUSH1 0x0 PUSH1 0x20 DUP3 ADD SWAP1 POP PUSH2 0x45D PUSH1 0x0 DUP4 ADD DUP5 PUSH2 0x439 JUMP JUMPDEST SWAP3 SWAP2 POP POP JUMP JUMPDEST PUSH1 0x0 DUP2 SWAP1 POP SWAP2 SWAP1 POP JUMP JUMPDEST PUSH2 0x476 DUP2 PUSH2 0x463 JUMP JUMPDEST DUP3 MSTORE POP POP JUMP JUMPDEST PUSH1 0x0 PUSH1 0x20 DUP3 ADD SWAP1 POP PUSH2 0x491 PUSH1 0x0 DUP4 ADD DUP5 PUSH2 0x46D JUMP JUMPDEST SWAP3 SWAP2 POP POP JUMP JUMPDEST PUSH1 0x0 PUSH20 0xFFFFFFFFFFFFFFFFFFFFFFFFFFFFFFFFFFFFFFFF DUP3 AND SWAP1 POP SWAP2 SWAP1 POP JUMP JUMPDEST PUSH1 0x0 PUSH2 0x4C2 DUP3 PUSH2 0x497 JUMP JUMPDEST SWAP1 POP SWAP2 SWAP1 POP JUMP JUMPDEST PUSH2 0x4D2 DUP2 PUSH2 0x4B7 JUMP JUMPDEST DUP3 MSTORE POP POP JUMP JUMPDEST PUSH1 0x0 PUSH1 0x20 DUP3 ADD SWAP1 POP PUSH2 0x4ED PUSH1 0x0 DUP4 ADD DUP5 PUSH2 0x4C9 JUMP JUMPDEST SWAP3 SWAP2 POP POP JUMP JUMPDEST PUSH1 0x0 DUP2 PUSH1 0x0 SIGNEXTEND SWAP1 POP SWAP2 SWAP1 POP JUMP JUMPDEST PUSH2 0x509 DUP2 PUSH2 0x4F3 JUMP JUMPDEST DUP3 MSTORE POP POP JUMP JUMPDEST PUSH1 0x0 PUSH1 0x20 DUP3 ADD SWAP1 POP PUSH2 0x524 PUSH1 0x0 DUP4 ADD DUP5 PUSH2 0x500 JUMP JUMPDEST SWAP3 SWAP2 POP POP JUMP INVALID LOG2 PUSH5 0x6970667358 0x22 SLT KECCAK256 MLOAD DUP14 0x4C PUSH28 0x80C1F47BAC2FB8B60F1BCF52F20D93111F5006873F9B5CFC02694ACD PUSH5 0x736F6C6343 STOP ADDMOD SLT STOP CALLER "
				},
				"gasEstimates": {
					"creation": {
						"codeDepositCost": "275200",
						"executionCost": "258821",
						"totalCost": "534021"
					},
					"external": {
						"addr()": "2559",
						"boo()": "2566",
						"defaultAddr()": "2602",
						"defaultBoo()": "2545",
						"defaultInt()": "2518",
						"defaultUint()": "2497",
						"i()": "2495",
						"i256()": "2496",
						"i8()": "2564",
						"neg()": "2592",
						"newAddr()": "2534",
						"newU()": "2567",
						"u()": "2473",
						"u256()": "2452",
						"u8()": "2543"
					}
				},
				"methodIdentifiers": {
					"addr()": "767800de",
					"boo()": "4b3df200",
					"defaultAddr()": "f2427d37",
					"defaultBoo()": "074eef3f",
					"defaultInt()": "5abe622b",
					"defaultUint()": "1570c2cb",
					"i()": "e5aa3d58",
					"i256()": "4c27fd62",
					"i8()": "921cda74",
					"neg()": "78063b1f",
					"newAddr()": "6a76e307",
					"newU()": "149d8ffc",
					"u()": "c6a898c5",
					"u256()": "459b1acf",
					"u8()": "ab3a58a3"
				}
			},
			"storageLayout": {
				"storage": [
					{
						"astId": 4,
						"contract": ".learneth/Solidity Beginner Course/3. Primitive Data Types/primitiveDataTypes.sol:Primitives",
						"label": "newAddr",
						"offset": 0,
						"slot": "0",
						"type": "t_address"
					},
					{
						"astId": 8,
						"contract": ".learneth/Solidity Beginner Course/3. Primitive Data Types/primitiveDataTypes.sol:Primitives",
						"label": "neg",
						"offset": 20,
						"slot": "0",
						"type": "t_int8"
					},
					{
						"astId": 11,
						"contract": ".learneth/Solidity Beginner Course/3. Primitive Data Types/primitiveDataTypes.sol:Primitives",
						"label": "newU",
						"offset": 21,
						"slot": "0",
						"type": "t_uint8"
					},
					{
						"astId": 14,
						"contract": ".learneth/Solidity Beginner Course/3. Primitive Data Types/primitiveDataTypes.sol:Primitives",
						"label": "boo",
						"offset": 22,
						"slot": "0",
						"type": "t_bool"
					},
					{
						"astId": 17,
						"contract": ".learneth/Solidity Beginner Course/3. Primitive Data Types/primitiveDataTypes.sol:Primitives",
						"label": "u8",
						"offset": 23,
						"slot": "0",
						"type": "t_uint8"
					},
					{
						"astId": 20,
						"contract": ".learneth/Solidity Beginner Course/3. Primitive Data Types/primitiveDataTypes.sol:Primitives",
						"label": "u256",
						"offset": 0,
						"slot": "1",
						"type": "t_uint256"
					},
					{
						"astId": 23,
						"contract": ".learneth/Solidity Beginner Course/3. Primitive Data Types/primitiveDataTypes.sol:Primitives",
						"label": "u",
						"offset": 0,
						"slot": "2",
						"type": "t_uint256"
					},
					{
						"astId": 27,
						"contract": ".learneth/Solidity Beginner Course/3. Primitive Data Types/primitiveDataTypes.sol:Primitives",
						"label": "i8",
						"offset": 0,
						"slot": "3",
						"type": "t_int8"
					},
					{
						"astId": 30,
						"contract": ".learneth/Solidity Beginner Course/3. Primitive Data Types/primitiveDataTypes.sol:Primitives",
						"label": "i256",
						"offset": 0,
						"slot": "4",
						"type": "t_int256"
					},
					{
						"astId": 34,
						"contract": ".learneth/Solidity Beginner Course/3. Primitive Data Types/primitiveDataTypes.sol:Primitives",
						"label": "i",
						"offset": 0,
						"slot": "5",
						"type": "t_int256"
					},
					{
						"astId": 37,
						"contract": ".learneth/Solidity Beginner Course/3. Primitive Data Types/primitiveDataTypes.sol:Primitives",
						"label": "addr",
						"offset": 0,
						"slot": "6",
						"type": "t_address"
					},
					{
						"astId": 39,
						"contract": ".learneth/Solidity Beginner Course/3. Primitive Data Types/primitiveDataTypes.sol:Primitives",
						"label": "defaultBoo",
						"offset": 20,
						"slot": "6",
						"type": "t_bool"
					},
					{
						"astId": 41,
						"contract": ".learneth/Solidity Beginner Course/3. Primitive Data Types/primitiveDataTypes.sol:Primitives",
						"label": "defaultUint",
						"offset": 0,
						"slot": "7",
						"type": "t_uint256"
					},
					{
						"astId": 43,
						"contract": ".learneth/Solidity Beginner Course/3. Primitive Data Types/primitiveDataTypes.sol:Primitives",
						"label": "defaultInt",
						"offset": 0,
						"slot": "8",
						"type": "t_int256"
					},
					{
						"astId": 45,
						"contract": ".learneth/Solidity Beginner Course/3. Primitive Data Types/primitiveDataTypes.sol:Primitives",
						"label": "defaultAddr",
						"offset": 0,
						"slot": "9",
						"type": "t_address"
					}
				],
				"types": {
					"t_address": {
						"encoding": "inplace",
						"label": "address",
						"numberOfBytes": "20"
					},
					"t_bool": {
						"encoding": "inplace",
						"label": "bool",
						"numberOfBytes": "1"
					},
					"t_int256": {
						"encoding": "inplace",
						"label": "int256",
						"numberOfBytes": "32"
					},
					"t_int8": {
						"encoding": "inplace",
						"label": "int8",
						"numberOfBytes": "1"
					},
					"t_uint256": {
						"encoding": "inplace",
						"label": "uint256",
						"numberOfBytes": "32"
					},
					"t_uint8": {
						"encoding": "inplace",
						"label": "uint8",
						"numberOfBytes": "1"
					}
				}
			},
			"userdoc": {
				"kind": "user",
				"methods": {},
				"version": 1
			}
		}
	}
}