{
	".learneth/Solidity Beginner Course/5.2 Functions - View and Pure/viewAndPure.sol": {
		"ViewAndPure": {
			"abi": [
				{
					"inputs": [
						{
							"internalType": "uint256",
							"name": "i",
							"type": "uint256"
						},
						{
							"internalType": "uint256",
							"name": "j",
							"type": "uint256"
						}
					],
					"name": "add",
					"outputs": [
						{
							"internalType": "uint256",
							"name": "",
							"type": "uint256"
						}
					],
					"stateMutability": "pure",
					"type": "function"
				},
				{
					"inputs": [
						{
							"internalType": "uint256",
							"name": "y",
							"type": "uint256"
						}
					],
					"name": "addToX",
					"outputs": [
						{
							"internalType": "uint256",
							"name": "",
							"type": "uint256"
						}
					],
					"stateMutability": "view",
					"type": "function"
				},
				{
					"inputs": [
						{
							"internalType": "uint256",
							"name": "y",
							"type": "uint256"
						}
					],
					"name": "addToX2",
					"outputs": [],
					"stateMutability": "nonpayable",
					"type": "function"
				},
				{
					"inputs": [],
					"name": "x",
					"outputs": [
						{
							"internalType": "uint256",
							"name": "",
							"type": "uint256"
						}
					],
					"stateMutability": "view",
					"type": "function"
				}
			],
			"devdoc": {
				"kind": "dev",
				"methods": {},
				"version": 1
			},
			"evm": {
				"assembly": "    /* \".learneth/Solidity Beginner Course/5.2 Functions - View and Pure/viewAndPure.sol\":57:438  contract ViewAndPure {... */\n  mstore(0x40, 0x80)\n    /* \".learneth/Solidity Beginner Course/5.2 Functions - View and Pure/viewAndPure.sol\":100:101  1 */\n  0x01\n    /* \".learneth/Solidity Beginner Course/5.2 Functions - View and Pure/viewAndPure.sol\":84:101  uint public x = 1 */\n  0x00\n  sstore\n    /* \".learneth/Solidity Beginner Course/5.2 Functions - View and Pure/viewAndPure.sol\":57:438  contract ViewAndPure {... */\n  callvalue\n  dup1\n  iszero\n  tag_1\n  jumpi\n  0x00\n  dup1\n  revert\ntag_1:\n  pop\n  dataSize(sub_0)\n  dup1\n  dataOffset(sub_0)\n  0x00\n  codecopy\n  0x00\n  return\nstop\n\nsub_0: assembly {\n        /* \".learneth/Solidity Beginner Course/5.2 Functions - View and Pure/viewAndPure.sol\":57:438  contract ViewAndPure {... */\n      mstore(0x40, 0x80)\n      callvalue\n      dup1\n      iszero\n      tag_1\n      jumpi\n      0x00\n      dup1\n      revert\n    tag_1:\n      pop\n      jumpi(tag_2, lt(calldatasize, 0x04))\n      shr(0xe0, calldataload(0x00))\n      dup1\n      0x0c55699c\n      eq\n      tag_3\n      jumpi\n      dup1\n      0x5965da77\n      eq\n      tag_4\n      jumpi\n      dup1\n      0x771602f7\n      eq\n      tag_5\n      jumpi\n      dup1\n      0xfe39fe8e\n      eq\n      tag_6\n      jumpi\n    tag_2:\n      0x00\n      dup1\n      revert\n        /* \".learneth/Solidity Beginner Course/5.2 Functions - View and Pure/viewAndPure.sol\":84:101  uint public x = 1 */\n    tag_3:\n      tag_7\n      tag_8\n      jump\t// in\n    tag_7:\n      mload(0x40)\n      tag_9\n      swap2\n      swap1\n      tag_10\n      jump\t// in\n    tag_9:\n      mload(0x40)\n      dup1\n      swap2\n      sub\n      swap1\n      return\n        /* \".learneth/Solidity Beginner Course/5.2 Functions - View and Pure/viewAndPure.sol\":148:228  function addToX(uint y) public view returns (uint) {... */\n    tag_4:\n      tag_11\n      0x04\n      dup1\n      calldatasize\n      sub\n      dup2\n      add\n      swap1\n      tag_12\n      swap2\n      swap1\n      tag_13\n      jump\t// in\n    tag_12:\n      tag_14\n      jump\t// in\n    tag_11:\n      mload(0x40)\n      tag_15\n      swap2\n      swap1\n      tag_10\n      jump\t// in\n    tag_15:\n      mload(0x40)\n      dup1\n      swap2\n      sub\n      swap1\n      return\n        /* \".learneth/Solidity Beginner Course/5.2 Functions - View and Pure/viewAndPure.sol\":287:372  function add(uint i, uint j) public pure returns (uint) {... */\n    tag_5:\n      tag_16\n      0x04\n      dup1\n      calldatasize\n      sub\n      dup2\n      add\n      swap1\n      tag_17\n      swap2\n      swap1\n      tag_18\n      jump\t// in\n    tag_17:\n      tag_19\n      jump\t// in\n    tag_16:\n      mload(0x40)\n      tag_20\n      swap2\n      swap1\n      tag_10\n      jump\t// in\n    tag_20:\n      mload(0x40)\n      dup1\n      swap2\n      sub\n      swap1\n      return\n        /* \".learneth/Solidity Beginner Course/5.2 Functions - View and Pure/viewAndPure.sol\":378:436  function addToX2(uint y) public {... */\n    tag_6:\n      tag_21\n      0x04\n      dup1\n      calldatasize\n      sub\n      dup2\n      add\n      swap1\n      tag_22\n      swap2\n      swap1\n      tag_13\n      jump\t// in\n    tag_22:\n      tag_23\n      jump\t// in\n    tag_21:\n      stop\n        /* \".learneth/Solidity Beginner Course/5.2 Functions - View and Pure/viewAndPure.sol\":84:101  uint public x = 1 */\n    tag_8:\n      sload(0x00)\n      dup2\n      jump\t// out\n        /* \".learneth/Solidity Beginner Course/5.2 Functions - View and Pure/viewAndPure.sol\":148:228  function addToX(uint y) public view returns (uint) {... */\n    tag_14:\n        /* \".learneth/Solidity Beginner Course/5.2 Functions - View and Pure/viewAndPure.sol\":193:197  uint */\n      0x00\n        /* \".learneth/Solidity Beginner Course/5.2 Functions - View and Pure/viewAndPure.sol\":220:221  y */\n      dup2\n        /* \".learneth/Solidity Beginner Course/5.2 Functions - View and Pure/viewAndPure.sol\":216:217  x */\n      sload(0x00)\n        /* \".learneth/Solidity Beginner Course/5.2 Functions - View and Pure/viewAndPure.sol\":216:221  x + y */\n      tag_25\n      swap2\n      swap1\n      tag_26\n      jump\t// in\n    tag_25:\n        /* \".learneth/Solidity Beginner Course/5.2 Functions - View and Pure/viewAndPure.sol\":209:221  return x + y */\n      swap1\n      pop\n        /* \".learneth/Solidity Beginner Course/5.2 Functions - View and Pure/viewAndPure.sol\":148:228  function addToX(uint y) public view returns (uint) {... */\n      swap2\n      swap1\n      pop\n      jump\t// out\n        /* \".learneth/Solidity Beginner Course/5.2 Functions - View and Pure/viewAndPure.sol\":287:372  function add(uint i, uint j) public pure returns (uint) {... */\n    tag_19:\n        /* \".learneth/Solidity Beginner Course/5.2 Functions - View and Pure/viewAndPure.sol\":337:341  uint */\n      0x00\n        /* \".learneth/Solidity Beginner Course/5.2 Functions - View and Pure/viewAndPure.sol\":364:365  j */\n      dup2\n        /* \".learneth/Solidity Beginner Course/5.2 Functions - View and Pure/viewAndPure.sol\":360:361  i */\n      dup4\n        /* \".learneth/Solidity Beginner Course/5.2 Functions - View and Pure/viewAndPure.sol\":360:365  i + j */\n      tag_28\n      swap2\n      swap1\n      tag_26\n      jump\t// in\n    tag_28:\n        /* \".learneth/Solidity Beginner Course/5.2 Functions - View and Pure/viewAndPure.sol\":353:365  return i + j */\n      swap1\n      pop\n        /* \".learneth/Solidity Beginner Course/5.2 Functions - View and Pure/viewAndPure.sol\":287:372  function add(uint i, uint j) public pure returns (uint) {... */\n      swap3\n      swap2\n      pop\n      pop\n      jump\t// out\n        /* \".learneth/Solidity Beginner Course/5.2 Functions - View and Pure/viewAndPure.sol\":378:436  function addToX2(uint y) public {... */\n    tag_23:\n        /* \".learneth/Solidity Beginner Course/5.2 Functions - View and Pure/viewAndPure.sol\":428:429  y */\n      dup1\n        /* \".learneth/Solidity Beginner Course/5.2 Functions - View and Pure/viewAndPure.sol\":424:425  x */\n      sload(0x00)\n        /* \".learneth/Solidity Beginner Course/5.2 Functions - View and Pure/viewAndPure.sol\":424:429  x + y */\n      tag_30\n      swap2\n      swap1\n      tag_26\n      jump\t// in\n    tag_30:\n        /* \".learneth/Solidity Beginner Course/5.2 Functions - View and Pure/viewAndPure.sol\":420:421  x */\n      0x00\n        /* \".learneth/Solidity Beginner Course/5.2 Functions - View and Pure/viewAndPure.sol\":420:429  x = x + y */\n      dup2\n      swap1\n      sstore\n      pop\n        /* \".learneth/Solidity Beginner Course/5.2 Functions - View and Pure/viewAndPure.sol\":378:436  function addToX2(uint y) public {... */\n      pop\n      jump\t// out\n        /* \"#utility.yul\":7:84   */\n    tag_31:\n        /* \"#utility.yul\":44:51   */\n      0x00\n        /* \"#utility.yul\":73:78   */\n      dup2\n        /* \"#utility.yul\":62:78   */\n      swap1\n      pop\n        /* \"#utility.yul\":7:84   */\n      swap2\n      swap1\n      pop\n      jump\t// out\n        /* \"#utility.yul\":90:208   */\n    tag_32:\n        /* \"#utility.yul\":177:201   */\n      tag_42\n        /* \"#utility.yul\":195:200   */\n      dup2\n        /* \"#utility.yul\":177:201   */\n      tag_31\n      jump\t// in\n    tag_42:\n        /* \"#utility.yul\":172:175   */\n      dup3\n        /* \"#utility.yul\":165:202   */\n      mstore\n        /* \"#utility.yul\":90:208   */\n      pop\n      pop\n      jump\t// out\n        /* \"#utility.yul\":214:436   */\n    tag_10:\n        /* \"#utility.yul\":307:311   */\n      0x00\n        /* \"#utility.yul\":345:347   */\n      0x20\n        /* \"#utility.yul\":334:343   */\n      dup3\n        /* \"#utility.yul\":330:348   */\n      add\n        /* \"#utility.yul\":322:348   */\n      swap1\n      pop\n        /* \"#utility.yul\":358:429   */\n      tag_44\n        /* \"#utility.yul\":426:427   */\n      0x00\n        /* \"#utility.yul\":415:424   */\n      dup4\n        /* \"#utility.yul\":411:428   */\n      add\n        /* \"#utility.yul\":402:408   */\n      dup5\n        /* \"#utility.yul\":358:429   */\n      tag_32\n      jump\t// in\n    tag_44:\n        /* \"#utility.yul\":214:436   */\n      swap3\n      swap2\n      pop\n      pop\n      jump\t// out\n        /* \"#utility.yul\":523:640   */\n    tag_34:\n        /* \"#utility.yul\":632:633   */\n      0x00\n        /* \"#utility.yul\":629:630   */\n      dup1\n        /* \"#utility.yul\":622:634   */\n      revert\n        /* \"#utility.yul\":769:891   */\n    tag_36:\n        /* \"#utility.yul\":842:866   */\n      tag_49\n        /* \"#utility.yul\":860:865   */\n      dup2\n        /* \"#utility.yul\":842:866   */\n      tag_31\n      jump\t// in\n    tag_49:\n        /* \"#utility.yul\":835:840   */\n      dup2\n        /* \"#utility.yul\":832:867   */\n      eq\n        /* \"#utility.yul\":822:885   */\n      tag_50\n      jumpi\n        /* \"#utility.yul\":881:882   */\n      0x00\n        /* \"#utility.yul\":878:879   */\n      dup1\n        /* \"#utility.yul\":871:883   */\n      revert\n        /* \"#utility.yul\":822:885   */\n    tag_50:\n        /* \"#utility.yul\":769:891   */\n      pop\n      jump\t// out\n        /* \"#utility.yul\":897:1036   */\n    tag_37:\n        /* \"#utility.yul\":943:948   */\n      0x00\n        /* \"#utility.yul\":981:987   */\n      dup2\n        /* \"#utility.yul\":968:988   */\n      calldataload\n        /* \"#utility.yul\":959:988   */\n      swap1\n      pop\n        /* \"#utility.yul\":997:1030   */\n      tag_52\n        /* \"#utility.yul\":1024:1029   */\n      dup2\n        /* \"#utility.yul\":997:1030   */\n      tag_36\n      jump\t// in\n    tag_52:\n        /* \"#utility.yul\":897:1036   */\n      swap3\n      swap2\n      pop\n      pop\n      jump\t// out\n        /* \"#utility.yul\":1042:1371   */\n    tag_13:\n        /* \"#utility.yul\":1101:1107   */\n      0x00\n        /* \"#utility.yul\":1150:1152   */\n      0x20\n        /* \"#utility.yul\":1138:1147   */\n      dup3\n        /* \"#utility.yul\":1129:1136   */\n      dup5\n        /* \"#utility.yul\":1125:1148   */\n      sub\n        /* \"#utility.yul\":1121:1153   */\n      slt\n        /* \"#utility.yul\":1118:1237   */\n      iszero\n      tag_54\n      jumpi\n        /* \"#utility.yul\":1156:1235   */\n      tag_55\n      tag_34\n      jump\t// in\n    tag_55:\n        /* \"#utility.yul\":1118:1237   */\n    tag_54:\n        /* \"#utility.yul\":1276:1277   */\n      0x00\n        /* \"#utility.yul\":1301:1354   */\n      tag_56\n        /* \"#utility.yul\":1346:1353   */\n      dup5\n        /* \"#utility.yul\":1337:1343   */\n      dup3\n        /* \"#utility.yul\":1326:1335   */\n      dup6\n        /* \"#utility.yul\":1322:1344   */\n      add\n        /* \"#utility.yul\":1301:1354   */\n      tag_37\n      jump\t// in\n    tag_56:\n        /* \"#utility.yul\":1291:1354   */\n      swap2\n      pop\n        /* \"#utility.yul\":1247:1364   */\n      pop\n        /* \"#utility.yul\":1042:1371   */\n      swap3\n      swap2\n      pop\n      pop\n      jump\t// out\n        /* \"#utility.yul\":1377:1851   */\n    tag_18:\n        /* \"#utility.yul\":1445:1451   */\n      0x00\n        /* \"#utility.yul\":1453:1459   */\n      dup1\n        /* \"#utility.yul\":1502:1504   */\n      0x40\n        /* \"#utility.yul\":1490:1499   */\n      dup4\n        /* \"#utility.yul\":1481:1488   */\n      dup6\n        /* \"#utility.yul\":1477:1500   */\n      sub\n        /* \"#utility.yul\":1473:1505   */\n      slt\n        /* \"#utility.yul\":1470:1589   */\n      iszero\n      tag_58\n      jumpi\n        /* \"#utility.yul\":1508:1587   */\n      tag_59\n      tag_34\n      jump\t// in\n    tag_59:\n        /* \"#utility.yul\":1470:1589   */\n    tag_58:\n        /* \"#utility.yul\":1628:1629   */\n      0x00\n        /* \"#utility.yul\":1653:1706   */\n      tag_60\n        /* \"#utility.yul\":1698:1705   */\n      dup6\n        /* \"#utility.yul\":1689:1695   */\n      dup3\n        /* \"#utility.yul\":1678:1687   */\n      dup7\n        /* \"#utility.yul\":1674:1696   */\n      add\n        /* \"#utility.yul\":1653:1706   */\n      tag_37\n      jump\t// in\n    tag_60:\n        /* \"#utility.yul\":1643:1706   */\n      swap3\n      pop\n        /* \"#utility.yul\":1599:1716   */\n      pop\n        /* \"#utility.yul\":1755:1757   */\n      0x20\n        /* \"#utility.yul\":1781:1834   */\n      tag_61\n        /* \"#utility.yul\":1826:1833   */\n      dup6\n        /* \"#utility.yul\":1817:1823   */\n      dup3\n        /* \"#utility.yul\":1806:1815   */\n      dup7\n        /* \"#utility.yul\":1802:1824   */\n      add\n        /* \"#utility.yul\":1781:1834   */\n      tag_37\n      jump\t// in\n    tag_61:\n        /* \"#utility.yul\":1771:1834   */\n      swap2\n      pop\n        /* \"#utility.yul\":1726:1844   */\n      pop\n        /* \"#utility.yul\":1377:1851   */\n      swap3\n      pop\n      swap3\n      swap1\n      pop\n      jump\t// out\n        /* \"#utility.yul\":1857:2037   */\n    tag_38:\n        /* \"#utility.yul\":1905:1982   */\n      0x4e487b7100000000000000000000000000000000000000000000000000000000\n        /* \"#utility.yul\":1902:1903   */\n      0x00\n        /* \"#utility.yul\":1895:1983   */\n      mstore\n        /* \"#utility.yul\":2002:2006   */\n      0x11\n        /* \"#utility.yul\":1999:2000   */\n      0x04\n        /* \"#utility.yul\":1992:2007   */\n      mstore\n        /* \"#utility.yul\":2026:2030   */\n      0x24\n        /* \"#utility.yul\":2023:2024   */\n      0x00\n        /* \"#utility.yul\":2016:2031   */\n      revert\n        /* \"#utility.yul\":2043:2234   */\n    tag_26:\n        /* \"#utility.yul\":2083:2086   */\n      0x00\n        /* \"#utility.yul\":2102:2122   */\n      tag_64\n        /* \"#utility.yul\":2120:2121   */\n      dup3\n        /* \"#utility.yul\":2102:2122   */\n      tag_31\n      jump\t// in\n    tag_64:\n        /* \"#utility.yul\":2097:2122   */\n      swap2\n      pop\n        /* \"#utility.yul\":2136:2156   */\n      tag_65\n        /* \"#utility.yul\":2154:2155   */\n      dup4\n        /* \"#utility.yul\":2136:2156   */\n      tag_31\n      jump\t// in\n    tag_65:\n        /* \"#utility.yul\":2131:2156   */\n      swap3\n      pop\n        /* \"#utility.yul\":2179:2180   */\n      dup3\n        /* \"#utility.yul\":2176:2177   */\n      dup3\n        /* \"#utility.yul\":2172:2181   */\n      add\n        /* \"#utility.yul\":2165:2181   */\n      swap1\n      pop\n        /* \"#utility.yul\":2200:2203   */\n      dup1\n        /* \"#utility.yul\":2197:2198   */\n      dup3\n        /* \"#utility.yul\":2194:2204   */\n      gt\n        /* \"#utility.yul\":2191:2227   */\n      iszero\n      tag_66\n      jumpi\n        /* \"#utility.yul\":2207:2225   */\n      tag_67\n      tag_38\n      jump\t// in\n    tag_67:\n        /* \"#utility.yul\":2191:2227   */\n    tag_66:\n        /* \"#utility.yul\":2043:2234   */\n      swap3\n      swap2\n      pop\n      pop\n      jump\t// out\n\n    auxdata: 0xa2646970667358221220ca5013360e5188dc3b46cd046183e8ed1b56e881b597f6118ca7409d889b865464736f6c63430008120033\n}\n",
				"bytecode": {
					"linkReferences": {},
					"object": "6080604052600160005534801561001557600080fd5b506102a0806100256000396000f3fe608060405234801561001057600080fd5b506004361061004c5760003560e01c80630c55699c146100515780635965da771461006f578063771602f71461009f578063fe39fe8e146100cf575b600080fd5b6100596100eb565b604051610066919061014e565b60405180910390f35b6100896004803603810190610084919061019a565b6100f1565b604051610096919061014e565b60405180910390f35b6100b960048036038101906100b491906101c7565b610108565b6040516100c6919061014e565b60405180910390f35b6100e960048036038101906100e4919061019a565b61011e565b005b60005481565b6000816000546101019190610236565b9050919050565b600081836101169190610236565b905092915050565b8060005461012c9190610236565b60008190555050565b6000819050919050565b61014881610135565b82525050565b6000602082019050610163600083018461013f565b92915050565b600080fd5b61017781610135565b811461018257600080fd5b50565b6000813590506101948161016e565b92915050565b6000602082840312156101b0576101af610169565b5b60006101be84828501610185565b91505092915050565b600080604083850312156101de576101dd610169565b5b60006101ec85828601610185565b92505060206101fd85828601610185565b9150509250929050565b7f4e487b7100000000000000000000000000000000000000000000000000000000600052601160045260246000fd5b600061024182610135565b915061024c83610135565b925082820190508082111561026457610263610207565b5b9291505056fea2646970667358221220ca5013360e5188dc3b46cd046183e8ed1b56e881b597f6118ca7409d889b865464736f6c63430008120033",
					"opcodes": "PUSH1 0x80 PUSH1 0x40 MSTORE PUSH1 0x1 PUSH1 0x0 SSTORE CALLVALUE DUP1 ISZERO PUSH2 0x15 JUMPI PUSH1 0x0 DUP1 REVERT JUMPDEST POP PUSH2 0x2A0 DUP1 PUSH2 0x25 PUSH1 0x0 CODECOPY PUSH1 0x0 RETURN INVALID PUSH1 0x80 PUSH1 0x40 MSTORE CALLVALUE DUP1 ISZERO PUSH2 0x10 JUMPI PUSH1 0x0 DUP1 REVERT JUMPDEST POP PUSH1 0x4 CALLDATASIZE LT PUSH2 0x4C JUMPI PUSH1 0x0 CALLDATALOAD PUSH1 0xE0 SHR DUP1 PUSH4 0xC55699C EQ PUSH2 0x51 JUMPI DUP1 PUSH4 0x5965DA77 EQ PUSH2 0x6F JUMPI DUP1 PUSH4 0x771602F7 EQ PUSH2 0x9F JUMPI DUP1 PUSH4 0xFE39FE8E EQ PUSH2 0xCF JUMPI JUMPDEST PUSH1 0x0 DUP1 REVERT JUMPDEST PUSH2 0x59 PUSH2 0xEB JUMP JUMPDEST PUSH1 0x40 MLOAD PUSH2 0x66 SWAP2 SWAP1 PUSH2 0x14E JUMP JUMPDEST PUSH1 0x40 MLOAD DUP1 SWAP2 SUB SWAP1 RETURN JUMPDEST PUSH2 0x89 PUSH1 0x4 DUP1 CALLDATASIZE SUB DUP2 ADD SWAP1 PUSH2 0x84 SWAP2 SWAP1 PUSH2 0x19A JUMP JUMPDEST PUSH2 0xF1 JUMP JUMPDEST PUSH1 0x40 MLOAD PUSH2 0x96 SWAP2 SWAP1 PUSH2 0x14E JUMP JUMPDEST PUSH1 0x40 MLOAD DUP1 SWAP2 SUB SWAP1 RETURN JUMPDEST PUSH2 0xB9 PUSH1 0x4 DUP1 CALLDATASIZE SUB DUP2 ADD SWAP1 PUSH2 0xB4 SWAP2 SWAP1 PUSH2 0x1C7 JUMP JUMPDEST PUSH2 0x108 JUMP JUMPDEST PUSH1 0x40 MLOAD PUSH2 0xC6 SWAP2 SWAP1 PUSH2 0x14E JUMP JUMPDEST PUSH1 0x40 MLOAD DUP1 SWAP2 SUB SWAP1 RETURN JUMPDEST PUSH2 0xE9 PUSH1 0x4 DUP1 CALLDATASIZE SUB DUP2 ADD SWAP1 PUSH2 0xE4 SWAP2 SWAP1 PUSH2 0x19A JUMP JUMPDEST PUSH2 0x11E JUMP JUMPDEST STOP JUMPDEST PUSH1 0x0 SLOAD DUP2 JUMP JUMPDEST PUSH1 0x0 DUP2 PUSH1 0x0 SLOAD PUSH2 0x101 SWAP2 SWAP1 PUSH2 0x236 JUMP JUMPDEST SWAP1 POP SWAP2 SWAP1 POP JUMP JUMPDEST PUSH1 0x0 DUP2 DUP4 PUSH2 0x116 SWAP2 SWAP1 PUSH2 0x236 JUMP JUMPDEST SWAP1 POP SWAP3 SWAP2 POP POP JUMP JUMPDEST DUP1 PUSH1 0x0 SLOAD PUSH2 0x12C SWAP2 SWAP1 PUSH2 0x236 JUMP JUMPDEST PUSH1 0x0 DUP2 SWAP1 SSTORE POP POP JUMP JUMPDEST PUSH1 0x0 DUP2 SWAP1 POP SWAP2 SWAP1 POP JUMP JUMPDEST PUSH2 0x148 DUP2 PUSH2 0x135 JUMP JUMPDEST DUP3 MSTORE POP POP JUMP JUMPDEST PUSH1 0x0 PUSH1 0x20 DUP3 ADD SWAP1 POP PUSH2 0x163 PUSH1 0x0 DUP4 ADD DUP5 PUSH2 0x13F JUMP JUMPDEST SWAP3 SWAP2 POP POP JUMP JUMPDEST PUSH1 0x0 DUP1 REVERT JUMPDEST PUSH2 0x177 DUP2 PUSH2 0x135 JUMP JUMPDEST DUP2 EQ PUSH2 0x182 JUMPI PUSH1 0x0 DUP1 REVERT JUMPDEST POP JUMP JUMPDEST PUSH1 0x0 DUP2 CALLDATALOAD SWAP1 POP PUSH2 0x194 DUP2 PUSH2 0x16E JUMP JUMPDEST SWAP3 SWAP2 POP POP JUMP JUMPDEST PUSH1 0x0 PUSH1 0x20 DUP3 DUP5 SUB SLT ISZERO PUSH2 0x1B0 JUMPI PUSH2 0x1AF PUSH2 0x169 JUMP JUMPDEST JUMPDEST PUSH1 0x0 PUSH2 0x1BE DUP5 DUP3 DUP6 ADD PUSH2 0x185 JUMP JUMPDEST SWAP2 POP POP SWAP3 SWAP2 POP POP JUMP JUMPDEST PUSH1 0x0 DUP1 PUSH1 0x40 DUP4 DUP6 SUB SLT ISZERO PUSH2 0x1DE JUMPI PUSH2 0x1DD PUSH2 0x169 JUMP JUMPDEST JUMPDEST PUSH1 0x0 PUSH2 0x1EC DUP6 DUP3 DUP7 ADD PUSH2 0x185 JUMP JUMPDEST SWAP3 POP POP PUSH1 0x20 PUSH2 0x1FD DUP6 DUP3 DUP7 ADD PUSH2 0x185 JUMP JUMPDEST SWAP2 POP POP SWAP3 POP SWAP3 SWAP1 POP JUMP JUMPDEST PUSH32 0x4E487B7100000000000000000000000000000000000000000000000000000000 PUSH1 0x0 MSTORE PUSH1 0x11 PUSH1 0x4 MSTORE PUSH1 0x24 PUSH1 0x0 REVERT JUMPDEST PUSH1 0x0 PUSH2 0x241 DUP3 PUSH2 0x135 JUMP JUMPDEST SWAP2 POP PUSH2 0x24C DUP4 PUSH2 0x135 JUMP JUMPDEST SWAP3 POP DUP3 DUP3 ADD SWAP1 POP DUP1 DUP3 GT ISZERO PUSH2 0x264 JUMPI PUSH2 0x263 PUSH2 0x207 JUMP JUMPDEST JUMPDEST SWAP3 SWAP2 POP POP JUMP INVALID LOG2 PUSH5 0x6970667358 0x22 SLT KECCAK256 0xCA POP SGT CALLDATASIZE 0xE MLOAD DUP9 0xDC EXTCODESIZE CHAINID 0xCD DIV PUSH2 0x83E8 0xED SHL JUMP 0xE8 DUP2 0xB5 SWAP8 0xF6 GT DUP13 0xA7 BLOCKHASH SWAP14 DUP9 SWAP12 DUP7 SLOAD PUSH5 0x736F6C6343 STOP ADDMOD SLT STOP CALLER "
				},
				"gasEstimates": {
					"creation": {
						"codeDepositCost": "134400",
						"executionCost": "22283",
						"totalCost": "156683"
					},
					"external": {
						"add(uint256,uint256)": "infinite",
						"addToX(uint256)": "infinite",
						"addToX2(uint256)": "infinite",
						"x()": "2407"
					}
				},
				"methodIdentifiers": {
					"add(uint256,uint256)": "771602f7",
					"addToX(uint256)": "5965da77",
					"addToX2(uint256)": "fe39fe8e",
					"x()": "0c55699c"
				}
			},
			"storageLayout": {
				"storage": [
					{
						"astId": 4,
						"contract": ".learneth/Solidity Beginner Course/5.2 Functions - View and Pure/viewAndPure.sol:ViewAndPure",
						"label": "x",
						"offset": 0,
						"slot": "0",
						"type": "t_uint256"
					}
				],
				"types": {
					"t_uint256": {
						"encoding": "inplace",
						"label": "uint256",
						"numberOfBytes": "32"
					}
				}
			},
			"userdoc": {
				"kind": "user",
				"methods": {},
				"version": 1
			}
		}
	}
}